:10100000F0290020793A00008D060100653A0000C1
:10101000653A0000653A0000653A000000000000F3
:10102000000000000000000000000000613B000024
:10103000653A0000000000005D3D0000653A0000D8
:10104000CD3D0000CD3D0000CD3D0000CD3D000078
:10105000CD3D0000CD3D0000CD3D0000CD3D000068
:10106000CD3D0000CD3D0000CD3D0000CD3D000058
:10107000CD3D0000CD3D0000CD3D0000CD3D000048
:10108000CD3D0000CD3D0000CD3D0000CD3D000038
:10109000CD3D0000CD3D0000CD3D0000CD3D000028
:1010A000CD3D0000CD3D0000CD3D0000CD3D000018
:1010B000CD3D0000CD3D0000CD3D0000CD3D000008
:1010C000CD3D0000CD3D0000CD3D0000CD3D0000F8
:1010D000CD3D0000CD3D0000CD3D0000CD3D0000E8
:1010E000CD3D0000CD3D0000CD3D0000CD3D0000D8
:1010F000CD3D0000CD3D0000CD3D0000CD3D0000C8
:1011000081F0004102E000BF83F0004330B54FEAB8
:1011100041044FEA430594EA050F08BF90EA020F25
:101120001FBF54EA000C55EA020C7FEA645C7FEAB8
:10113000655C00F0E2804FEA5454D4EB5555B8BFDB
:101140006D420CDD2C4480EA020281EA030382EA4C
:10115000000083EA010180EA020281EA0303362DDE
:1011600088BF30BD11F0004F4FEA01314FF4801CB1
:101170004CEA113102D0404261EB410113F0004FC3
:101180004FEA03334CEA133302D0524263EB43037A
:1011900094EA050F00F0A780A4F10104D5F1200E18
:1011A0000DDB02FA0EFC22FA05F2801841F1000173
:1011B00003FA0EF2801843FA05F359410EE0A5F147
:1011C00020050EF1200E012A03FA0EFC28BF4CF078
:1011D000020C43FA05F3C01851EBE37101F000452E
:1011E00007D54FF0000EDCF1000C7EEB00006EEB3B
:1011F0000101B1F5801F1BD3B1F5001F0CD34908C5
:101200005FEA30004FEA3C0C04F101044FEA44521B
:1012100012F5800F80F09A80BCF1004F08BF5FEAA2
:10122000500C50F1000041EB045141EA050130BD82
:101230005FEA4C0C404141EB0101013C28BFB1F594
:10124000801FE9D291F0000F04BF01460020B1FADF
:1012500081F308BF2033A3F10B03B3F120020CDAB2
:101260000C3208DD02F1140CC2F10C0201FA0CF090
:1012700021FA02F10CE002F11402D8BFC2F1200CF5
:1012800001FA02F120FA0CFCDCBF41EA0C019040AB
:10129000E41AA2BF01EB0451294330BD6FEA0404F4
:1012A0001F3C1CDA0C340EDC04F11404C4F12002DF
:1012B00020FA04F001FA02F340EA030021FA04F3F1
:1012C00045EA030130BDC4F10C04C4F1200220FA48
:1012D00002F001FA04F340EA0300294630BD21FA86
:1012E00004F0294630BD94F0000F83F4801306BF4C
:1012F00081F480110134013D4EE77FEA645C18BF40
:101300007FEA655C29D094EA050F08BF90EA020FD6
:1013100005D054EA000C04BF1946104630BD91EACE
:10132000030F1EBF0021002030BD5FEA545C05D1D1
:101330004000494128BF41F0004130BD14F5800410
:101340003CBF01F5801130BD01F0004545F0FE4184
:1013500041F470014FF0000030BD7FEA645C1ABFB9
:10136000194610467FEA655C1CBF0B46024650EAF0
:10137000013406BF52EA033591EA030F41F400211C
:1013800030BD00BF90F0000F04BF0021704730B5A2
:101390004FF4806404F132044FF000054FF0000177
:1013A00050E700BF90F0000F04BF0021704730B538
:1013B0004FF4806404F1320410F0004548BF40420D
:1013C0004FF000013EE700BF42004FEAE2014FEA62
:1013D00031014FEA02701FBF12F07F4393F07F4F3D
:1013E00081F06051704732F07F4208BF704793F040
:1013F0007F4F04BF41F40021704730B54FF4607453
:1014000001F0004521F000411CE700BF50EA010255
:1014100008BF704730B54FF000050AE050EA0102FE
:1014200008BF704730B511F0004502D5404261EB6E
:1014300041014FF4806404F132045FEA915C3FF4AF
:10144000D8AE4FF003025FEADC0C18BF03325FEA4C
:10145000DC0C18BF033202EBDC02C2F1200300FAFD
:1014600003FC20FA02F001FA03FE40EA0E0021FA22
:1014700002F11444BDE600BF70B54FF0FF0C4CF410
:10148000E06C1CEA11541DBF1CEA135594EA0C0FC2
:1014900095EA0C0F00F0DEF82C4481EA030621EAFD
:1014A0004C5123EA4C5350EA013518BF52EA033538
:1014B00041F4801143F4801338D0A0FB02CE4FF0EA
:1014C0000005E1FB02E506F00042E0FB03E54FF01A
:1014D0000006E1FB03569CF0000F18BF4EF0010E12
:1014E000A4F1FF04B6F5007F64F5407404D25FEA0E
:1014F0004E0E6D4146EB060642EAC62141EA5551C1
:101500004FEAC52040EA5E504FEACE2EB4F1FD0C02
:1015100088BFBCF5E06F1ED8BEF1004F08BF5FEA80
:10152000500E50F1000041EB045170BD06F0004632
:1015300046EA010140EA020081EA0301B4EB5C04DF
:10154000C2BFD4EB0C0541EA045170BD41F48011D7
:101550004FF0000E013C00F3AB8014F1360FDEBFFC
:10156000002001F0004170BDC4F10004203C35DAD8
:101570000C341BDC04F11404C4F1200500FA05F35B
:1015800020FA04F001FA05F240EA020001F00042FC
:1015900021F0004110EBD37021FA04F642EB060172
:1015A0005EEA430E08BF20EAD37070BDC4F10C049C
:1015B000C4F1200500FA04F320FA05F001FA04F260
:1015C00040EA020001F0004110EBD37041F100014C
:1015D0005EEA430E08BF20EAD37070BDC4F1200557
:1015E00000FA05F24EEA020E20FA04F301FA05F2BF
:1015F00043EA020321FA04F001F0004121FA04F267
:1016000020EA020000EBD3705EEA430E08BF20EA36
:10161000D37070BD94F0000F0FD101F00046400070
:1016200041EB010111F4801F08BF013CF7D041EAF2
:10163000060195F0000F18BF704703F000465200F6
:1016400043EB030313F4801F08BF013DF7D043EAC7
:101650000603704794EA0C0F0CEA135518BF95EA7D
:101660000C0F0CD050EA410618BF52EA4306D1D104
:1016700081EA030101F000414FF0000070BD50EA23
:10168000410606BF1046194652EA430619D094EAAD
:101690000C0F02D150EA013613D195EA0C0F05D197
:1016A00052EA03361CBF104619460AD181EA0301EB
:1016B00001F0004141F0FE4141F470014FF00000A3
:1016C00070BD41F0FE4141F4780170BD70B54FF03E
:1016D000FF0C4CF4E06C1CEA11541DBF1CEA1355BE
:1016E00094EA0C0F95EA0C0F00F0A7F8A4EB0504A0
:1016F00081EA030E52EA03354FEA013100F0888097
:101700004FEA03334FF0805545EA131343EA12635F
:101710004FEA022245EA111545EA10654FEA002614
:101720000EF000419D4208BF964244F1FD0404F5CD
:10173000407402D25B084FEA3202B61A65EB030529
:101740005B084FEA32024FF480104FF4002CB6EBE6
:10175000020E75EB030E22BFB61A754640EA0C0066
:101760005B084FEA3202B6EB020E75EB030E22BFA6
:10177000B61A754640EA5C005B084FEA3202B6EBE7
:10178000020E75EB030E22BFB61A754640EA9C00A6
:101790005B084FEA3202B6EB020E75EB030E22BF76
:1017A000B61A754640EADC0055EA060E18D04FEA34
:1017B000051545EA16754FEA06164FEAC30343EAD4
:1017C00052734FEAC2025FEA1C1CC0D111F4801FA1
:1017D0000BD141EA00014FF000004FF0004CB6E79A
:1017E00011F4801F04BF01430020B4F1FD0C88BF39
:1017F000BCF5E06F3FF6AFAEB5EB030C04BFB6EB44
:10180000020C5FEA500C50F1000041EB045170BD36
:101810000EF0004E4EEA113114EB5C04C2BFD4EB63
:101820000C0541EA045170BD41F480114FF0000EE7
:10183000013C90E645EA060E8DE60CEA135594EA63
:101840000C0F08BF95EA0C0F3FF43BAF94EA0C0F66
:101850000AD150EA01347FF434AF95EA0C0F7FF4DB
:1018600025AF104619462CE795EA0C0F06D152EA2F
:1018700003353FF4FDAE1046194622E750EA410613
:1018800018BF52EA43067FF4C5AE50EA41047FF424
:101890000DAF52EA43057FF4EBAE12E780F0004053
:1018A00002E000BF81F0004142001FBF5FEA410338
:1018B00092EA030F7FEA226C7FEA236C6AD04FEA38
:1018C0001262D2EB1363C1BFD2184140484041407D
:1018D000B8BF5B42192B88BF704710F0004F40F42F
:1018E000000020F07F4018BF404211F0004F41F44B
:1018F000000121F07F4118BF494292EA030F3FD017
:10190000A2F1010241FA03FC10EB0C00C3F1200329
:1019100001FA03F100F0004302D5494260EB4000B8
:10192000B0F5000F13D3B0F1807F06D340084FEA23
:10193000310102F10102FE2A51D2B1F1004F40EB18
:10194000C25008BF20F0010040EA03007047490080
:1019500040EB0000013A28BFB0F5000FEDD2B0FA1D
:1019600080FCACF1080CB2EB0C0200FA0CF0AABF40
:1019700000EBC25052421843BCBFD04018437047DE
:1019800092F0000F81F4000106BF80F400000132E4
:10199000013BB5E74FEA41037FEA226C18BF7FEABB
:1019A000236C21D092EA030F04D092F0000F08BFFD
:1019B0000846704790EA010F1CBF0020704712F0E4
:1019C0007F4F04D1400028BF40F00040704712F123
:1019D00000723CBF00F50000704700F0004343F088
:1019E000FE4040F4000070477FEA226216BF0846BE
:1019F0007FEA23630146420206BF5FEA412390EA81
:101A0000010F40F4800070474FF0000304E000BF76
:101A100010F0004348BF40425FEA000C08BF704727
:101A200043F0964301464FF000001CE050EA0102EB
:101A300008BF70474FF000030AE000BF50EA010200
:101A400008BF704711F0004302D5404261EB4101ED
:101A50005FEA010C02BF84460146002043F0B64312
:101A600008BFA3F18053A3F50003BCFA8CF2083A37
:101A7000A3EBC25310DB01FA02FC634400FA02FC40
:101A8000C2F12002BCF1004F20FA02F243EB020047
:101A900008BF20F00100704702F1200201FA02FCA9
:101AA000C2F1200250EA4C0021FA02F243EB02009C
:101AB00008BF20EADC7070474FF0FF0C1CEAD052E0
:101AC0001EBF1CEAD15392EA0C0F93EA0C0F6FD0A1
:101AD0001A4480EA010C400218BF5FEA41211ED07F
:101AE0004FF0006343EA501043EA5111A0FB01316B
:101AF0000CF00040B1F5000F3EBF490041EAD37140
:101B00005B0040EA010062F17F02FD2A1DD8B3F1BB
:101B1000004F40EBC25008BF20F00100704790F02A
:101B2000000F0CF0004C08BF49024CEA502040EA7C
:101B300051207F3AC2BFD2F1FF0340EAC250704742
:101B400040F400004FF00003013A5DDC12F1190F80
:101B5000DCBF00F000407047C2F10002410021FAF2
:101B600002F1C2F1200200FA02FC5FEA310040F10A
:101B7000000053EA4C0308BF20EADC70704792F083
:101B8000000F00F0004C02BF400010F4000F013ABB
:101B9000F9D040EA0C0093F0000F01F0004C02BFB6
:101BA000490011F4000F013BF9D041EA0C018FE725
:101BB0000CEAD15392EA0C0F18BF93EA0C0F0AD02B
:101BC00030F0004C18BF31F0004CD8D180EA010051
:101BD00000F00040704790F0000F17BF90F0004FEA
:101BE000084691F0000F91F0004F14D092EA0C0FCC
:101BF00001D142020FD193EA0C0F03D14B0218BF5F
:101C0000084608D180EA010000F0004040F0FE40A4
:101C100040F40000704740F0FE4040F44000704740
:101C20004FF0FF0C1CEAD0521EBF1CEAD15392EABF
:101C30000C0F93EA0C0F69D0A2EB030280EA010CAF
:101C400049024FEA402037D04FF0805343EA111148
:101C500043EA10130CF000408B4238BF5B0042F1A6
:101C60007D024FF4000C8B4224BF5B1A40EA0C004B
:101C7000B3EB510F24BFA3EB510340EA5C00B3EB7D
:101C8000910F24BFA3EB910340EA9C00B3EBD10F6B
:101C900024BFA3EBD10340EADC001B0118BF5FEABD
:101CA0001C1CE0D1FD2A3FF650AF8B4240EBC250E6
:101CB00008BF20F0010070470CF0004C4CEA5020A7
:101CC0007F32C2BFD2F1FF0340EAC250704740F4F6
:101CD00000004FF00003013A37E792F0000F00F0E8
:101CE000004C02BF400010F4000F013AF9D040EA66
:101CF0000C0093F0000F01F0004C02BF490011F4FA
:101D0000000F013BF9D041EA0C0195E70CEAD153F1
:101D100092EA0C0F08D142027FF47DAF93EA0C0FD8
:101D20007FF470AF084676E793EA0C0F04D14B02BC
:101D30003FF44CAF08466EE730F0004C18BF31F06E
:101D4000004CCAD130F000427FF45CAF31F0004368
:101D50007FF43CAF5FE700BF4FF0FF3C06E000BF01
:101D60004FF0010C02E000BF4FF0010C4DF804CD24
:101D70004FEA40024FEA41037FEA226C18BF7FEA34
:101D8000236C11D001B052EA530C18BF90EA010F36
:101D900058BFB2EB030088BFC81738BF6FEAE170C5
:101DA00018BF40F0010070477FEA226C02D15FEA61
:101DB000402C05D17FEA236CE4D15FEA412CE1D0CD
:101DC0005DF8040B704700BF844608466146FFE794
:101DD0000FB5FFF7C9FF002848BF10F1000F0FBD76
:101DE0004DF808EDFFF7F4FF0CBF012000205DF86F
:101DF00008FB00BF4DF808EDFFF7EAFF34BF0120F4
:101E000000205DF808FB00BF4DF808EDFFF7E0FF8C
:101E100094BF012000205DF808FB00BF4DF808EDDD
:101E2000FFF7D2FF94BF012000205DF808FB00BF40
:101E30004DF808EDFFF7C8FF34BF012000205DF822
:101E400008FB00BF7BB972B90029BEBF00204FF06C
:101E5000004106E008BF00281CBF6FF000414FF0B2
:101E6000FF3000F077B8ADF1080C6DE904CE002921
:101E700009DB002B1ADB00F0ACF8DDF804E0DDE94B
:101E8000022304B07047404261EB4101002B1BDB91
:101E900000F09FF8DDF804E0DDE9022304B04042E1
:101EA00061EB4101524263EB43037047524263EBE3
:101EB000430300F08EF8DDF804E0DDE9022304B00E
:101EC000404261EB41017047524263EB430300F033
:101ED00080F8DDF804E0DDE9022304B0524263EB50
:101EE0004303704753B94AB9002908BF00281CBFF3
:101EF0004FF0FF314FF0FF3000F02CB8ADF1080C7F
:101F00006DE904CE00F065F8DDF804E0DDE90223B8
:101F100004B07047D0B5FFF757FA0C4B00220646C5
:101F20000F46FFF7A9FA00F017F80446FFF72AFA60
:101F3000074B0022FFF7A0FA02460B46304639460F
:101F4000FFF7E2F800F008F82146D0BD0000F03DB0
:101F50000000F041704700BF4A0011D212F5001294
:101F600011D20DD56FF47873B3EB62520ED44FEAF1
:101F7000C12343F0004343EA505323FA02F0704771
:101F80004FF00000704750EA013002D14FF0FF30AF
:101F900070474FF00000704710F8012B11F8013B1B
:101FA000012A28BF9A42F7D0D01A704710B50021F5
:101FB0000446FFF71FFF20B92046BDE81040FFF799
:101FC000A9BF04F10040FFF7A5FF404261EB4101CA
:101FD00010BD2DE9F0478C468E46089E15460446F6
:101FE0001946002B40F0D080724547D9B2FA82F7EB
:101FF0004FB1C7F120030EFA07FC20FA03F3BD40EE
:1020000043EA0C0CBC404FEA154EA8B2BCFBFEF8EC
:10201000230C0EFB18CC08FB00F943EA0C4399454E
:1020200028D9EB1808F1FF3204D2994502D9A8F15A
:1020300002022B44A3EB0903A4B2B3FBFEFC0EFB8C
:102040001C330CFB00F044EA0344A04214D92C19C1
:102050000CF1FF3304D2A04202D9ACF102032C44AC
:10206000241A43EA02401EB1FC400023346073602E
:10207000BDE8F0874246DDE76346F1E7002A79D004
:10208000B2FA82F3002B3FD01946C1F1200302FAC5
:1020900001F52EFA03F20EFA01FE20FA03F343EAE9
:1020A0000E034FEA154E00FA01F4B2FBFEFCAFB28C
:1020B0000EFB1C201A0C0CFB07F842EA004290456C
:1020C0005AD9AA180CF1FF3004D2904502D9ACF1CC
:1020D00002002A44A2EB08029BB2B2FBFEFC0EFBFC
:1020E0001C220CFB07F743EA02439F4246D9EB1838
:1020F0000CF1FF3204D29F4202D9ACF102022B4410
:10210000DB1B42EA004202E0AEEB020301224FEA8F
:10211000154EAFB2B3FBFEFC200C0EFB1C330CFBC8
:1021200007F840EA034398452AD9EB180CF1FF3031
:1021300004D2984502D9ACF102002B44A3EB08036A
:10214000A4B2B3FBFEFC0EFB1C330CFB07F744EA06
:102150000344A74216D92C190CF1FF3304D2A7422D
:1021600002D9ACF102032C44E41B43EA00400F46C1
:10217000114678E71F2188E76046ABE76246BFE774
:102180006046DBE76346EFE7734506D916B90021E1
:1021900008466DE7C6E9000EF9E7B3FA83F787B999
:1021A000734501D3824207D8841A6EEB03030120E2
:1021B0009C461EB900215BE73846FAE7C6E9004CA9
:1021C000F8E7C7F1200CBB4022FA0CF51D4320FABA
:1021D0000CF12EFA0CF30EFA07FE41EA0E014FEA5B
:1021E000154900FA07F4B3FBF9F81FFA85FE09FB5D
:1021F00018300B0C08FB0EFA43EA00439A4502FA2A
:1022000007F240D9EB1808F1FF3004D29A4502D901
:10221000A8F102002B44A3EB0A0389B2B3FBF9F83F
:1022200009FB183308FB0EFE41EA03418E452CD909
:10223000691808F1FF3304D28E4502D9A8F10203D0
:10224000294443EA0040A0FB0298A1EB0E0141455E
:10225000CE46434602D306D14C4504D2B9EB020E1A
:1022600068EB05030138002EA4D0B4EB0E0261EB3D
:10227000030101FA0CFC22FA07F34CEA0303F940CC
:10228000C6E9003196E74046C5E74346D9E7000076
:1022900070B5144606460846FFF7BAFB2146FFF71D
:1022A0000BFCFFF783FE0E4D80FB05450AA3D3E927
:1022B000002320462946FFF7C5FD0A4A3060002367
:1022C00020462946FFF7BEFD064A0023FFF7BAFD68
:1022D000726070BDAFF300800010A5D4E80000006C
:1022E0003AA3950040420F0070B5144606460846D2
:1022F000FFF78EFB2146FFF7DFFB1349134DFFF776
:102300008FFCFFF753FE80FB05450BA3D3E90023A9
:1023100020462946FFF796FD09A3D3E90023306044
:1023200029462046FFF78EFD094A0023FFF78AFD64
:10233000726070BDAFF3008000209BF35E10000060
:1023400080A812010000000000002041D8EF2F00FB
:1023500040420F0000000000032970B504460D46FE
:1023600004D007294DD06FF0850025E0B2B3072ACD
:10237000F9D158681A68564BC117C2FB03010128EE
:1023800071F100033ADB534BC01841F100014CA33B
:10239000D3E90023FFF756FD022826690DD0102847
:1023A0000DD004280DD0082828D12946204610F049
:1023B00016F940B16FF0040070BD0025F5E7012566
:1023C000F3E70225F1E7444B33F815103D2081FB7C
:1023D0000001FFF733FBF0600020EDE719883F4B69
:1023E00033F8020B814206D1D1B2204606F018F92B
:1023F0000028F1D0DEE701320C2AF1D16FF0150090
:10240000DAE7002A4BD0072AADD15A681D68304858
:10241000D11713460A46C5FB0032B425A3FB0501BC
:10242000012B05FB021172F1000228DB2C4BC018B6
:1024300025A3D3E9002341F10001FFF703FDFA28AA
:10244000266924D0B0F5FA7F23D0B0F57A7F22D068
:10245000B0F5FA6F21D07D28D0D104252946204639
:1024600010F0CDF80028A5D11E4B33F8151041F21D
:10247000171081FB0001FFF7E1FAF061ACE71A4B9E
:10248000C01861F1000110A3D3E90023D5E70025AE
:10249000E4E70125E2E70225E0E70325DEE7198806
:1024A0000E4B33F8020B814204D1D1B2204606F024
:1024B0009FF89DE701320C2AF3D19FE7AFF300802C
:1024C0003AA3950000000000D8EF2F0000000000A4
:1024D00040420F009DD14A00403B0100483B0100B3
:1024E000ECF71700363B01001408E8FF2DE9F04F28
:1024F000934DDFF850920FCDE7B00DF154084446EC
:102500000FC42B68904823600DF0C3FF8F4C00254B
:10251000012654F8060C10F07DFC20B98C482946A1
:102520000DF0B7FF15E054F8063C4B4502D0894842
:102530002946F5E714F8013C7BB1D9F8083021466B
:102540001B6848469847021E0ADA834829460DF060
:10255000A0FF002067B0BDE8F08F6FF08502F4E7C0
:1025600014F8023CD8F8042006FA03F301351343AB
:10257000062DC8F8043004F11404CAD177480DF0D0
:1025800088FF00246823CDE92634754E304610F0CC
:1025900041FC18B973480DF07CFFDAE7B5682F6885
:1025A00047B1032126AB22463046B847011E04DA64
:1025B0006D48B5E76FF05701FAE72D6845B107217F
:1025C00026AB22463046A847011E04DA6748A7E733
:1025D0006FF05701FAE7664868210DF05AFF4FF493
:1025E000803000210DF0ADFD10F062FD4FF47A72E5
:1025F000A0FB020302FB0133C00B40EA43435D4FE3
:10260000139310F055FD04468A46D9F808304D481A
:102610005B6841469847011E08DA57480DF039FFBC
:102620004FF4A47000210DF08CFDEAE7D6F808B055
:102630004B48DBF80C304C219847011E01DA4F481B
:10264000ECE71AAD0321DBF8103045482A469847DD
:10265000011E01DA4A48E1E7072120AADBF8103021
:102660003F489847011E20AA01DA4648D6E74FF4B2
:102670007A73A4FB034103FB0A11E30B546910694D
:1026800043EA414340494FEAE47CC0FB014CCDE9B9
:10269000104CD46890684FEAE47CC0FB014CCDE953
:1026A0000E4C50681268C417C2FB0104CDE90C043B
:1026B00068692A69C417C2FB0104CDE90A04E86805
:1026C000AA68C417C2FB0104CDE908046A682C6833
:1026D000D017C4FB0120CDE906202C4AB2F90A101C
:1026E0000591B2F908100491B2F906100391B2F9FC
:1026F00004100291B2F902100191B2F90020009287
:10270000139A4FF480719B1A26A8214A0DF0AAFA59
:10271000FF2803D91F480DF0BCFE81E73B68B3F5E5
:10272000FA7F05D31C491D480DF0B3FE00233B6022
:102730001A4826A90DF0ADFE3B6801333B606FE7F8
:102740002038010054340100603B01004E38010084
:10275000863B0100AE3B0100DA3B0100083C010072
:10276000C4340100263C01003F3C0100673C0100ED
:102770008B3C010070010020A53C0100C93C010018
:10278000F53C0100233D010040420F008C16002063
:102790004D3D0100813D0100D7680100B63D0100BB
:1027A0002DE9F04714464A4202EA010931EA0202E1
:1027B00003461AD04A46042A4F4628BF0422A1EBFA
:1027C000090909F1FF3A1AEA090F18D03549364AC2
:1027D000364840F2E9130DF072FE35480DF06FFEF9
:1027E000314840F2E9110DF061FE042904D8214678
:1027F000BDE8F0470DF01BBE00270422E1E71CB93D
:1028000000252846BDE8F0871E68A9EB020204F007
:10281000070302F007010B330B44E10801EBD2017F
:1028200001EBD301B368994228BF194630460DF039
:1028300022FD80460028E3D03D1D05EBC005354450
:102840005544B5FBF9F509FB05F5ED1B2C442B1F91
:1028500007349B1B24F00704A41BB0EBD30F4FEAF3
:10286000D3074FEAE40408D201463A4630460DF059
:1028700057FD414630460DF0A8FC394630460DF074
:1028800067FCA04207D9304622460DF049FD21469B
:1028900030460DF09AFC06EBC706738843F001033F
:1028A0007380AEE7DC3D0100B93D0100F73D01005A
:1028B000143E0100B2F5802F2DE9F8430ED33E49B6
:1028C0003E4A3F484FF437730DF0F9FD3D480DF097
:1028D000F6FD4FF4377139480DF0E8FD042A0CD8A5
:1028E0003949364A364840F2E3230DF0E8FD3748CF
:1028F0000DF0E5FD40F2E321EDE7043ACD1D114472
:1029000025F0070521F00706A6EB0508B8F1170F1B
:102910004FEAD8070CD82E49284A29484FF43B7370
:102920000DF0CDFD29480DF0CAFD4FF43B71D2E703
:10293000B7FA87F4C4F12002C4F12404A4000734D8
:10294000E408631C4FF00009BB420560AF60C5F8A6
:102950000C900CD91F49194A194840F202330DF066
:10296000AEFD1A480DF0ABFD40F20231B3E7494627
:10297000920005F1100010F02EFCA2B2530043F0BB
:1029800001036B803B1B9BB205EBC4015800A5F80B
:102990000090488025F83420A6F8029025F80830E9
:1029A00005EBC70321465A8842F001025A802846A7
:1029B000BDE8F8430DF009BC313E0100B93D01000E
:1029C000F73D0100473E01005E3E01007F3E0100F1
:1029D000983E0100C13E0100014B1B68184700BF33
:1029E00074010020014B1860704700BF7401002083
:1029F00030B5044685B00D4610220021684610F01F
:102A0000EAFB02238DF802302A46044B019321464B
:102A100068460DF051F905B030BD00BFD92900005E
:102A200080B505460E46174698460BF023FE034632
:102A300001F0DEF9DFF83C90044649F800304246E8
:102A400039463046A8470C4B1B7873B90B490C4AE2
:102A50000C4840F246330DF032FD0B480DF02FFDCF
:102A6000074840F246310DF021FD54F8090001F00D
:102A70005FF900BF08000000AD160020173F0100FD
:102A8000EC3E0100F73D01002A3F01002DE9F84F1F
:102A900005460846AB8B1907904616D501280CBF92
:102AA00043F0100343F02003AB83143528460CF0A9
:102AB000DDF8002840F0B181AE49AF4AAF484FF48D
:102AC00099730DF0FCFC29469DE0022803F00701F4
:102AD00040F07D8128460DF01AFD052800F2FA80AD
:102AE00001A353F820F000BFAB2A0000CF2D000057
:102AF000D52C0000792B0000132C0000732C000053
:102B000002F00702531F012B1AD80023062A2E6851
:102B1000A4B2C5E9003309D1334603E0EA8B0132A0
:102B2000EA831B68002BF9D144F00204AC832846E9
:102B30000DF0EDFC002800F05A8144F0200455E12E
:102B4000042A0DD1A4B2AC8328460DF0E0FC064661
:102B5000002800F04C8144F02004AC83002646E1BC
:102B60008749884A854840F21B130DF0A8FC40F2C3
:102B70001B1184480DF09AFC49B18349814A7F4872
:102B80004FF4AB730DF09BFC4FF4AB71F1E72B6886
:102B90004BB97E497B4A794840F257130DF08FFCC0
:102BA00040F25711E5E72B691F684FB97849754A1C
:102BB00072484FF4AD730DF082FC4FF4AD71D8E75D
:102BC000AC8B24F0070444F00604A4B2AC830E4698
:102BD0008A464FF00609AB68002B00F00F814FF0DA
:102BE000010B44F00804AC8305F1140420460CF0FA
:102BF0003DF8002878D15F495F4A60484FF49973E7
:102C00000DF05DFC214663480DF059FC4FF49971BD
:102C10008EE0022909D060495A4A584840F25D13B3
:102C20000DF04DFC40F25D11A3E7EE8B4EB15B4918
:102C3000544A52484FF4AF730DF041FC4FF4AF715A
:102C400097E72B695F684FB951494E4A4B4840F2AC
:102C500061130DF034FC40F261118AE7AC8B24F073
:102C6000070444F00404A4B2AC83B2464FF0040954
:102C7000B1E7012909D04A49424A40484FF4B273AA
:102C80000DF01DFC4FF4B27173E72B684BB93F494F
:102C90003C4A3A4840F265130DF011FC40F26511D0
:102CA00067E72B699F684FB93949364A33484FF473
:102CB000B4730DF004FC4FF4B4715AE7AC8B24F0FC
:102CC000070444F00504A4B20026AC83B2464FF0DA
:102CD000050980E72A492B4A284840F26B130DF07A
:102CE000EEFB40F26B1144E788F31188BFF36F8F5E
:102CF000BBF1000F1ED1002E33D117B12949284650
:102D0000B847EFF31188202383F31288BFF36F8F46
:102D100020460BF09DFF00284AD1174A2249174848
:102D200084230DF0CCFB214620480DF0C8FB842104
:102D300011481FE7A9680029DDD0D1F800800029DB
:102D4000D9D0D1F804B053464A462846D847B8F1FE
:102D5000000F04D0D8F8003041469846EFE74346CC
:102D6000FAE7314653464A46284636680DF0FBFBE3
:102D7000C1E700BF1F400100F23F0100F73D010025
:102D8000D85C01004C3F0100713F01007D3F010014
:102D9000A03F010036400100B73F0100CD3F0100D8
:102DA000DC3F0100292E00004B4001006040010083
:102DB00020460BF071FFAC8B24F00804A4B2AC8366
:102DC000E20621D524F01003AB8304F00701D5F807
:102DD00018A0AA8BBAF1000F22F00704BFF690AE3C
:102DE00000232E68C5E9003344F00104AC8304F0ED
:102DF000070989454FF000077FF4EDAE0EB9002FAB
:102E0000DED04FF0000BECE6A3067FF54EAE24F0CB
:102E10002003AB8304F007015CE688F31188BFF35D
:102E20006F8FBDE8F88F00BFF8B504460D4600F17E
:102E30001406EFF31187202383F31288BFF36F8FFB
:102E400030460BF005FF68B90C4A0D490D48842344
:102E50000DF035FB0C4831460DF031FB074884215D
:102E60000DF024FB30460BF017FFA5613A462046D3
:102E70000121BDE8F840FFF709BE00BFF23F0100A5
:102E80004B400100F73D0100604001002DE9F04793
:102E900004460E460DF057FB051E66DB04F11409CF
:102EA000EFF3118A202383F31288BFF36F8F484614
:102EB0000BF0CEFE804660B9374A38493848842343
:102EC0000DF0FDFA494637480DF0F9FA84213248F1
:102ED00043E048460BF0E0FEE38BA78B4FF6FF7212
:102EE000934207F0070743D0062F2CD8DFE807F0FE
:102EF0001F43092B1F041F006FF085054FF00008CA
:102F000002E00133E383022548460BF0AFFE0028C0
:102F100034D1214A244922484FF499730DF0CFFA55
:102F2000494622480DF0CBFA4FF49971CFE70023C0
:102F30003360636823B9C4E9006687B13D46DDE7C5
:102F40001E606660F9E71A4915481A4A4FF4E4739F
:102F50000DF0B5FA17484FF4E4710DF0A7FA524698
:102F600002212046FFF792FD3D462846BDE8F08746
:102F70006FF00A05C2E76FF00405BFE78AF3118816
:102F8000BFF36F8FB8F1000FEFD000233A46314600
:102F900020460DF0E8FAE8E7F23F01004B4001005F
:102FA000F73D0100604001001F4001003640010074
:102FB000DC3F01004C3F0100F8B5054600F1140666
:102FC000EFF31187202383F31288BFF36F8F30460E
:102FD0000BF03EFE60B9264A2649274884230DF0AF
:102FE0006EFA314625480DF06AFA842120482BE01C
:102FF00030460BF051FEAC8B04F00704022C17D0C6
:10300000012C0CBF6FF004046FF0850430460BF008
:103010002DFE38BB164A1A4917484FF499730DF024
:103020004EFA314617480DF04AFA4FF49971DDE730
:10303000EB8B5BB914491048144A40F2EF130DF0C2
:103040003EFA124840F2EF110DF030FA013B9BB20C
:10305000EB83002BDAD13A4621462846FFF716FDCE
:103060002046F8BD87F31188BFF36F8FF8E700BFE4
:10307000F23F01004B400100F73D010060400100BC
:103080001F40010036400100764001004C3F010026
:103090002DE9F0410F460546002850D000294ED0BA
:1030A00000F11406EFF31188202383F31288BFF395
:1030B0006F8F30460BF0CCFD60B9224A224923487D
:1030C00084230DF0FCF9314621480DF0F8F98421F4
:1030D0001C4817E030460BF0DFFD39462846AC8B24
:1030E0000DF0FAF980B104F00704231F022B0DD96B
:1030F00018491648184A40F22D230DF0E0F91648F9
:1031000040F22D210DF0D2F96FF0770430460BF02C
:10311000ADFD68B90B4A11490C484FF499730DF095
:10312000CEF931460E480DF0CAF94FF49971CFE748
:1031300088F31188BFF36F8F2046BDE8F0816FF0F0
:103140001504F9E7F23F01004B400100F73D010093
:1031500060400100844001004C3F01001F4001001D
:103160003640010008B54268816002F00302032A7C
:1031700003460AD06AB908490848094A45230DF0B0
:103180009EF9074845210DF091F9006800225A6028
:1031900008BD0020FAE700BFD85C0100F73D010040
:1031A000FB4001002DE9F34106460F4615464FF05E
:1031B00000082A4601A930460DF027FA044640B11E
:1031C0000246394601980FF0F8FF2D1BA044274412
:1031D000EFD14246311D30460DF035FA48B107496E
:1031E0000748084A48230DF06AF9064848210DF0BF
:1031F0005DF9404602B0BDE8F08100BF4C410100DE
:10320000F73D0100214101002DE9F34107460E463B
:1032100015464FF000082A4601A938460DF004FA79
:10322000044648B12EB10246019930460FF0C5FF61
:1032300026442D1BA044EED1424607F10A01384630
:103240000DF001FA48B107490748084A63230DF019
:1032500036F9064863210DF029F9404602B0BDE871
:10326000F08100BF4C410100F73D01002141010008
:10327000014B036000207047C038010007B51B49AF
:103280001B480DF06AFB70BB1A4919480DF065FB2D
:1032900048BB194916480DF060FB20BB174914487C
:1032A0000DF05BFBF8B90146154A11480DF03CFEE4
:1032B000C8B9024613490E4801230DF006FF90B924
:1032C00001230093014602230948EF220DF04EFA34
:1032D00048B907480DF074FA28B9054803B05DF8FD
:1032E00004EB0DF09DBA03B05DF804FBEC01002087
:1032F000F8060020D4010020BC010020A401002019
:10330000780100205541010008B505480DF0C1F8CD
:1033100004480DF0BEF804480DF0BBF8002008BDCD
:103320006E410100A2410100D541010001480CF0AD
:1033300039BB00BFC038010038B5044618B90F4B7F
:103340000F485B6898476168B1F5683F10D0B1F5E8
:10335000680F0DD00B4DA9420AD011F468612068A6
:1033600007D00146084808F0FFFC00232360656091
:1033700038BD14220FF02FFFF9E700BFA80400208A
:10338000024201002C5F5CA96811002008B520B33F
:103390004368B3F5683F10D101220368BFF35B8F28
:1033A00053E8001F002903D143E800200028F7D18B
:1033B000BFF35B8F0DD1002008BD094A93420AD0AC
:1033C00000684FF0FF324FF0FF3308F09FFF0028F6
:1033D000F1D00448F0E70448EEE76FF4E040EBE793
:1033E0002C5F5CA9E98FFFFFEA8FFFFF08B5D8B11A
:1033F0004368B3F5683F10D100220368BFF35B8FC9
:1034000053E8001F012903D143E800200028F7D129
:10341000BFF35B8F0BD1002008BD074A934208D051
:10342000006809F03BF8F6E76FF4E040F4E7034882
:10343000F2E70348F0E700BF2C5F5CA9E98FFFFFCC
:10344000EA8FFFFF10B5044618B91D4B1D485B6895
:1034500098476368B3F5683F2FD0B3F5680F2CD059
:10346000194A934219D1236803BB18484FF0FF3221
:103470004FF0FF33214608F0EBFB08B923681BB976
:103480000F4B13485B6898472068142200210FF007
:10349000A2FE4FF46863636008E0B3F5680F0DD8CF
:1034A0003A2B03D040F6BA629342DED120680FF087
:1034B00010FD636843F03A03636010BD054AF3E70B
:1034C000A8040020024201002C5F5CA968110020C2
:1034D000284201003A00003A08B506490648402350
:1034E00014220FF0D9FCBDE80840044904480CF050
:1034F000CBBA00BF680C002068110020C83801005A
:10350000DC38010008B50348034A0021121A0DF007
:10351000B5F808BD90070020B01600200748084AFB
:10352000084908B5121A0DF0ABF80748074A0849D0
:10353000BDE80840121A0DF0A3B800BF000000203B
:1035400090070020A069010000000020000000207A
:10355000A069010038B505460C4699B1D1E90123AF
:103560000F4809680CF095FFD4E90423E1680D4881
:103570000CF08FFFE1690C480CF08BFFA1690B4840
:103580000CF087FF012D05D1EFF3058108481039B4
:103590000CF07FFF21462846BDE8384008F066B8A9
:1035A0005542010085420100B5420100C5420100BB
:1035B000F442010030BFFFF7FDBF00BF2DE9F0412D
:1035C0000B4EDFF8308006EB0807CC1B0546324671
:1035D000094920460FF0F1FDA01942460021083CA0
:1035E0000FF0F9FDC5F8AC4007F10800BDE8F08127
:1035F00000000000080000001C38010010B51D4C40
:103600001D480CF046FFA36A990130D51B480CF009
:1036100040FF1E20A36ADA0103D519480CF039FFD8
:103620001F20144CA36A1B0303D516480CF031FF6E
:103630002120A36A590303D513480CF02AFF222046
:103640000C4CA36A9A0303D510480CF022FF2320E8
:10365000A36ADB0303D50E480CF01BFF2420054AA8
:10366000936A6FEA03436FEA1343936210BD1D2010
:10367000D0E700BF00ED00E0084301002143010056
:1036800035430100504301006F43010095430100A1
:10369000B043010070B5244C064624480D460CF09A
:1036A000F8FEA36AD90435D521480CF0F2FE1720A4
:1036B000A36A1A0503D51F480CF0EBFE18201A4C1C
:1036C000A36A9B050FD51C480CF0E3FEA16BA36A0F
:1036D000180407D519480CF0DCFE1EB1A36A23F4C8
:1036E0000043A3621920104CA36A590503D514485E
:1036F0000CF0CFFE1A20A36ADA050DD511480CF0A4
:10370000C8FE1B20084A936A43F47F439362002358
:103710002B7070BD1620CBE7A36A9B04F2D50A4834
:103720000CF0B7FE1C20EDE700ED00E0DC430100EB
:10373000F343010005440100194401003344010032
:1037400049440100654401007E44010070B5304CDD
:10375000064630480D460CF09CFEA36AD90646D5B5
:103760002D480CF096FE1120A36A1A0703D52B48AA
:103770000CF08FFE1220264CA36A9B070FD5284819
:103780000CF087FE616BA36A180607D525480CF07C
:1037900080FE1EB1A36A23F08003A36213201C4C99
:1037A000A36ADA0703D520480CF073FE1420A36A3D
:1037B0009B0603D51D480CF06CFE1520144B9A6A2D
:1037C000D60602D49A6A940713D59B6AD90610D5F7
:1037D0001749184A184840F22D130CF070FE17488C
:1037E0000CF06DFE134840F22D110CF05FFE10201E
:1037F000BAE7074B9A6A920642BF5A6A22F400520D
:103800005A629A6A42F0FF029A6200232B7070BDDE
:1038100000ED00E0AE440100C54401000544010094
:10382000F944010012450100294501007E440100D0
:103830007B45010049450100F73D0100C5450100F8
:10384000F0B5704B044658688BB0C0F308030025F0
:1038500085F31188BFF36F8F02F07F46B6F17F4F7B
:1038600006D102F00C06082E11D167480CF011FEAB
:103870006649674A674840F21B430CF020FE6648E1
:103880000CF01DFE40F21B4161480CF00FFE1607C4
:103890004CBF0C460125002CEAD00026DA1E8DF81C
:1038A0000760092A00F29F80DFE802F0059397760F
:1038B0009D9D9D9D9D9B59480CF0EBFD8DF80760EB
:1038C000504EF36A9A0704D555480CF0E2FD0023E8
:1038D0002AE0F36A002B01DA5248F6E7F36A5B004C
:1038E0006AD551480CF0D5FD7369A26943F4807321
:1038F0007361BFF34F8FBFF36F8F32F8023C726971
:1039000022F480727261BFF34F8FBFF36F8F03F4A5
:103910007F42B2F55F4F26D1DBB2022B23D1216863
:1039200042480CF0B6FD23689DF80720CAB902AEE4
:1039300004F1200720686168324603C20834BC42A3
:103940001646F7D1099A002D59D0C2F3080121B9C2
:103950006FEA52226FEA4222099202A91846FFF743
:10396000F9FD0BB0F0BD274B9A6AD2B232B10DF11E
:1039700007010120FFF7EAFE0346D5E79A6A12F431
:103980007F4F05D00DF107010120FFF783FEF3E71C
:103990009B6AB3F5803F02D3FFF730FEECE7244982
:1039A0001B4A1C4840F2ED230CF089FD21480CF025
:1039B00086FD40F2ED2167E71D49154A15484FF491
:1039C0003C730CF07CFD1C480CF079FD4FF43C710D
:1039D0005AE70DF107010020CCE70DF107010020A7
:1039E000D3E7164871E7A3F11002154B154910F4FF
:1039F000F87F08BF194614480CF04BFD67E76FF3DA
:103A00000802A9E700ED00E05746010083460100E7
:103A100049450100F73D010096460100D4460100EA
:103A2000EC4601000E4701001D4701003D47010023
:103A3000D85C01005A4701007E470100AE470100F3
:103A4000294601003E460100D3470100044B5A6954
:103A500042F010025A615A6922F008025A61704716
:103A600000ED00E0EFF30880EFF3098101B5724645
:103A7000FFF7E6FE01BD00BF002080F31488BFF30E
:103A80006F8F114880F3088800201049087005F0F6
:103A9000B9FB00200E490860BFF34F8F00F02EF8ED
:103AA000202080F311880B484FF40061401880F308
:103AB0000988EFF314800221084380F31488BFF3D0
:103AC0006F8F00F0D1F80000F0290020AD16002023
:103AD00094ED00E0B01C00200749D1F890200023AD
:103AE000C2F307221846934200DB7047C1F89830B2
:103AF000C1F8A0000133F6E700ED00E008B572B6AA
:103B0000002383F31388FFF7E7FF144B4FF0FF32D6
:103B1000C3F88020C3F88420C3F88820C3F88C2021
:103B2000C3F89020C3F89420C3F89820C3F89C20D1
:103B3000C3F88021C3F88421C3F88821C3F88C21FD
:103B4000C3F89021C3F89421C3F89821C3F89C21AD
:103B500062B6BFF34F8FBFF36F8F08BD00E100E087
:103B60001EF0040F0CBFEFF30880EFF309808169AA
:103B700011F8021C0229FFD001B572460CF082FD3B
:103B800001BD00BF40B2002807DB044A4109012300
:103B900000F01F00834042F82130704700E100E050
:103BA00040B200280CDB4309064900F01F00203317
:103BB0000122824041F82320BFF34F8FBFF36F8F64
:103BC000704700BF00E100E0054B420900F01F0014
:103BD00053F82220012303FA00F01040704700BF81
:103BE00000E100E038B54B1C072B04460D460FD909
:103BF000114A124912486B230CF061FC1148294606
:103C0000072322460CF05BFC0B486B210CF04EFCAA
:103C100040B20028ACBF00F160400B4A4FEA4313AA
:103C2000B8BF00F00F00DBB2AABF00F5614013542B
:103C300080F8003338BD00BFE74701001E4801008F
:103C4000F73D01003948010014ED00E0044B054A3E
:103C500023F07F039360BFF34F8FBFF36F8F7047E5
:103C60000010000000ED00E008B5FFF7EFFF074A85
:103C7000D2F8883023F47003C2F88830FFF742FC92
:103C8000FFF74CFC00F096F807F0F2FD00ED00E0C5
:103C900042F8203C009B42F81C3C0A49019B42F838
:103CA000183C029B42F8143C21F001014FF0807354
:103CB00042F8043C42F8081C0023203A0265C0F890
:103CC000B0307047212A000000B50C4B98600C4BB7
:103CD0001546D0F8AC201A600E462C4686F30988AB
:103CE0000020044B98472046002100220023024C6C
:103CF00020470000A9060100212A00001416002018
:103D000088110020014B10221A61704700ED00E07D
:103D1000054B5A699B689A421FBF044A536843F097
:103D200080535360704700BF1416002000ED00E080
:103D3000084B9B6883420BD1EFF3058343B1064BDD
:103D40005A6842F080525A605A6A22F400425A621B
:103D50000AF096BC1416002000ED00E012498A68B3
:103D60004FF030001044EFF3098C80E8F01F202062
:103D700080F31288BFF36F8F0C4F4FF000664A69D3
:103D80008A603E60D2F8AC00094C2060D2F8B000E6
:103D90000023C2F8B03080F3118802F1300090E8BF
:103DA000F01F8CF3098870471416002004ED00E022
:103DB00088110020044800232021C2180133302B31
:103DC00082F80013F9D1704700E100E008B5EFF385
:103DD0000583064A103B02EBC30152F833004968E1
:103DE0008847BDE80840FFF793BF00BFFC340100DF
:103DF000014800687047000088110020024B034A08
:103E00000348012100F066B80000042000000020F3
:103E1000EC380100084AC2F898000B6823F01F0331
:103E2000034343F01003C2F89C308B6843F0010356
:103E3000C2F8A030704700BF00ED00E02DE9F0436C
:103E4000DFF8608085B00E461F4604464FF000093B
:103E5000B14523DA6068D8B13FB1411E08421BD199
:103E60001F2819D92368194216D1236801930CF031
:103E70003EFCA36803430393D8F89050C5F307258D
:103E8000D0B2013DA84207D801A9FFF7C3FF421CE9
:103E900009F101090C34DBE76FF01502104605B09B
:103EA000BDE8F08300ED00E0044B0522C3F8942048
:103EB000BFF34F8FBFF36F8F704700BF00ED00E07F
:103EC000BFF35F8F024B0022C3F89420704700BFFE
:103ED00000ED00E038B50D4D01232A780C46FFF7C0
:103EE000ADFF287016300FD1094A0A490A4840F23E
:103EF00089130CF0E4FA094821460CF0E0FA044872
:103F000040F289110CF0D2FA38BD00BF9E16002095
:103F100079480100D85C0100F73D0100A848010084
:103F20002DE9F04F7F4E804DD6F890302C68C3F3CA
:103F300007239C4285B013D97C4A7D497D4840F2D5
:103F400002230CF0BCFAD6F890207B482146C2F33D
:103F500007220CF0B4FA40F2022174480CF0A6FAE1
:103F6000FFF7AEFF00200C2684422DD1734EDFF800
:103F7000B49134706846FFF77BF9714C714D8046FF
:103F80000027B84527D1337866490020D1F8902022
:103F9000C2F307229342C0F2BA80FFF785FFD1F83F
:103FA000903003F47F43B3F5006F00F0B6806649AC
:103FB0005E4A604840F27D230CF081FA63480CF0C1
:103FC0007EFA40F27D21C8E7696806FB0011FFF721
:103FD00021FF0130C8E7009A02EB07133901D3F83B
:103FE0000CA00AEA0400B0F5000F69D00AD8B0F5B9
:103FF000001F3DD0B0F5800F55D0B0F5801F15D013
:104000000137BEE7B0F1007F65D0B0F1805F6DD0C1
:10401000B0F1807FF4D19868D3F804A052580CF026
:1040200066FBCDE901A240F088700BE09868D3F8F8
:1040300004A052580CF05BFBCDE901A240F088507F
:1040400040F430200390D9F890303078C3F3072340
:10405000013B984254D93649344A364840F2352318
:104060000CF02DFA3A480CF02AFA40F2352174E7A8
:104070009868D3F804B052580CF039FB40F08850DF
:1040800040F400201AF0010FCDE901B20390DAD01C
:104090003049264A274884230CF011FA2E480CF0A8
:1040A0000EFA842159E79868D3F804A052580CF00E
:1040B0001EFB40F0C060CDE901A240F40030C1E732
:1040C0009868D3F804A052580CF011FBCDE901A276
:1040D00040F08270B6E79868D3F804A052580CF00C
:1040E00006FBCDE901A240F48020ABE79868D3F845
:1040F00004A052580CF0FBFACDE901A22843A1E735
:1041000001A9FFF787FE33780133337078E7C1F8F0
:104110009830C1F8A000013338E7002005B0BDE8B1
:10412000F08F00BF00ED00E0F83801007948010091
:10413000D85C0100F73D0100D44801009E16002024
:104140000000F0FF0000021187490100D74901007B
:104150005D490100084901002E49010008B5024BE4
:104160001B689847002008BD8C110020034B044AAF
:104170001860937843F00203937070478C1100200D
:104180002402002008B50649064821F00701C1F1C4
:10419000005202F58022FEF78DFB002008BD00BF13
:1041A000774900209011002070B54169867A0B4D47
:1041B000044659B1437ADB0706D42C2303FB06538C
:1041C0005B6A1B689B689847002363612C2021462B
:1041D00000FB0650BDE870400EF0A2BECC060020E9
:1041E000024B2C2202FB0030704700BFCC0600209F
:1041F00008B543684BB107490748084A5A230CF0F1
:104200005EF906485A210CF051F903824369C360F4
:1042100008BD00BF2C4A0100F73D0100074A01001C
:104220002DE9FF4705466846039117461C460EF0E8
:1042300041FFDDE9008955B95C495D4A5D4840F2BE
:1042400001130CF03CF940F20111594818E005F156
:104250001406EFF3118A202383F31288BFF36F8FC4
:1042600030460AF0F5FC68B9534A54495148842352
:104270000CF025F9314652480CF021F984214E48C2
:104280000CF014F930460AF007FD6B8B002B5AD066
:104290002A8B9A4239D900220023284608F0AEFA28
:1042A0000446002831D030460AF0E0FC68B9424AA2
:1042B000444940484FF499730CF001F931464248A3
:1042C0000CF0FDF84FF49971D9E78AF31188BFF328
:1042D0006F8F039D002D59D042464B4668460EF025
:1042E0000EFFA27A394B2C2101FB023320465B6A78
:1042F0001B6803A91E68DDE90023B0476061002840
:1043000037D12046FFF750FF2EE06C8B631E6B8386
:1043100030460AF0ABFC0028C9D08AF31188BFF3FD
:104320006F8F2B7F2A8B1B33121BAC6A23F0030386
:1043300002FB0344254B264AEB1A9B105343A372FE
:104340002B7FE372C5E730460AF090FC0028AED020
:104350008AF31188BFF36F8F23463A46284608F048
:104360004DFA04460028B4D10024204604B0BDE82C
:10437000F087039B9D420BD916490D4A0D484FF417
:10438000AB730CF09CF84FF4AB715EE765612B46A4
:104390000021012222816160E27A638204F1180027
:1043A0000EF019FF2046FFF723FFDEE7464A010023
:1043B000074A0100F73D0100F23F01004B400100B8
:1043C000604001001F40010036400100CC06002083
:1043D000A38B2EBA4B4A0100F8B5054698B1194E89
:1043E0002C272C466D68237ACBB9174A17491848F1
:1043F00040F2C1130CF063F8214616480CF05FF848
:1044000040F2C11108E014490F4A114840F2BB13B1
:104410000CF055F840F2BB110B480CF047F8013B8B
:10442000DBB2237253B9E3606360A37A07FB0363D3
:1044300020461B6A1BB19847002DD2D1F8BDFFF76B
:10444000B3FEF9E7CC060020074A0100654A0100E7
:10445000F73D01006E4A0100614A010008B558B9F4
:1044600007490848084A4FF4F3730CF028F8064847
:104470004FF4F3710CF01AF8027A0132027208BD9F
:10448000614A0100F73D0100074A0100034610B5EB
:10449000084659B91649174A174840F25D230CF0EF
:1044A0000EF840F25D2113480CF000F8CBB15A68C9
:1044B0004AB912490F4A10484FF418730BF0FFFF26
:1044C0004FF41871EFE78A4209D00D49094A0A48AA
:1044D00040F261230BF0F3FF40F26121E3E74A6809
:1044E0005A60446800234360FFF776FF204610BD02
:1044F000A94A0100074A0100F73D01008A4A01006C
:10450000984A010070B5034605688288DC889E6879
:10451000A818A41AAD1B641BA14209D90649074873
:10452000074A3E230BF0CBFF05483E210BF0BEFFB0
:104530000A449A8070BD00BFE94A0100F73D0100BE
:10454000AE4A010008B583888B4209D20749084862
:10455000084AB0230BF0B3FF0648B0210BF0A6FFCA
:104560005B1A9BB283800068184408BD0D4B0100A4
:10457000F73D0100AE4A010008B582888A42034631
:104580000BD2094909480A4A40F2C3130BF097FFBE
:10459000074840F2C3110BF089FF521A828000686D
:1045A0000844186008BD00BF0D4B0100F73D010035
:1045B000AE4A0100044A0123C2F840354FF0804260
:1045C0000020C2F87835704700E0014048B1054B43
:1045D000054A1B68B3FBF2F35843044B43F0010355
:1045E000184770479404002040420F0040380100F3
:1045F00008B50649064A074832230BF060FF064813
:104600000BF05DFF024832210BF050FFD85C010037
:104610001D4B0100F73D0100554B01002DE9F04114
:1046200090F82C3003F01F03012B04460F4600F1D5
:104630002C062FD0022B18D08BB394F82D102046C7
:104640000CF031F9024678B330460CF016FA1D4DE5
:10465000002834D113693BB33A4631462046984787
:104660000346FFF7C5FB2B5024E0018EC9B20CF0C6
:10467000F2FC05460028E0D030460CF0FEF9024678
:1046800068688368CAB99B6873B13A463146BDE829
:10469000F0411847018EC9B20CF0CDFCE9E790F863
:1046A0002D100CF0FBFCE4E7FFF7A2FB054B6FF0CD
:1046B00085021A500020BDE8F081DB68E4E7D3688A
:1046C000C9E700BF0C0000002DE9F04F044693B08D
:1046D00016460D4659B9A349A348A44A40F20733E8
:1046E0000BF0EDFEA14840F207310BF0DFFE0B7E30
:1046F00033F0800840F0AC847AB10846FFF76CFED6
:104700006B7EDF0703D49E0711D52B7E7BB9204635
:1047100013B0BDE8F04F0CF0DCB94A7E00F12C0973
:10472000900708D5802B0CD12846FFF755FE404650
:1047300013B0BDE8F08F910700F04E84002B40F0DD
:104740004B84D2072FD52B8A082B40F01B84EA68B4
:104750001368E3625368C9F8043029460020FFF764
:1047600095FE054610B1FFF737FEF0E048460CF025
:1047700084F9628E70B9B2B12946A0690DF011FCBE
:104780000146002800F05484204613B0BDE8F04FE5
:1047900000F0C8BE3AB1114620460CF003FE0546B3
:1047A000002800F04584FFF723FB94F82C80704F1D
:1047B000002318F0600FC351C8F3411307D0032B37
:1047C00040F0C681FFF714FB6FF0850338E04846E0
:1047D0000CF053F994F82D30002840F05681013B3D
:1047E0000A2BEFD801A252F823F000BF7549000050
:1047F000C5470000014A0000C547000019480000F5
:10480000C5470000C5470000C547000089480000B3
:10481000C5470000EB480000E18D7F29D2D8238EE8
:10482000002BCFD1638E002BCCD118F01F0FC9D134
:1048300094F83430022B05D1FFF7DAFA4FF0FF334A
:104840003B5076E0A069036993F880301B0707D5D9
:10485000C9B20CF074F9804628B1002D6CD166E71E
:10486000012384F83D3094F83430012B0AD1E38DD4
:1048700043B984F83430FFF7BBFA3B58002B00F003
:104880008E8056E00123F4E720460BF06AFFE28DAC
:10489000FF2A014696D8638E002B93D194F82C30D2
:1048A000D8068FD194F83430002BC5D02AB1D2B2BB
:1048B00020460CF0E6FA0028BED0E18D94F83C309A
:1048C0008B42D8D0C9B220460CF0E2FA80460028CC
:1048D000C3D1E28D002A14BF0223012384F83430AF
:1048E000052120460CF0B4FDC5E708F01F08B8F11B
:1048F000010F7FF467AF638E002B7FF463AFE28D0F
:10490000FF2A3FF65FAF218EFF293FF65BAF94F899
:104910003430022B90D1D2B2C9B220460CF0C5FC83
:1049200010F1020F804640F01881FFF761FA47F856
:10493000008065B14FF000082846FFF74DFDB8F143
:10494000000F7FF4F4AEFFF753FA3B583BB34846F1
:104950000CF093F80346A069002B00F06C838021D3
:1049600072E300BF614A0100F73D01006B4B01009B
:104970000C000000638E002B7FF424AF94F83430D9
:10498000002B3FF459AF012B218E02D100297FF477
:1049900053AF18F01F080CD0B8F1020F16D0638E79
:1049A000002B40F0E28220460CF07DF80028CED1AA
:1049B000ADE600297FF440AFE38D012BEFD194F8F1
:1049C000703061F3C30384F87030E8E7B4F82EA0C8
:1049D000BAF1000FE3D15FFA81F8414620460CF0AE
:1049E0001DFD0346FFF704FA3B50013302D14FF09F
:1049F000FF3832E75246414620460CF044F83AE789
:104A0000638E002B7FF4DEAEE28D238E022A5FFAE6
:104A100083FA11D108F01F085AEA08087FF4D2AED1
:104A2000A0690122190A0CF067F800287FF4CAAEC9
:104A3000012384F83D301EE794F8341000293FF438
:104A4000FBAE012902D1002B7FF4F6AE18F01F084F
:104A500011D0B8F1020FA2D1002AA0D151462046B0
:104A60000CF0C7FC0346FFF7C3F93B500133BED03F
:104A700001225146C0E7002B7FF4DEAE012A8ED121
:104A800094F8703043F008039DE70A2B3FF69AAE86
:104A900001A252F823F000BFC54A0000C54700003C
:104AA000C5470000C5470000C5470000C5470000D6
:104AB0003F4B0000C5470000E74E0000C54700001F
:104AC000114F0000638E022B7FF47CAE94F83430DB
:104AD000002B3FF4B1AE012B218E02D100297FF4CF
:104AE000ABAE18F01F0811D0B8F1020F1CD04FF078
:104AF000000805F10C0A50460BF0B7FF638E984290
:104B000018D2FFF775F96FF00B0399E600297FF4CF
:104B100093AE94F870304FEA930808F00208C3F39C
:104B2000001348EA0308E4E7C9B220460CF085FC0C
:104B30008046DEE7414650460BF001FE9BE6B4F8A6
:104B40002EA018F01F0F4FEA1A235FFA8AFA09D035
:104B500029462046FFF762FD8046B8F1000F7FF43A
:104B60007CAE88E6013B0E2B3FF62CAE01A252F83C
:104B700023F000BFB14B0000F14B00009B4C000044
:104B8000C5470000C5470000934C0000934C00004F
:104B9000C5470000C5470000C5470000C5470000E5
:104BA000C5470000C5470000C5470000F54D00009F
:104BB00005F10C0840460BF058FF83462046B4F838
:104BC00032A00BF0CEFD20B101287FF4FBADA16F28
:104BD00000E0616F002900F03F820A78DA4528BFC3
:104BE000DA46524528BF524640460BF095FD42E654
:104BF00020460BF0B6FD0AF1010201900146D2B247
:104C000020460CF018F9804600283FF4DBAD05F192
:104C10000C0AD0F804B050460BF027FF9BF8002098
:104C2000824228BF0246594650460BF075FDD8F81F
:104C30000CB0BBF1000F09D1298A638E99427FF62F
:104C40001AAEC91A5046FFF77DFC14E6DBF80400E3
:104C500083681B6B13B9DBF800B0EAE7019998474A
:104C60000028F8D0A0F1040858F8041F0029F2D059
:104C70000A78002AEFD05046CDE902210BF0F5FE6C
:104C8000029A0399904238BF82B250460BF044FD1D
:104C9000EAE720460BF065FD94E5524603212046E5
:104CA0000BF041FE834600283FF48CAD0BF0D8FE9C
:104CB000B4F832809BF81530C8B99BF814A08DF871
:104CC00028A08DF82930DBF8103005F10C0B1B887B
:104CD000ADF82A3058460BF0C8FED045424628BFF2
:104CE0005246824228BF02460AA958467DE7DBF8B1
:104CF00008208DF81530B04B1340B04A4FF0000A31
:104D000093428DF814A051D1102106A80DF010FB8C
:104D1000031EFFF657AD0AAA102BDFF8A4C206A89F
:104D2000934628BF1023534502F102022DD89B0061
:104D30000233DAB28DF8142005F10C0A50460192C4
:104D40000BF093FE019A424528BF4246904228BF8D
:104D5000104602280246804628BF022205A9504676
:104D600001920BF0D9FC019AA8EB02084FEA580215
:104D70000023934221D118F0010F3FF47CAD1BF8C2
:104D8000031050460BF0D4FC75E510F8011B4FEAF8
:104D9000111E01F00F011CF80EE01CF8011002F8C2
:104DA00002EC02F8011C0AF1010ABCE79BF814208E
:104DB0008DF81420DBF810B0BEE71BF80310A1F14A
:104DC00020005E280DD97F497F4A804840F24D235C
:104DD0000BF075FB7E480BF072FB7B4840F24D21D7
:104DE00083E45046CDE901320BF0A9FC019B029A05
:104DF0000133BEE720460BF0B4FC38B101282CD0BB
:104E0000FEF7F6FF6FF085033B5034E5636F002B30
:104E100000F022815B88B3F5007FF1D96D4B0A93D6
:104E200000238DF82C30236D04F1500B9B4508BFF7
:104E30000023BDF82A10A3B15A7D0F2A08D11A7D8C
:104E40000A44ADF82A209DF82C2001328DF82C2040
:104E5000626D934203D01B68EBE7A36FD7E7BDF801
:104E60002A10019105F10C0A50460BF0FEFDB4F832
:104E700032800199884528BF8846804528BF8046F2
:104E80004246052A28BF05220AA9504601920BF086
:104E900043FC019AB8EB02083FF4EDAC236D5B458F
:104EA0003FF4E9AC002B3FF4E6AC5A7D0F2A14D155
:104EB0001A7D19690193424528BF424650460BF0BE
:104EC0002BFC019B1A7D424594BFA8EB0208A8EB7E
:104ED0000808B8F1000F3FF4CEAC626D93423FF486
:104EE000CAAC1B68DEE794F83430002B3FF4A4AC66
:104EF000638E012B7FF466AC05F10C0840460BF085
:104F0000B4FD00283FF4FDAD94F83C10404639E76D
:104F100008F01F08B8F1010F7FF48EAC20460BF0AB
:104F20009EFF00283FF488ACB4F830A0BAF1FF0F20
:104F30003FF648AC43681B795345FFF443AC5FFA36
:104F40008AF30F2B3FF63EAC638E012B7FF43AAC15
:104F500005F10C0840460BF088FD00283FF4D1AD68
:104F600004EB0A0393F83E10D0E748460BF085FDAA
:104F700018B92846FFF730FA15E52946204600F013
:104F8000D1FA10B12846FFF7EEBBA069036993F888
:104F9000801011F004017FF4BAAB0DF016F805464D
:104FA00000283FF4D4AC0146204600F0BBFA0028AC
:104FB0003FF4ADABE6E700BF00FF020000030200D4
:104FC0003D690100D44B01009F4B0100F73D0100FA
:104FD000014C0100050F050052077FF5B8AC002B0E
:104FE0003FF4A2AB2846FFF7F7F994F83D30002BC9
:104FF0003FF49DAB94F82D30052B05D1E18DA069D0
:10500000C9B20BF09CFD064694F82D30032B09D154
:10501000E38D022B06D1218EA0690022090A0BF034
:105020006BFD0646002384F83D30B046FFF77FBB9A
:105030006FF00B068BE4638E002B3FF490AC16F1FF
:105040000C0118BF0121C9010CF0C1FEFFF75FBBC5
:105050006FF00408FFF76BBB6FF01508FFF7FDBB9F
:105060002DE9F0410B78062B0C4640D10369D3F8AB
:105070009C6006F12805EFF31187202383F3128843
:10508000BFF36F8F284609F0E3FD68B91C4A1D493C
:105090001D4884230BF013FA29461C480BF00FFA25
:1050A000842117480BF002FA284609F0F5FD6368E1
:1050B00000221A60726A9AB9C6E90833284609F0D4
:1050C000D5FD80B90E4A12490F484FF499730BF081
:1050D000F6F929460F480BF0F2F94FF49971E0E721
:1050E00013607362EAE787F31188BFF36F8F0A4892
:1050F00021460022BDE8F04100230DF0DBBE00BFD9
:10510000F23F01004B400100F73D0100604001000B
:105110001F40010036400100780600202DE9FF41C4
:1051200020264FF0FF337B484FF0FF3201A907F0F4
:1051300003F8039B1B69D3F89C40FCB194F87030D2
:10514000DF071BD504F12807236A002B45D0EFF3B6
:10515000118886F31288BFF36F8F384609F078FD07
:10516000C8B96D4A6D496E4884230BF0A8F93946D9
:105170006C480BF0A4F9842167480AE06A496B4A3D
:105180006748DE230BF09BF969480BF098F96748F4
:10519000DE210BF08BF9384609F07EFD256A2DB132
:1051A000626A2B682362954208BF6362384609F041
:1051B0005DFD68B9584A5F4959484FF499730BF03F
:1051C0007EF939465C480BF07AF94FF49971D3E7D0
:1051D00088F31188BFF36F8FC5B99DF80430062B93
:1051E0009FD0072B9DD801A252F823F04152000016
:1051F0003552000061520000475200008552000005
:105200007B520000235100000F5300002B7ED5F885
:105210001E2029465D06204609D1FFF755FA0246B1
:10522000002891D0072120460CF012F98CE700F0FD
:1052300045F9F4E70022012120460CF009F970E756
:1052400000221146F8E794F8703043F0040301A9F6
:1052500084F8703020460BF09AFC00220321EBE723
:1052600094F8703023F0040301A984F870302046CC
:105270000BF08DFC00220221DEE701A920460BF095
:1052800086FC4EE794F87030A76923F0040384F895
:105290007030D7F808803B69BFF35B8FD3F8A0303C
:1052A000BFF35B8F9A072FD5D8F83C303846984724
:1052B000D8F82430002138469847D8F840300546C1
:1052C00038469847ADB9294620460BF0E1FD054622
:1052D00078B9A0690CF098FE831E5842584194F8A2
:1052E000703084F8345023F0680343EA401384F8A4
:1052F00070300022042120460CF0AAF8002D3FF463
:1053000010AF2A46072197E74FF0FF35F1E7029AE1
:10531000062191E778060020F23F01004B40010092
:10532000F73D010060400100814C01004B4C010041
:10533000B84C01001F4001003640010030B589B073
:1053400000220023CDE9062300246FF00703CDE9F6
:105350000334CDE90144294B294900944FF480627C
:10536000284808F02FFA2849264808F05DF9274B0D
:1053700027498B421CD92749274A284840F227133E
:105380000BF09DF826480BF09AF840F227112248BE
:105390000BF08CF803F11402BFF35B8F52E8000F9F
:1053A00042E80045002DF9D1BFF35B8F1833E0E7E9
:1053B000F0D31C4B1C4900208B421AD91B49164ABA
:1053C000164840F22B130BF07AF815480BF077F8DB
:1053D00040F22B11DBE703F11402BFF35B8F52E8BD
:1053E000004F42E80005002DF9D1BFF35B8F183361
:1053F000E2E7F0D3002009B030BD00BF1D5100002E
:10540000B016002090070020D84C0100780700203B
:1054100090070020DD4C01004B4C0100F73D0100DE
:10542000FD4C010090070020900700201C4D01005A
:1054300038B502460949054680690CF04BFE044622
:1054400048B985F83C0028460BF0F8FB044610B13B
:10545000A8690CF072FE204638BD00BF6150000004
:1054600070B5054611B10024204670BD0D4C0E4E9E
:1054700008E0F8D2636828461968FCF78DFD00281B
:10548000F2D01834B442F4D90849094A0948D4235F
:105490000BF015F808480BF012F80548D4210BF072
:1054A00005F800BF7807002090070020DD4C0100C0
:1054B0003C4D0100F73D0100FD4C010010B559B90C
:1054C0000B490C480C4A40F207330AF0F8FF0A482F
:1054D00040F207310AF0EAFFD1F81A0083681B692D
:1054E00013B1BDE8104018476FF0850010BD00BF34
:1054F000614A0100F73D01006B4B010008B5064908
:105500000648074A40F207330AF0D9FF044840F240
:1055100007310AF0CBFF00BF614A0100F73D0100EF
:105520006B4B01002DE9F04105460C4609B9FFF728
:10553000E5FF0B7E5A063BD193B30BF03CF90028F4
:105540003AD12846D5F87480268A6F8E0BF009F977
:1055500070B101282AD01A491A4A1B484A230AF076
:10556000AEFF1A480AF0ABFF16484A210AF09EFF28
:1055700098F80720238A9BB1BE42698E334628BF24
:105580003B4699420CD9B3FBF2F102FB11333BB914
:1055900094F91830002BBEBF637E43F00803637696
:1055A000A8692146BDE8F0410CF06BBC4022E1E760
:1055B0006FF01500BDE8F0814FF0FF30FAE700BF53
:1055C000D85C0100734D0100F73D0100AD4D0100B5
:1055D0002DE9F0410646EFF31188202484F3128868
:1055E000BFF36F8F3C4809F033FB68B93B4A3C4935
:1055F0003C4884230AF063FF37493B480AF05FFFC9
:10560000842136480AF052FF3348384D09F044FBF4
:1056100031482F6809F02AFB68B9304A34493148CB
:105620004FF499730AF04BFF2B4932480AF047FFB9
:105630004FF49971E5E788F31188BFF36F8F5FB975
:105640002D492E4A274842230AF039FF2C480AF0F8
:1056500036FF2A484221D5E77B6893F87030DB0794
:1056600006D430462122BDE8F041002307F0D4BE25
:10567000EFF3118784F31288BFF36F8F164809F098
:10568000E7FA0028B2D0144809F006FB2C682CB1C8
:105690006A6823682B60944208BF6B600E4809F06B
:1056A000E5FA0028B9D087F31188BFF36F8F44B1B2
:1056B000606804F10801C36998471248214606F062
:1056C00053FB2B6833B130460022BDE8F041002384
:1056D00007F01ABEBDE8F081A4110020F23F0100DE
:1056E0004B400100F73D0100604001009C1100208B
:1056F0001F40010036400100194E0100E44D010039
:105700002D4E0100D80500207FB50646CDE90012D8
:1057100030480022002303A906F09AFA0446002824
:1057200055D1039BDDE900015E60083383E8030087
:10573000EFF31185202383F31288BFF36F8F264880
:1057400009F086FA68B9254A2549264884230AF0D3
:10575000B6FE214924480AF0B2FE84211F480AF00F
:10576000A5FE1D4809F098FA039B204A1C60516869
:1057700099B9C2E90033184809F078FA80B9174A94
:105780001B4918484FF499730AF099FE12491948B9
:105790000AF095FE4FF49971E0E70B605360EAE779
:1057A00085F31188BFF36F8F13480022002307F0A1
:1057B000ABFD00280BDA1149114A0A4833230AF0DD
:1057C0007EFE10480AF07BFE0D483321C7E704B087
:1057D00070BD00BFD8050020A4110020F23F0100D9
:1057E0004B400100F73D0100604001009C1100208A
:1057F0001F4001003640010000000020D85C01007D
:10580000E44D0100494E01002DE9F04106690D46C5
:10581000174606F19C04EFF31188202383F31288C6
:10582000BFF36F8F204609F013FA68B9194A1A4975
:105830001A4884230AF043FE214619480AF03FFE25
:10584000842114480AF032FE204609F025FA294640
:10585000F06B3A46FDF7A6FC0546204609F006FA2D
:1058600068B90C4A0F490D484FF499730AF027FEA6
:1058700021460D480AF023FE4FF49971E1E788F3C1
:105880001188BFF36F8F15B1012386F84130284688
:10589000BDE8F081F23F01004B400100F73D0100FF
:1058A000604001001F4001003640010038B54B78D0
:1058B000046945682069202B08D0222B19D0FEF7F7
:1058C00097FA114B6FF085021A5010E0CB88072B26
:1058D000F5D1D3681A6842609A8802819B798372F5
:1058E0000BF0D7FD2246082128460BF0BFFD002013
:1058F00038BD4B888381C3F3400203F00103027675
:10590000437622460921EFE70C00000008B5134654
:105910004A78212A14D133B9FEF76AFA0B4B6FF09B
:105920000B021A500AE0CA8801690969072A28BFD0
:105930000722043103F10C000AF0EEFE002008BD3E
:10594000FEF756FA014B6FF08502EAE70C00000003
:105950002DE9F34105698DF8071005F19C04202716
:10596000EFF3118887F31288BFF36F8F204609F099
:105970006FF968B9284A2949294884230AF09FFD0C
:10598000214628480AF09BFD842123480AF08EFD19
:10599000204609F081F9E86B01220DF10701FDF7BE
:1059A00001FC0646204609F061F968B91A4A1E4909
:1059B0001B484FF499730AF082FD21461B480AF0F8
:1059C0007EFD4FF49971E0E788F31188BFF36F8F84
:1059D000012E10D00DF0EFFAB0B1154BBFF35B8F75
:1059E000012253E8001F002903D143E800200028CA
:1059F000F7D1BFF35B8F2122002305F1480007F0A8
:105A000083FC02B0BDE8F081AB7E002BE5D0002125
:105A1000212008F0A5FDA3E7F23F01004B40010063
:105A2000F73D0100604001001F40010036400100C9
:105A3000A811002038B505690E49EB6B0024C3E9B5
:105A40000144DC606B6B05F14800C3E90144DC6094
:105A500007F0AAFB05F17800074907F09FFA07490C
:105A600005F1240007F09AFA28460BF012FD2046B3
:105A700038BD00BF13160100D916010065170100DB
:105A8000F8B50646476800690D46046959B93D49AD
:105A90003D483E4A40F207330AF011FD3B4840F2D0
:105AA00007310AF003FD0B7E4168896891F83D10CB
:105AB0002AB3994204D1042104F188000BF07EFD41
:105AC00033692A7E5B689B6893F836309A4204D12A
:105AD000052104F188000BF071FD33692A7E5B68B3
:105AE0009B6893F826309A4203D104F18C0007F0AA
:105AF00007F829463846BDE8F8400BF077BC9942D4
:105B000014D12A8AE968606BFDF74CFB28B1E36980
:105B10001BB104F1240007F0D1FA04F1880004213C
:105B20000BF04CFD04F1780007F0C8FA33692A7EC7
:105B30005B689B6893F836309A4215D1E3691BB1D4
:105B400004F1240007F0BAFA052104F188000BF0F3
:105B500035FDE36B5A89DB889A4205D00022002389
:105B600004F1480007F0D0FB33692A7E5B689B682C
:105B700093F826309A42BCD104F18C0006F0C8FE9E
:105B8000B7E700BF614A0100F73D01006B4B010020
:105B900008B506490648074A40F207330AF08FFC69
:105BA000044840F207310AF081FC00BF614A01005D
:105BB000F73D01006B4B0100F8B587681446FB6B9D
:105BC00005460E4698472146064800220023FEF768
:105BD00027FB044600B1067628463B6C98472046D2
:105BE000F8BD00BFCC060020EFF31180202383F323
:105BF0001288BFF36F8F0A4BD3F8001C032261B9E0
:105C000049F27531C3F8001CC3F8142DC3F8001C09
:105C100080F31188BFF36F8F7047C3F8142DF7E737
:105C200000E00640EFF31180202383F31288BFF3D6
:105C30006F8F0A4BD3F8001C61B949F27532C3F873
:105C4000002CC3F8141DC3F8002C80F31188BFF397
:105C50006F8F70470022C3F8142DF6E700E006406E
:105C600008B50B7F0D4A13F07F0F03D10123536555
:105C7000002008BD19070BD509490A480A4A40F215
:105C80006D430AF01CFC084840F26D410AF00EFC1E
:105C900043F48073C2F81835EAE700BF0070024091
:105CA000A34E0100F73D0100764E010010B5446897
:105CB000206801F0CBFE0D4B18600D4B1B782BB10B
:105CC0000C4B0022186811460BF014FF0022012132
:105CD0002720FDF787FF201D04F088FA04F1080053
:105CE00004F0D2FA0CF0B8FF002010BDBC11002067
:105CF000A31600201012002008B500F00F03082B97
:105D00000BD9094909480A4A4FF48B730AF0D7FBAB
:105D100007484FF48B710AF0C9FBC043C0F3C010B1
:105D200003EB001008BD00BFB64E0100F73D0100B7
:105D3000764E01002DE9F0410446EFF31186202351
:105D400083F31288BFF36F8F410600F0080723D05A
:105D500017BBDFF8A080FFF7CFFFD8F8005025FA77
:105D600000F3DA0718D50123834025EA030563B25F
:105D7000DB4324F08002DB0F02F2DA321B0103EB7B
:105D800042031D4AC8F80050C2F80038D2F804385F
:105D900043F00203C2F804382046FFF7ADFF174A6C
:105DA0000125136805FA00F023EA0003136067B9C0
:105DB000134F2306D7F80080204614D4FFF79CFF2A
:105DC00005FA00F028EA000038602046FFF794FF4B
:105DD000094A01238340C2F86C3486F31188BFF36B
:105DE0006F8FBDE8F081FFF787FF854045EA080522
:105DF0003D60EAE704120020007002400812002013
:105E00000C120020F8B50446FFF776FFEFF311827D
:105E1000202383F31288BFF36F8F631E062B25D8D0
:105E2000314D324B2E681B683343C34013F00103DE
:105E300008D12F4F04F5947147F821300123834096
:105E400033432B602B490D6825FA00F3DB073DD562
:105E5000294A2A492A4840F253430AF030FB214696
:105E600028480AF02CFB40F2534117E0882C18D147
:105E70001D4B1B68C340DF07E4D51C4B1B68C340A8
:105E8000DE07DFD520491C4A1D4840F24A430AF08C
:105E900016FB1E480AF013FB40F24A4116480AF06E
:105EA00005FB2506CED5104B1B68C340D907C9D5C5
:105EB000114A1749124840F24F430AF000FB2146AD
:105EC00014480AF0FCFA40F24F41E7E7012383400F
:105ED0002B430B60104B8021C3F8041182F311880F
:105EE000BFF36F8FF8BD00BF041200200C1200201A
:105EF0000070024008120020764E0100C14F0100E0
:105F0000F73D0100EC4F0100104F01005D4F010013
:105F1000824F0100A74F010000E100E070B5064686
:105F20000D460BF0A6FD04460BF0ACFD28BB204649
:105F30000BF0CBFD08B3802D16D1437E9A0744BFEA
:105F40000E4A15705B070FD50D4B1B7813B90D4B1F
:105F500001221A6520460BF0B4FD002201463046AE
:105F6000BDE870400BF0D2BD2846FFF74BFF20463E
:105F70000121BDE870400BF089BD70BDA116002065
:105F8000A61600200070024070B506460C460BF0C5
:105F900070FD05460BF076FD20BB28460BF095FD05
:105FA0000146F8B1ACB9437ED8071BD49A0704D593
:105FB0000D4B1C700D4B0122DA644B7E5B0708D53C
:105FC0000B4B1B7873B130460022BDE870400BF0DC
:105FD0009DBD2046FFF716FF28460121BDE8704011
:105FE0000BF054BD70BD00BFA11600200070024030
:105FF000A716002000F00F02082A08B541B209D9FF
:106000000F491048104AE7230AF059FA0E48E721D1
:106010000AF04CFA10F0080F0C4B0AD100294FF08F
:10602000140101FB0233B4BFD3F80806D3F8080704
:1060300008BD0029B4BFD3F8A806D3F8A807F7E72E
:10604000B64E0100F73D0100764E0100007002409F
:10605000F8B510F0080705460BD0194919481A4A37
:1060600040F285430AF02BFA174840F285410AF0C6
:106070001DFA030620D400F00F04A40004F18044AC
:1060800004F51C34D4F84434B3B1EFF31186202363
:1060900083F31288BFF36F8FFFF72EFE0B49C4F80E
:1060A000A074012303FA00F20B6823EA02030B60D9
:1060B00086F31188BFF36F8F054BC3F81855F8BDF1
:1060C000A34E0100F73D0100764E01000C120020A6
:1060D0000070024010B50B7F13F008040BD00C4980
:1060E0000C480D4A40F28F430AF0E9F90A4840F2A1
:1060F0008F410AF0DBF9094AC2F80C3543F480738A
:10610000C2F80C35087FFFF7A3FF204610BD00BF83
:10611000A34E0100F73D0100764E010000700240E1
:10612000012810B5014619D0022809D0A8B90F4B93
:10613000024618680BF0DEFC0D4B01221A700CE0D1
:106140000C4B0D4C00221A700C4BC4F80033272066
:10615000FDF718FD0123C4F8043510BD034B0022E0
:1061600018680BF0C7FC024B0022E7E71012002072
:10617000A3160020A216002000700240FDFFDF01E0
:10618000014601480DF007B8B406002008B5054BDC
:106190001970054B1B7813B10420FFF7F1FF0020A5
:1061A00008BD00BFA4160020A516002010B5046984
:1061B000087FFFF7A1FD0C4A012303FA00F01368E2
:1061C0000343136007F080FF4020FFF7D9FF4FF033
:1061D000FF324FF0FF3304F18401044807F0D6F991
:1061E00007F0E4FF002010BD00120020C4060020CC
:1061F0002DE9F047494B066988B00546186006F15D
:1062000084000CF066FE00220023CDE90623002462
:106210006FF00703CDE90334CDE90144404B414918
:1062200000954FF40072404807F0CCFADFF8FC808C
:106230003F493D483F4F07F0F7F9D8F814203E4B4F
:10624000134043F4820343F04003C8F81430C146BE
:106250004FF0240A88F81C40414628460BF01BFCEE
:10626000002857D10134092C18D00AFB0491082CBE
:106270008A7D324B42F040028A7508D1D9F8342128
:106280002F4911402F4A0A43C9F8342103E04A69D3
:106290003A401A434A6108F12408DBE72A4C2B4BA9
:1062A0006269244F134043F4041343F040036361D5
:1062B0008046A1464FF0240A68F07F0222772146EB
:1062C00028460BF0E8FB28BB08F10108B8F1090FDC
:1062D00018D00AFB0891B8F1080F8A7D174B42F0DD
:1062E00020028A7508D1D9F8342115491140154A80
:1062F0000A43C9F8342103E04A693A401A434A6123
:106300002434D9E796F8803023F0720343F0720307
:1063100086F8803008B0BDE8F08700BF101200207A
:10632000A5640000B01A002048080020581300207F
:10633000085001000000F9FF0000BEFF4000060009
:106340000000F7FFFF010800141200200000DEFF2C
:1063500010B50C46204611460BF0B9FB207FFFF725
:10636000CBFC014603480BF028FF0120FFF708FF94
:10637000002010BDA014002010B559B91A491B48BF
:106380001B4A40F24D630AF09AF8194840F24D61F9
:106390000AF08CF80C7F4FF0FF324FF0FF331548B6
:1063A00006F034FB2046FFF7C5FC04F00F02012382
:1063B0009340114A14F0800F14BFD2F81015D2F890
:1063C00014156FEA030315BF0B400B40C2F81035DC
:1063D000C2F81435074806F09BFA084B8022C3F830
:1063E0000421002010BD00BF11500100F73D010045
:1063F000764E0100A40600200070024000E100E09B
:1064000010B559B92249234A234840F23A630AF0A9
:1064100056F840F23A611F480AF048F80A7F91F9AD
:106420001C0002F00F02082A09D91C49194A1A480F
:1064300040F20E430AF043F840F20E41EBE7184BEE
:106440000028B4BFD3F81045D3F814450123934076
:1064500023420DD1124A0028B5BFD2F81005D2F858
:10646000140503430343B4BFC2F81035C2F8143512
:106470000B7F1A0709D40A4AC2F80C3543F480731B
:10648000C2F80C35087FFFF7E3FD002010BD00BF08
:1064900011500100764E0100F73D0100B64E01009B
:1064A000007002402DE9F04FC14E87B004464FF016
:1064B000FF3A4FF0FF3B0022CDE900AB4FF0FF3138
:1064C000BC480CF06FFEBB484FF0FF310CF066FE8D
:1064D00010F0080F80462FD0B74852465B4606F0B2
:1064E00095FAEFF31181202383F31288BFF36F8FA6
:1064F000B24B1B7883B1B24BD3F8002412F4007274
:106500000AD10120C3F82C05D3F82C05D3F80004D8
:10651000800548BFC3F82C2581F31188BFF36F8F26
:10652000A54806F0F5F9012120460BF082FA002279
:10653000032120460BF0DEFA18F0100F08D00021DE
:1065400020460BF076FA0022022120460BF0D2FA08
:1065500018F0200F08D0002120460BF06AFA002224
:10656000022120460BF0C6FA18F0020F63D118F092
:10657000010F0FD0BFF35B8F924B002253E8007FD7
:1065800043E800210029F9D1BFF35B8F0125002FDB
:1065900040F0E18018F0040F34D0894B4FF0000C2C
:1065A00086F800C0D3F88074FFB28DF81070D3F86D
:1065B0008404C0B28DF81100D3F88824D3F88C1469
:1065C00042EA012292B2ADF81220D3F89014D3F827
:1065D000945441EA0521ADF81410D3F89814D3F877
:1065E0009C5441EA052189B2774DADF81610002F71
:1065F00040F0CB80052840F0C88001232B70002993
:1066000000F0CF8018F0400F3FF451AF2069843084
:106610004FF0FF324FF0FF3305F078FE6B4D2968E5
:10662000002940F0FE806A4806F01CFF2069843093
:1066300005F034FF3BE7674BBFF35B8F002253E865
:10664000009F43E800210029F9D1BFF35B8F5C4F25
:106650004FF0010BB9F1000F89D099FAA9F3B3FA01
:1066600083F30F2B1D46C6BFA3F11005EDB245F015
:1066700080050BFA03F329EA03092B062946204675
:1066800053D50BF0F6F903900BF01BFA824658B97C
:106690005149524A524840F2DE4309F010FF40F29D
:1066A000DE414E4809F002FF039800210BF0EEF99D
:1066B0000022514620460BF029FA802D30D19AF85D
:1066C000193099070CD44749444A454840F2E643FB
:1066D00009F0F5FE444809F0F2FE40F2E641E0E739
:1066E000002186F800B02046C7F850B00BF0C1F981
:1066F0000BF0E7F9014698B1437E5A070CD43B49A9
:10670000364A374840F2F34309F0D9FE384809F0D9
:10671000D6FE40F2F341C4E7002220460BF0F6F922
:1067200029462046FFF7FAFB94E70BF0A2F98246D0
:106730000BF0C7F9039048B1002150460BF0A6F9C1
:10674000039B0022194620460BF0E0F9294620461B
:10675000FFF71AFC7EE797FAA7F3B3FA83F30F2B40
:106760001946C4BFA3F11001C9B205FA03F3D8BF9B
:1067700041F0800127EA03070B06204602D5FFF708
:10678000CDFB04E7FFF700FC01E71A4985F800C0DC
:10679000D3F870240978914230D1174B00221A7037
:1067A0003AE002F07F02ADF81220ADF81410F4E7E1
:1067B000A7160020B4060020A4060020A216002080
:1067C00000700240A0140020A61600200012002035
:1067D000C40600209C140020D85C0100764E010005
:1067E000F73D0100155001003150010049500100F2
:1067F00067500100A4160020A51600202849012298
:106800000A702A704FF4A062ADF81020D3F87034EB
:10681000ADF81230CDF814C004A920460BF0A0F951
:10682000F0E691FAA1F7B7FA87F70F2F3946C6BFFE
:10683000A7F11001C9B241F0800120460BF019F90F
:10684000804690F81C904FF0FF324FF0FF33154810
:1068500006F0DCF84846FFF76DFA124806F058F8E3
:10686000114B8022C3F80421414620460BF069F900
:10687000002140460BF00AF9BFF35B8F0123BB40B8
:106880000A4ADB4352E8000F184042E800010029A1
:10689000F8D1BFF35B8F2A6813402B60BFE600BFBF
:1068A000A5160020A406002000E100E09C140020B2
:1068B0004FF08053D3F83031082B02BF024B002237
:1068C000C3F81C2C704700BF007002402DE9F04156
:1068D00005464FF0FF324FF0FF33384806F096F888
:1068E000374B8022C3F884212720FDF76DF9A0B132
:1068F000344F354B3C681B686FF30F041C434FF05B
:1069000001088CBB314E40F2FF133B602720C6F8D4
:106910000445FDF745F9C6F800432D4A13788BB1BD
:106920002A4B0021C3F808110121C3F80026C3F83F
:1069300004165960D3F808110029FBD00021C3F8D0
:1069400008111170214B0024C3F80045FFF7B0FF78
:106950001A4805F0DDFF214628460BF0FDF9C0B1CD
:106960006FF00400BDE8F08194FAA4F6B6FA86F65A
:106970000F2E3346C6BFA6F11003D8B243F08000F5
:10698000030701D4FFF7D6F908FA06F624EA06044D
:10699000B7E7802128460BF0DFF90028E0D10D4B46
:1069A0000D491C682046FCF773FB10F1780F02D1EB
:1069B0002046FCF701FB00EAE070D3E7A4060020C4
:1069C00000E100E00C1200200812002000700240DC
:1069D0009F160020BC110020AC1100202DE9F04FC3
:1069E000934BDFF85082D3F85421934F85B00AB30C
:1069F0000022C3F85421D3F8042392021AD5D3F805
:106A0000C034002B14BF4FF001244FF480748B4B23
:106A10009B683BB998F80000FFF76EF901238340AB
:106A200024EA03043B68864A23433B60136823F04F
:106A3000012313607E4BD3F8604134B10022C3F8C8
:106A40006021D3F86C44C3F86C44D3F828214AB1D0
:106A50000022C3F828217B4B1878FFF74DF901235A
:106A600083401C4398F8005098F9006005F00F022D
:106A7000082A09D97449754A7548D42309F01FFDBD
:106A8000D421724809F012FD2B0700F18880002EF6
:106A9000B4BF704B704B920013441A685AB3002273
:106AA0001A602846FFF7A6FA6C4B1A7800F001002E
:106AB00050401870FFF7FCFE694B2846D3F8009051
:106AC000FFF71AF929FA00F919F0010F014679D1F7
:106AD000002E6BDA882D69D02846FFF70DF9584A49
