:10100000002700206D39000033F900005939000035
:10101000593900005939000059390000000000001A
:10102000000000000000000000000000493A00003D
:101030005939000000000000413C0000593900000F
:10104000AD3C0000AD3C0000AD3C0000AD3C0000FC
:10105000AD3C0000AD3C0000AD3C0000AD3C0000EC
:10106000AD3C0000AD3C0000AD3C0000AD3C0000DC
:10107000AD3C0000AD3C0000AD3C0000AD3C0000CC
:10108000AD3C0000AD3C0000AD3C0000AD3C0000BC
:10109000AD3C0000AD3C0000AD3C0000AD3C0000AC
:1010A000AD3C0000AD3C0000AD3C0000AD3C00009C
:1010B000AD3C0000AD3C0000AD3C0000AD3C00008C
:1010C000AD3C0000AD3C0000AD3C0000AD3C00007C
:1010D000AD3C0000AD3C0000AD3C0000AD3C00006C
:1010E000AD3C0000AD3C0000AD3C0000AD3C00005C
:1010F000AD3C0000AD3C0000AD3C0000AD3C00004C
:1011000081F0004102E000BF83F0004330B54FEAB8
:1011100041044FEA430594EA050F08BF90EA020F25
:101120001FBF54EA000C55EA020C7FEA645C7FEAB8
:10113000655C00F0E2804FEA5454D4EB5555B8BFDB
:101140006D420CDD2C4480EA020281EA030382EA4C
:10115000000083EA010180EA020281EA0303362DDE
:1011600088BF30BD11F0004F4FEA01314FF4801CB1
:101170004CEA113102D0404261EB410113F0004FC3
:101180004FEA03334CEA133302D0524263EB43037A
:1011900094EA050F00F0A780A4F10104D5F1200E18
:1011A0000DDB02FA0EFC22FA05F2801841F1000173
:1011B00003FA0EF2801843FA05F359410EE0A5F147
:1011C00020050EF1200E012A03FA0EFC28BF4CF078
:1011D000020C43FA05F3C01851EBE37101F000452E
:1011E00007D54FF0000EDCF1000C7EEB00006EEB3B
:1011F0000101B1F5801F1BD3B1F5001F0CD34908C5
:101200005FEA30004FEA3C0C04F101044FEA44521B
:1012100012F5800F80F09A80BCF1004F08BF5FEAA2
:10122000500C50F1000041EB045141EA050130BD82
:101230005FEA4C0C404141EB0101013C28BFB1F594
:10124000801FE9D291F0000F04BF01460020B1FADF
:1012500081F308BF2033A3F10B03B3F120020CDAB2
:101260000C3208DD02F1140CC2F10C0201FA0CF090
:1012700021FA02F10CE002F11402D8BFC2F1200CF5
:1012800001FA02F120FA0CFCDCBF41EA0C019040AB
:10129000E41AA2BF01EB0451294330BD6FEA0404F4
:1012A0001F3C1CDA0C340EDC04F11404C4F12002DF
:1012B00020FA04F001FA02F340EA030021FA04F3F1
:1012C00045EA030130BDC4F10C04C4F1200220FA48
:1012D00002F001FA04F340EA0300294630BD21FA86
:1012E00004F0294630BD94F0000F83F4801306BF4C
:1012F00081F480110134013D4EE77FEA645C18BF40
:101300007FEA655C29D094EA050F08BF90EA020FD6
:1013100005D054EA000C04BF1946104630BD91EACE
:10132000030F1EBF0021002030BD5FEA545C05D1D1
:101330004000494128BF41F0004130BD14F5800410
:101340003CBF01F5801130BD01F0004545F0FE4184
:1013500041F470014FF0000030BD7FEA645C1ABFB9
:10136000194610467FEA655C1CBF0B46024650EAF0
:10137000013406BF52EA033591EA030F41F400211C
:1013800030BD00BF90F0000F04BF0021704730B5A2
:101390004FF4806404F132044FF000054FF0000177
:1013A00050E700BF90F0000F04BF0021704730B538
:1013B0004FF4806404F1320410F0004548BF40420D
:1013C0004FF000013EE700BF42004FEAE2014FEA62
:1013D00031014FEA02701FBF12F07F4393F07F4F3D
:1013E00081F06051704732F07F4208BF704793F040
:1013F0007F4F04BF41F40021704730B54FF4607453
:1014000001F0004521F000411CE700BF50EA010255
:1014100008BF704730B54FF000050AE050EA0102FE
:1014200008BF704730B511F0004502D5404261EB6E
:1014300041014FF4806404F132045FEA915C3FF4AF
:10144000D8AE4FF003025FEADC0C18BF03325FEA4C
:10145000DC0C18BF033202EBDC02C2F1200300FAFD
:1014600003FC20FA02F001FA03FE40EA0E0021FA22
:1014700002F11444BDE600BF70B54FF0FF0C4CF410
:10148000E06C1CEA11541DBF1CEA135594EA0C0FC2
:1014900095EA0C0F00F0DEF82C4481EA030621EAFD
:1014A0004C5123EA4C5350EA013518BF52EA033538
:1014B00041F4801143F4801338D0A0FB02CE4FF0EA
:1014C0000005E1FB02E506F00042E0FB03E54FF01A
:1014D0000006E1FB03569CF0000F18BF4EF0010E12
:1014E000A4F1FF04B6F5007F64F5407404D25FEA0E
:1014F0004E0E6D4146EB060642EAC62141EA5551C1
:101500004FEAC52040EA5E504FEACE2EB4F1FD0C02
:1015100088BFBCF5E06F1ED8BEF1004F08BF5FEA80
:10152000500E50F1000041EB045170BD06F0004632
:1015300046EA010140EA020081EA0301B4EB5C04DF
:10154000C2BFD4EB0C0541EA045170BD41F48011D7
:101550004FF0000E013C00F3AB8014F1360FDEBFFC
:10156000002001F0004170BDC4F10004203C35DAD8
:101570000C341BDC04F11404C4F1200500FA05F35B
:1015800020FA04F001FA05F240EA020001F00042FC
:1015900021F0004110EBD37021FA04F642EB060172
:1015A0005EEA430E08BF20EAD37070BDC4F10C049C
:1015B000C4F1200500FA04F320FA05F001FA04F260
:1015C00040EA020001F0004110EBD37041F100014C
:1015D0005EEA430E08BF20EAD37070BDC4F1200557
:1015E00000FA05F24EEA020E20FA04F301FA05F2BF
:1015F00043EA020321FA04F001F0004121FA04F267
:1016000020EA020000EBD3705EEA430E08BF20EA36
:10161000D37070BD94F0000F0FD101F00046400070
:1016200041EB010111F4801F08BF013CF7D041EAF2
:10163000060195F0000F18BF704703F000465200F6
:1016400043EB030313F4801F08BF013DF7D043EAC7
:101650000603704794EA0C0F0CEA135518BF95EA7D
:101660000C0F0CD050EA410618BF52EA4306D1D104
:1016700081EA030101F000414FF0000070BD50EA23
:10168000410606BF1046194652EA430619D094EAAD
:101690000C0F02D150EA013613D195EA0C0F05D197
:1016A00052EA03361CBF104619460AD181EA0301EB
:1016B00001F0004141F0FE4141F470014FF00000A3
:1016C00070BD41F0FE4141F4780170BD70B54FF03E
:1016D000FF0C4CF4E06C1CEA11541DBF1CEA1355BE
:1016E00094EA0C0F95EA0C0F00F0A7F8A4EB0504A0
:1016F00081EA030E52EA03354FEA013100F0888097
:101700004FEA03334FF0805545EA131343EA12635F
:101710004FEA022245EA111545EA10654FEA002614
:101720000EF000419D4208BF964244F1FD0404F5CD
:10173000407402D25B084FEA3202B61A65EB030529
:101740005B084FEA32024FF480104FF4002CB6EBE6
:10175000020E75EB030E22BFB61A754640EA0C0066
:101760005B084FEA3202B6EB020E75EB030E22BFA6
:10177000B61A754640EA5C005B084FEA3202B6EBE7
:10178000020E75EB030E22BFB61A754640EA9C00A6
:101790005B084FEA3202B6EB020E75EB030E22BF76
:1017A000B61A754640EADC0055EA060E18D04FEA34
:1017B000051545EA16754FEA06164FEAC30343EAD4
:1017C00052734FEAC2025FEA1C1CC0D111F4801FA1
:1017D0000BD141EA00014FF000004FF0004CB6E79A
:1017E00011F4801F04BF01430020B4F1FD0C88BF39
:1017F000BCF5E06F3FF6AFAEB5EB030C04BFB6EB44
:10180000020C5FEA500C50F1000041EB045170BD36
:101810000EF0004E4EEA113114EB5C04C2BFD4EB63
:101820000C0541EA045170BD41F480114FF0000EE7
:10183000013C90E645EA060E8DE60CEA135594EA63
:101840000C0F08BF95EA0C0F3FF43BAF94EA0C0F66
:101850000AD150EA01347FF434AF95EA0C0F7FF4DB
:1018600025AF104619462CE795EA0C0F06D152EA2F
:1018700003353FF4FDAE1046194622E750EA410613
:1018800018BF52EA43067FF4C5AE50EA41047FF424
:101890000DAF52EA43057FF4EBAE12E780F0004053
:1018A00002E000BF81F0004142001FBF5FEA410338
:1018B00092EA030F7FEA226C7FEA236C6AD04FEA38
:1018C0001262D2EB1363C1BFD2184140484041407D
:1018D000B8BF5B42192B88BF704710F0004F40F42F
:1018E000000020F07F4018BF404211F0004F41F44B
:1018F000000121F07F4118BF494292EA030F3FD017
:10190000A2F1010241FA03FC10EB0C00C3F1200329
:1019100001FA03F100F0004302D5494260EB4000B8
:10192000B0F5000F13D3B0F1807F06D340084FEA23
:10193000310102F10102FE2A51D2B1F1004F40EB18
:10194000C25008BF20F0010040EA03007047490080
:1019500040EB0000013A28BFB0F5000FEDD2B0FA1D
:1019600080FCACF1080CB2EB0C0200FA0CF0AABF40
:1019700000EBC25052421843BCBFD04018437047DE
:1019800092F0000F81F4000106BF80F400000132E4
:10199000013BB5E74FEA41037FEA226C18BF7FEABB
:1019A000236C21D092EA030F04D092F0000F08BFFD
:1019B0000846704790EA010F1CBF0020704712F0E4
:1019C0007F4F04D1400028BF40F00040704712F123
:1019D00000723CBF00F50000704700F0004343F088
:1019E000FE4040F4000070477FEA226216BF0846BE
:1019F0007FEA23630146420206BF5FEA412390EA81
:101A0000010F40F4800070474FF0000304E000BF76
:101A100010F0004348BF40425FEA000C08BF704727
:101A200043F0964301464FF000001CE050EA0102EB
:101A300008BF70474FF000030AE000BF50EA010200
:101A400008BF704711F0004302D5404261EB4101ED
:101A50005FEA010C02BF84460146002043F0B64312
:101A600008BFA3F18053A3F50003BCFA8CF2083A37
:101A7000A3EBC25310DB01FA02FC634400FA02FC40
:101A8000C2F12002BCF1004F20FA02F243EB020047
:101A900008BF20F00100704702F1200201FA02FCA9
:101AA000C2F1200250EA4C0021FA02F243EB02009C
:101AB00008BF20EADC7070474FF0FF0C1CEAD052E0
:101AC0001EBF1CEAD15392EA0C0F93EA0C0F6FD0A1
:101AD0001A4480EA010C400218BF5FEA41211ED07F
:101AE0004FF0006343EA501043EA5111A0FB01316B
:101AF0000CF00040B1F5000F3EBF490041EAD37140
:101B00005B0040EA010062F17F02FD2A1DD8B3F1BB
:101B1000004F40EBC25008BF20F00100704790F02A
:101B2000000F0CF0004C08BF49024CEA502040EA7C
:101B300051207F3AC2BFD2F1FF0340EAC250704742
:101B400040F400004FF00003013A5DDC12F1190F80
:101B5000DCBF00F000407047C2F10002410021FAF2
:101B600002F1C2F1200200FA02FC5FEA310040F10A
:101B7000000053EA4C0308BF20EADC70704792F083
:101B8000000F00F0004C02BF400010F4000F013ABB
:101B9000F9D040EA0C0093F0000F01F0004C02BFB6
:101BA000490011F4000F013BF9D041EA0C018FE725
:101BB0000CEAD15392EA0C0F18BF93EA0C0F0AD02B
:101BC00030F0004C18BF31F0004CD8D180EA010051
:101BD00000F00040704790F0000F17BF90F0004FEA
:101BE000084691F0000F91F0004F14D092EA0C0FCC
:101BF00001D142020FD193EA0C0F03D14B0218BF5F
:101C0000084608D180EA010000F0004040F0FE40A4
:101C100040F40000704740F0FE4040F44000704740
:101C20004FF0FF0C1CEAD0521EBF1CEAD15392EABF
:101C30000C0F93EA0C0F69D0A2EB030280EA010CAF
:101C400049024FEA402037D04FF0805343EA111148
:101C500043EA10130CF000408B4238BF5B0042F1A6
:101C60007D024FF4000C8B4224BF5B1A40EA0C004B
:101C7000B3EB510F24BFA3EB510340EA5C00B3EB7D
:101C8000910F24BFA3EB910340EA9C00B3EBD10F6B
:101C900024BFA3EBD10340EADC001B0118BF5FEABD
:101CA0001C1CE0D1FD2A3FF650AF8B4240EBC250E6
:101CB00008BF20F0010070470CF0004C4CEA5020A7
:101CC0007F32C2BFD2F1FF0340EAC250704740F4F6
:101CD00000004FF00003013A37E792F0000F00F0E8
:101CE000004C02BF400010F4000F013AF9D040EA66
:101CF0000C0093F0000F01F0004C02BF490011F4FA
:101D0000000F013BF9D041EA0C0195E70CEAD153F1
:101D100092EA0C0F08D142027FF47DAF93EA0C0FD8
:101D20007FF470AF084676E793EA0C0F04D14B02BC
:101D30003FF44CAF08466EE730F0004C18BF31F06E
:101D4000004CCAD130F000427FF45CAF31F0004368
:101D50007FF43CAF5FE700BF4FF0FF3C06E000BF01
:101D60004FF0010C02E000BF4FF0010C4DF804CD24
:101D70004FEA40024FEA41037FEA226C18BF7FEA34
:101D8000236C11D001B052EA530C18BF90EA010F36
:101D900058BFB2EB030088BFC81738BF6FEAE170C5
:101DA00018BF40F0010070477FEA226C02D15FEA61
:101DB000402C05D17FEA236CE4D15FEA412CE1D0CD
:101DC0005DF8040B704700BF844608466146FFE794
:101DD0000FB5FFF7C9FF002848BF10F1000F0FBD76
:101DE0004DF808EDFFF7F4FF0CBF012000205DF86F
:101DF00008FB00BF4DF808EDFFF7EAFF34BF0120F4
:101E000000205DF808FB00BF4DF808EDFFF7E0FF8C
:101E100094BF012000205DF808FB00BF4DF808EDDD
:101E2000FFF7D2FF94BF012000205DF808FB00BF40
:101E30004DF808EDFFF7C8FF34BF012000205DF822
:101E400008FB00BF7BB972B90029BEBF00204FF06C
:101E5000004106E008BF00281CBF6FF000414FF0B2
:101E6000FF3000F077B8ADF1080C6DE904CE002921
:101E700009DB002B1ADB00F0ACF8DDF804E0DDE94B
:101E8000022304B07047404261EB4101002B1BDB91
:101E900000F09FF8DDF804E0DDE9022304B04042E1
:101EA00061EB4101524263EB43037047524263EBE3
:101EB000430300F08EF8DDF804E0DDE9022304B00E
:101EC000404261EB41017047524263EB430300F033
:101ED00080F8DDF804E0DDE9022304B0524263EB50
:101EE0004303704753B94AB9002908BF00281CBFF3
:101EF0004FF0FF314FF0FF3000F02CB8ADF1080C7F
:101F00006DE904CE00F065F8DDF804E0DDE90223B8
:101F100004B07047D0B5FFF757FA0C4B00220646C5
:101F20000F46FFF7A9FA00F017F80446FFF72AFA60
:101F3000074B0022FFF7A0FA02460B46304639460F
:101F4000FFF7E2F800F008F82146D0BD0000F03DB0
:101F50000000F041704700BF4A0011D212F5001294
:101F600011D20DD56FF47873B3EB62520ED44FEAF1
:101F7000C12343F0004343EA505323FA02F0704771
:101F80004FF00000704750EA013002D14FF0FF30AF
:101F900070474FF00000704710F8012B11F8013B1B
:101FA000012A28BF9A42F7D0D01A704710B50021F5
:101FB0000446FFF71FFF20B92046BDE81040FFF799
:101FC000A9BF04F10040FFF7A5FF404261EB4101CA
:101FD00010BD2DE9F0478C468E46089E15460446F6
:101FE0001946002B40F0D080724547D9B2FA82F7EB
:101FF0004FB1C7F120030EFA07FC20FA03F3BD40EE
:1020000043EA0C0CBC404FEA154EA8B2BCFBFEF8EC
:10201000230C0EFB18CC08FB00F943EA0C4399454E
:1020200028D9EB1808F1FF3204D2994502D9A8F15A
:1020300002022B44A3EB0903A4B2B3FBFEFC0EFB8C
:102040001C330CFB00F044EA0344A04214D92C19C1
:102050000CF1FF3304D2A04202D9ACF102032C44AC
:10206000241A43EA02401EB1FC400023346073602E
:10207000BDE8F0874246DDE76346F1E7002A79D004
:10208000B2FA82F3002B3FD01946C1F1200302FAC5
:1020900001F52EFA03F20EFA01FE20FA03F343EAE9
:1020A0000E034FEA154E00FA01F4B2FBFEFCAFB28C
:1020B0000EFB1C201A0C0CFB07F842EA004290456C
:1020C0005AD9AA180CF1FF3004D2904502D9ACF1CC
:1020D00002002A44A2EB08029BB2B2FBFEFC0EFBFC
:1020E0001C220CFB07F743EA02439F4246D9EB1838
:1020F0000CF1FF3204D29F4202D9ACF102022B4410
:10210000DB1B42EA004202E0AEEB020301224FEA8F
:10211000154EAFB2B3FBFEFC200C0EFB1C330CFBC8
:1021200007F840EA034398452AD9EB180CF1FF3031
:1021300004D2984502D9ACF102002B44A3EB08036A
:10214000A4B2B3FBFEFC0EFB1C330CFB07F744EA06
:102150000344A74216D92C190CF1FF3304D2A7422D
:1021600002D9ACF102032C44E41B43EA00400F46C1
:10217000114678E71F2188E76046ABE76246BFE774
:102180006046DBE76346EFE7734506D916B90021E1
:1021900008466DE7C6E9000EF9E7B3FA83F787B999
:1021A000734501D3824207D8841A6EEB03030120E2
:1021B0009C461EB900215BE73846FAE7C6E9004CA9
:1021C000F8E7C7F1200CBB4022FA0CF51D4320FABA
:1021D0000CF12EFA0CF30EFA07FE41EA0E014FEA5B
:1021E000154900FA07F4B3FBF9F81FFA85FE09FB5D
:1021F00018300B0C08FB0EFA43EA00439A4502FA2A
:1022000007F240D9EB1808F1FF3004D29A4502D901
:10221000A8F102002B44A3EB0A0389B2B3FBF9F83F
:1022200009FB183308FB0EFE41EA03418E452CD909
:10223000691808F1FF3304D28E4502D9A8F10203D0
:10224000294443EA0040A0FB0298A1EB0E0141455E
:10225000CE46434602D306D14C4504D2B9EB020E1A
:1022600068EB05030138002EA4D0B4EB0E0261EB3D
:10227000030101FA0CFC22FA07F34CEA0303F940CC
:10228000C6E9003196E74046C5E74346D9E7000076
:1022900070B5144606460846FFF7BAFB2146FFF71D
:1022A0000BFCFFF783FE0E4D80FB05450AA3D3E927
:1022B000002320462946FFF7C5FD0A4A3060002367
:1022C00020462946FFF7BEFD064A0023FFF7BAFD68
:1022D000726070BDAFF300800010A5D4E80000006C
:1022E0003AA3950040420F0070B5144606460846D2
:1022F000FFF78EFB2146FFF7DFFB1349134DFFF776
:102300008FFCFFF753FE80FB05450BA3D3E90023A9
:1023100020462946FFF796FD09A3D3E90023306044
:1023200029462046FFF78EFD094A0023FFF78AFD64
:10233000726070BDAFF3008000209BF35E10000060
:1023400080A812010000000000002041D8EF2F00FB
:1023500040420F0000000000032970B504460D46FE
:1023600004D007294DD06FF0850025E0B2B3072ACD
:10237000F9D158681A68564BC117C2FB03010128EE
:1023800071F100033ADB534BC01841F100014CA33B
:10239000D3E90023FFF756FD022826690DD0102847
:1023A0000DD004280DD0082828D1294620460EF04B
:1023B000CCFF40B16FF0040070BD0025F5E70125AA
:1023C000F3E70225F1E7444B33F815103D2081FB7C
:1023D0000001FFF733FBF0600020EDE719883F4B69
:1023E00033F8020B814206D1D1B2204605F088FEB7
:1023F0000028F1D0DEE701320C2AF1D16FF0150090
:10240000DAE7002A4BD0072AADD15A681D68304858
:10241000D11713460A46C5FB0032B425A3FB0501BC
:10242000012B05FB021172F1000228DB2C4BC018B6
:1024300025A3D3E9002341F10001FFF703FDFA28AA
:10244000266924D0B0F5FA7F23D0B0F57A7F22D068
:10245000B0F5FA6F21D07D28D0D104252946204639
:102460000EF083FF0028A5D11E4B33F8151041F262
:10247000171081FB0001FFF7E1FAF061ACE71A4B9E
:10248000C01861F1000110A3D3E90023D5E70025AE
:10249000E4E70125E2E70225E0E70325DEE7198806
:1024A0000E4B33F8020B814204D1D1B2204605F025
:1024B0000FFE9DE701320C2AF3D19FE7AFF30080B6
:1024C0003AA3950000000000D8EF2F0000000000A4
:1024D00040420F009DD14A003C27010044270100E3
:1024E000ECF71700322701001408E8FF2DE9F04F40
:1024F000894DDFF828920FCDE7B00DF1540844461E
:102500000FC42B68864823600DF065F9854C0025C3
:10251000012654F8060C0FF031FB20B982482946F9
:102520000DF059F915E054F8063C4B4502D07F48B0
:102530002946F5E714F8013C7BB1D9F8083021466B
:102540001B6848469847021E0ADA794829460DF06A
:1025500042F9002067B0BDE8F08F6FF08502F4E724
:1025600014F8023CD8F8042006FA03F301351343AB
:10257000062DC8F8043004F11404CAD16D480DF0DA
:102580002AF900246823CDE926346B4F38460FF032
:10259000F5FA18B969480DF01EF9DAE7BD682E683A
:1025A00046B1032126AB22463846B047011E04DA65
:1025B0006348B5E76FF05701FAE72D6845B1072189
:1025C00026AB22463846A847011E04DA5D48A7E735
:1025D0006FF05701FAE75C4868210DF0FCF84FF402
:1025E000803000210CF04FFF0FF019FC4FF47A728D
:1025F000A0FB020302FB0133C00B40EA4343534CF0
:1026000013930FF00CFC05468A46D9F8083043486E
:102610005B6841469847011E08DA4D480DF0DBF82B
:102620004FF4A47000210CF02EFFEAE7D7F808B0B1
:102630004148DBF80C304C219847011E01DA45482F
:10264000ECE71AAE0321DBF810303B4832469847DE
:10265000011E01DA4048E1E7072120AADBF810302B
:1026600035489847011E20AA01DA3C48D6E74FF4C6
:102670007A73A5FB0351506903FB0A11EB0B43EA84
:1026800041431169C517C1FB0405CDE91005D068A8
:102690009168C517C1FB0405CDE90E0551681268A4
:1026A000C817C2FB0410CDE90C1072693169D0174C
:1026B000C1FB0420CDE90A20F268B168D017C1FB44
:1026C0000420CDE9082072683068D117C0FB0421CE
:1026D000CDE90621224AB2F90A100591B2F9081093
:1026E0000491B2F906100391B2F904100291B2F903
:1026F00002100191B2F900200092139A4FF48071F8
:102700009B1A26A8174A0CF04FFCFF2888D91648B8
:102710000DF061F884E700BF502401004C21010056
:102720005C2701007E24010082270100AA27010006
:10273000D627010004280100BC2101002228010045
:102740003B280100632801008728010040420F0058
:10275000A1280100C5280100F12801001F2901005E
:1027600098130020492901007D2901002DE9F04737
:1027700014464A4202EA010931EA020203461AD02B
:102780004A46042A4F4628BF0422A1EB090909F151
:10279000FF3A1AEA090F18D03549364A364840F24E
:1027A000E9130DF02EF835480DF02BF8314840F2C2
:1027B000E9110DF01DF8042904D82146BDE8F047C1
:1027C0000CF0D7BF00270422E1E71CB900252846FA
:1027D000BDE8F0871E68A9EB020204F0070302F0CF
:1027E00007010B330B44E10801EBD20101EBD301EC
:1027F000B368994228BF194630460CF0DEFE804689
:102800000028E3D03D1D05EBC00535445544B5FB1C
:10281000F9F509FB05F5ED1B2C442B1F07349B1B19
:1028200024F00704A41BB0EBD30F4FEAD3074FEA01
:10283000E40408D201463A4630460CF013FF414604
:1028400030460CF064FE394630460CF023FEA042C0
:1028500007D9304622460CF005FF214630460CF0E1
:1028600056FE06EBC706738843F001037380AEE79C
:10287000D5290100B2290100F02901000D2A01002B
:10288000B2F5802F2DE9F8430ED33E493E4A3F482A
:102890004FF437730CF0B5FF3D480CF0B2FF4FF426
:1028A000377139480CF0A4FF042A0CD83949364A4C
:1028B000364840F2E3230CF0A4FF37480CF0A1FFA8
:1028C00040F2E321EDE7043ACD1D114425F0070560
:1028D00021F00706A6EB0508B8F1170F4FEAD80755
:1028E0000CD82E49284A29484FF43B730CF089FF35
:1028F00029480CF086FF4FF43B71D2E7B7FA87F412
:10290000C4F12002C4F12404A4000734E408631CC9
:102910004FF00009BB420560AF60C5F80C900CD9C0
:102920001F49194A194840F202330CF06AFF1A484D
:102930000CF067FF40F20231B3E74946920005F11F
:1029400010000FF0FFFAA2B2530043F001036B80B6
:102950003B1B9BB205EBC4015800A5F800904880D2
:1029600025F83420A6F8029025F8083005EBC703B7
:1029700021465A8842F001025A802846BDE8F843B1
:102980000CF0C5BD2A2A0100B2290100F02901007E
:10299000402A0100572A0100782A0100912A0100EB
:1029A000BA2A0100014B1B68184700BFD000002065
:1029B00030B5044685B00D461022002168460FF060
:1029C000C1FA02238DF802302A46044B01932146B6
:1029D00068460CF013FB05B030BD00BFA529000010
:1029E00080B505460E46174698460BF03DF803465F
:1029F00001F06EF9DFF83C90044649F80030424699
:102A000039463046A8470C4B1B7873B90B490C4A22
:102A10000C4840F246330CF0F4FE0B480CF0F1FE8B
:102A2000074840F246310CF0E3FE54F8090001F08B
:102A3000F1F800BF08000000B7130020102B0100C0
:102A4000E52A0100F0290100232B01002DE9F84FB0
:102A500005460846AB8B1907904616D501280CBFD2
:102A600043F0100343F02003AB83143528460BF0EA
:102A7000F3FA002840F0B181AE49AF4AAF484FF4B5
:102A800099730CF0BEFE29469DE0022803F0070171
:102A900040F07D8128460CF0DCFE052800F2FA802B
:102AA00001A353F820F000BF6B2A00008F2D000017
:102AB000952C0000392B0000D32B0000332C000094
:102AC00002F00702531F012B1AD80023062A2E6892
:102AD000A4B2C5E9003309D1334603E0EA8B0132E1
:102AE000EA831B68002BF9D144F00204AC8328462A
:102AF0000CF0AFFE002800F05A8144F0200455E1AC
:102B0000042A0DD1A4B2AC8328460CF0A2FE0646DE
:102B1000002800F04C8144F02004AC83002646E1FC
:102B20008749884A854840F21B130CF06AFE40F240
:102B30001B1184480CF05CFE49B18349814A7F48EF
:102B40004FF4AB730CF05DFE4FF4AB71F1E72B6803
:102B50004BB97E497B4A794840F257130CF051FE3D
:102B600040F25711E5E72B691F684FB97849754A5C
:102B700072484FF4AD730CF044FE4FF4AD71D8E7DA
:102B8000AC8B24F0070444F00604A4B2AC830E46D8
:102B90008A464FF00609AB68002B00F00F814FF01A
:102BA000010B44F00804AC8305F1140420460BF03B
:102BB00053FA002878D15F495F4A60484FF499730F
:102BC0000CF01FFE214663480CF01BFE4FF4997178
:102BD0008EE0022909D060495A4A584840F25D13F4
:102BE0000CF00FFE40F25D11A3E7EE8B4EB15B4996
:102BF000544A52484FF4AF730CF003FE4FF4AF71D8
:102C000097E72B695F684FB951494E4A4B4840F2EC
:102C100061130CF0F6FD40F261118AE7AC8B24F0F1
:102C2000070444F00404A4B2AC83B2464FF0040994
:102C3000B1E7012909D04A49424A40484FF4B273EA
:102C40000CF0DFFD4FF4B27173E72B684BB93F49CD
:102C50003C4A3A4840F265130CF0D3FD40F265114E
:102C600067E72B699F684FB93949364A33484FF4B3
:102C7000B4730CF0C6FD4FF4B4715AE7AC8B24F07A
:102C8000070444F00504A4B20026AC83B2464FF01A
:102C9000050980E72A492B4A284840F26B130CF0BB
:102CA000B0FD40F26B1144E788F31188BFF36F8FDA
:102CB000BBF1000F1ED1002E33D117B12949284690
:102CC000B847EFF31188202383F31288BFF36F8F87
:102CD00020460BF0B3F900284AD1174A2249174879
:102CE00084230CF08EFD214620480CF08AFD8421BF
:102CF00011481FE7A9680029DDD0D1F8008000291C
:102D0000D9D0D1F804B053464A462846D847B8F13E
:102D1000000F04D0D8F8003041469846EFE743460C
:102D2000FAE7314653464A46284636680CF0BDFD60
:102D3000C1E700BF182C0100EB2B0100F0290100B6
:102D400085480100452B01006A2B0100762B01000C
:102D5000992B01002F2C0100B02B0100C62B010084
:102D6000D52B0100E92D0000442C0100592C010055
:102D700020460BF087F9AC8B24F00804A4B2AC8396
:102D8000E20621D524F01003AB8304F00701D5F847
:102D900018A0AA8BBAF1000F22F00704BFF690AE7C
:102DA00000232E68C5E9003344F00104AC8304F02D
:102DB000070989454FF000077FF4EDAE0EB9002FEB
:102DC000DED04FF0000BECE6A3067FF54EAE24F00C
:102DD0002003AB8304F007015CE688F31188BFF39E
:102DE0006F8FBDE8F88F00BFF8B504460D4600F1BF
:102DF0001406EFF31187202383F31288BFF36F8F3C
:102E000030460BF01BF968B90C4A0D490D48842374
:102E10000CF0F7FC0C4831460CF0F3FC0748842119
:102E20000CF0E6FC30460BF02DF9A5613A46204641
:102E30000121BDE8F840FFF709BE00BFEB2B010000
:102E4000442C0100F0290100592C01002DE9F04724
:102E500004460E460CF019FD051E66DB04F114094C
:102E6000EFF3118A202383F31288BFF36F8F484654
:102E70000BF0E4F8804660B9374A38493848842373
:102E80000CF0BFFC494637480CF0BBFC84213248AB
:102E900043E048460BF0F6F8E38BA78B4FF6FF7242
:102EA000934207F0070743D0062F2CD8DFE807F03E
:102EB0001F43092B1F041F006FF085054FF000080A
:102EC00002E00133E383022548460BF0C5F80028F1
:102ED00034D1214A244922484FF499730CF091FCD3
:102EE000494622480CF08DFC4FF49971CFE700233E
:102EF0003360636823B9C4E9006687B13D46DDE706
:102F00001E606660F9E71A4915481A4A4FF4E473DF
:102F10000CF077FC17484FF4E4710CF069FC524652
:102F200002212046FFF792FD3D462846BDE8F08786
:102F30006FF00A05C2E76FF00405BFE78AF3118856
:102F4000BFF36F8FB8F1000FEFD000233A46314640
:102F500020460CF0AAFCE8E7EB2B0100442C010012
:102F6000F0290100592C0100182C01002F2C010020
:102F7000D52B0100452B0100F8B5054600F11406DC
:102F8000EFF31187202383F31288BFF36F8F30464E
:102F90000BF054F860B9264A2649274884230CF0E0
:102FA00030FC314625480CF02CFC842120482BE0D5
:102FB00030460BF067F8AC8B04F00704022C17D0F6
:102FC000012C0CBF6FF004046FF0850430460BF049
:102FD00043F838BB164A1A4917484FF499730CF056
:102FE00010FC314617480CF00CFC4FF49971DDE7EA
:102FF000EB8B5BB914491048144A40F2EF130CF004
:1030000000FC124840F2EF110CF0F2FB013B9BB2C6
:10301000EB83002BDAD13A4621462846FFF716FD0E
:103020002046F8BD87F31188BFF36F8FF8E700BF24
:10303000EB2B0100442C0100F0290100592C010068
:10304000182C01002F2C01006F2C0100452B0100D2
:103050002DE9F0410F460546002850D000294ED0FA
:1030600000F11406EFF31188202383F31288BFF3D5
:103070006F8F30460AF0E2FF60B9224A22492348A6
:1030800084230CF0BEFB314621480CF0BAFB8421AE
:103090001C4817E030460AF0F5FF39462846AC8B4D
:1030A0000CF0BCFB80B104F00704231F022B0DD9E8
:1030B00018491648184A40F22D230CF0A2FB164876
:1030C00040F22D210CF094FB6FF0770430460AF0AB
:1030D000C3FF68B90B4A11490C484FF499730CF0BF
:1030E00090FB31460E480CF08CFB4FF49971CFE702
:1030F00088F31188BFF36F8F2046BDE8F0816FF031
:103100001504F9E7EB2B0100442C0100F029010024
:10311000592C01007D2C0100452B0100182C0100C9
:103120002F2C010008B54268816002F00302032AD7
:1031300003460AD06AB908490848094A45230CF0F1
:1031400060FB074845210CF053FB006800225A60E1
:1031500008BD0020FAE700BF85480100F029010002
:10316000F42C0100014B036000207047F0240100A3
:1031700007B51B491B480CF03EFD70BB1A491948A6
:103180000CF039FD48BB194916480CF034FD20BB42
:10319000174914480CF02FFDF8B90146154A11489B
:1031A0000DF010F8C8B9024613490E4801230DF07E
:1031B000DAF890B901230093014602230948EF226F
:1031C0000CF022FC48B907480CF048FC28B9054827
:1031D00003B05DF804EB0CF071BC03B05DF804FBC8
:1031E000480100205805002030010020180100206F
:1031F00000010020D40000201A2D010008B5054868
:103200000CF0E9FA04480CF0E6FA04480CF0E3FA92
:10321000002008BD332D0100672D01009A2D01000B
:1032200001480BF061BD00BFF024010038B5044631
:1032300018B90F4B0F485B6898476168B1F5683F54
:1032400010D0B1F5680F0DD00B4DA9420AD011F482
:103250006861206807D00146084808F0BFF80023DD
:103260002360656038BD14220EF06CFEF9E700BFE4
:1032700050030020C72D01002C5F5CA9900E002098
:1032800008B520B34368B3F5683F10D10122036845
:10329000BFF35B8F53E8001F002903D143E80020F0
:1032A0000028F7D1BFF35B8F0DD1002008BD094A7C
:1032B00093420AD000684FF0FF324FF0FF3308F01E
:1032C0005FFB0028F1D00448F0E70448EEE76FF414
:1032D000E040EBE72C5F5CA9E98FFFFFEA8FFFFF7F
:1032E00008B5D8B14368B3F5683F10D10022036830
:1032F000BFF35B8F53E8001F012903D143E800208F
:103300000028F7D1BFF35B8F0BD1002008BD074A1F
:10331000934208D0006808F0FBFBF6E76FF4E0404A
:10332000F4E70348F2E70348F0E700BF2C5F5CA92D
:10333000E98FFFFFEA8FFFFF10B5044618B91D4B58
:103340001D485B6898476368B3F5683F2FD0B3F5B5
:10335000680F2CD0194A934219D1236803BB18482F
:103360004FF0FF324FF0FF33214607F0ABFF08B9B3
:1033700023681BB90F4B13485B68984720681422D9
:1033800000210EF0DFFD4FF46863636008E0B3F5E1
:10339000680F0DD83A2B03D040F6BA629342DED1C3
:1033A00020680EF04AFC636843F03A03636010BD86
:1033B000054AF3E750030020C72D01002C5F5CA9EC
:1033C000900E0020ED2D01003A00003A08B50649A4
:1033D0000648402314220EF013FCBDE808400449BF
:1033E00004480BF0F3BC00BF90090020900E0020B1
:1033F000F82401000C25010008B50348034A002108
:10340000121A0CF08EFA08BDD8050020BC1300205B
:103410000748084A084908B5121A0CF084FA074808
:10342000074A0849BDE80840121A0CF07CBA00BFF0
:1034300000000020D8050020BC540100000000203E
:1034400000000020BC54010038B505460C4699B177
:10345000D1E901230F4809680CF0BDF9D4E9042330
:10346000E1680D480CF0B7F9E1690C480CF0B3F9CC
:10347000A1690B480CF0AFF9012D05D1EFF30581DF
:10348000084810390CF0A7F921462846BDE8384015
:1034900007F02ABC1A2E01004A2E01007A2E0100E4
:1034A0008A2E0100B92E010030BFFFF7FDBF00BF1B
:1034B0002DE9F0410B4EDFF8308006EB0807CC1BFE
:1034C00005463246094920460EF02EFDA019424617
:1034D0000021083C0EF036FDAC6707F10800BDE89E
:1034E000F08100BF00000000080000004824010037
:1034F00010B51D4C1D480CF06EF9A36A990130D52A
:103500001B480CF068F91E20A36ADA0103D519489C
:103510000CF061F91F20144CA36A1B0303D5164855
:103520000CF059F92120A36A590303D513480CF074
:1035300052F922200C4CA36A9A0303D510480CF0D0
:103540004AF92320A36ADB0303D50E480CF043F9A4
:103550002420054A936A6FEA03436FEA1343936298
:1035600010BD1D20D0E700BF00ED00E0CD2E010012
:10357000E62E0100FA2E0100152F0100342F010064
:103580005A2F0100752F010070B5244C06462448BF
:103590000D460CF020F9A36AD90435D521480CF06A
:1035A0001AF91720A36A1A0503D51F480CF013F95E
:1035B00018201A4CA36A9B050FD51C480CF00BF978
:1035C000A16BA36A180407D519480CF004F91EB1C1
:1035D000A36A23F40043A3621920104CA36A59057F
:1035E00003D514480CF0F7F81A20A36ADA050DD5B4
:1035F00011480CF0F0F81B20084A936A43F47F430B
:10360000936200232B7070BD1620CBE7A36A9B0446
:10361000F2D50A480CF0DFF81C20EDE700ED00E0E1
:10362000A12F0100B82F0100CA2F0100DE2F0100D9
:10363000F82F01000E3001002A3001004330010054
:1036400070B5304C064630480D460CF0C4F8A36AFD
:10365000D90646D52D480CF0BEF81120A36A1A07EA
:1036600003D52B480CF0B7F81220264CA36A9B0711
:103670000FD528480CF0AFF8616BA36A180607D580
:1036800025480CF0A8F81EB1A36A23F08003A362BA
:1036900013201C4CA36ADA0703D520480CF09BF8D2
:1036A0001420A36A9B0603D51D480CF094F815203E
:1036B000144B9A6AD60602D49A6A940713D59B6A69
:1036C000D90610D51749184A184840F22D130CF0A6
:1036D00098F817480CF095F8134840F22D110CF0AB
:1036E00087F81020BAE7074B9A6A920642BF5A6AD7
:1036F00022F400525A629A6A42F0FF029A62002350
:103700002B7070BD00ED00E0733001008A300100C5
:10371000CA2F0100BE300100D7300100EE30010099
:1037200043300100403101000E310100F029010059
:103730008A310100F0B5704B044658688BB0C0F375
:103740000803002585F31188BFF36F8F02F07F46D1
:10375000B6F17F4F06D102F00C06082E11D1674852
:103760000CF039F86649674A674840F21B430CF091
:1037700048F866480CF045F840F21B4161480CF0EF
:1037800037F816074CBF0C460125002CEAD000265E
:10379000DA1E8DF80760092A00F29F80DFE802F048
:1037A000059397769D9D9D9D9D9B59480CF013F820
:1037B0008DF80760504EF36A9A0704D555480CF00F
:1037C0000AF800232AE0F36A002B01DA5248F6E7F0
:1037D000F36A5B006AD551480BF0FDFF7369A2697B
:1037E00043F480737361BFF34F8FBFF36F8F32F871
:1037F000023C726922F480727261BFF34F8FBFF393
:103800006F8F03F47F42B2F55F4F26D1DBB2022BFC
:1038100023D1216842480BF0DEFF23689DF8072082
:10382000CAB902AE04F1200720686168324603C2BB
:103830000834BC421646F7D1099A002D59D0C2F37C
:10384000080121B96FEA52226FEA4222099202A9C5
:103850001846FFF7F9FD0BB0F0BD274B9A6AD2B2BC
:1038600032B10DF107010120FFF7EAFE0346D5E76B
:103870009A6A12F47F4F05D00DF107010120FFF77E
:1038800083FEF3E79B6AB3F5803F02D3FFF730FE78
:10389000ECE724491B4A1C4840F2ED230BF0B1FF32
:1038A00021480BF0AEFF40F2ED2167E71D49154AB4
:1038B00015484FF43C730BF0A4FF1C480BF0A1FF1C
:1038C0004FF43C715AE70DF107010020CCE70DF1F0
:1038D00007010020D3E7164871E7A3F11002154B4A
:1038E000154910F4F87F08BF194614480BF073FF10
:1038F00067E76FF30802A9E700ED00E01C32010062
:10390000483201000E310100F02901005B32010054
:1039100099320100B1320100D3320100E2320100DC
:1039200002330100854801001F33010043330100C9
:1039300073330100EE3101000332010098330100BE
:10394000044B5A6942F010025A615A6922F0080287
:103950005A61704700ED00E0EFF30880EFF3098152
:1039600001B57246FFF7E6FE01BD00BF002080F3FF
:103970001488BFF36F8F0F4880F3088804F080FF2E
:1039800000200D490860BFF34F8F00F02BF8202076
:1039900080F3118809484FF40061401880F30988CA
:1039A000EFF314800221084380F31488BFF36F8F74
:1039B00000F0CEF80027002094ED00E0C0190020B0
:1039C0000749D1F890200023C2F3072218469342FA
:1039D00000DB7047C1F89830C1F8A0000133F6E76A
:1039E00000ED00E008B572B6002383F31388FFF7FB
:1039F000E7FF144B4FF0FF32C3F88020C3F8842058
:103A0000C3F88820C3F88C20C3F89020C3F8942012
:103A1000C3F89820C3F89C20C3F88021C3F8842100
:103A2000C3F88821C3F88C21C3F89021C3F89421EE
:103A3000C3F89821C3F89C2162B6BFF34F8FBFF340
:103A40006F8F08BD00E100E01EF0040F0CBFEFF324
:103A50000880EFF30980816911F8021C0229FFD068
:103A600001B572460BF061FF01BD00BF40B20028F6
:103A700007DB044A4109012300F01F00834042F89C
:103A80002130704700E100E040B200280CDB430920
:103A9000064900F01F0020330122824041F8232014
:103AA000BFF34F8FBFF36F8F704700BF00E100E09F
:103AB000054B420900F01F0053F82220012303FAAE
:103AC00000F01040704700BF00E100E038B54B1C2B
:103AD000072B04460D460FD9114A124912486B2391
:103AE0000BF08FFE11482946072322460BF089FE72
:103AF0000B486B210BF07CFE40B20028ACBF00F1FC
:103B000060400B4A4FEA4313B8BF00F00F00DBB22E
:103B1000AABF00F56140135480F8003338BD00BFE0
:103B2000AC330100E3330100F0290100FE33010052
:103B300014ED00E0044B054A23F07F039360BFF3CC
:103B40004F8FBFF36F8F70470010000000ED00E053
:103B500008B5FFF7EFFF074AD2F8883023F4700367
:103B6000C2F88830FFF748FCFFF752FC00F092F8EB
:103B700007F0B8F900ED00E042F8203C009B42F865
:103B80001C3C0A49019B42F8183C029B42F8143C39
:103B900021F001014FF0807342F8043C42F8081C08
:103BA0000023203A0265C367704700BFE129000087
:103BB00000B50B4B98600B4B1546826F1A600E4692
:103BC0002C4686F309880020034B984720460021A5
:103BD00000220023014C20474FF90000E12900009A
:103BE00028130020B00E0020014B10221A617047EC
:103BF00000ED00E0054B5A699B689A421FBF044ADA
:103C0000536843F080535360704700BF281300206F
:103C100000ED00E0084B9B6883420BD1EFF3058376
:103C200043B1064B5A6842F080525A605A6A22F4F5
:103C300000425A6209F01EBF2813002000ED00E088
:103C400011498A684FF030001044EFF3098C80E886
:103C5000F01F202080F31288BFF36F8F0B4F4FF0BF
:103C600000664A698A603E60906F094C2060D06FA0
:103C70000023D36780F3118802F1300090E8F01F31
:103C80008CF30988704700002813002004ED00E041
:103C9000B00E0020044800232021C2180133302B2D
:103CA00082F80013F9D1704700E100E008B5EFF3A6
:103CB0000583064A103B02EBC30152F83300496802
:103CC0008847BDE80840FFF795BF00BFF421010019
:103CD0000148006870470000B00E0020024B034A04
:103CE0000348012100F066B8000004200000002015
:103CF0001C250100084AC2F898000B6823F01F0336
:103D0000034343F01003C2F89C308B6843F0010377
:103D1000C2F8A030704700BF00ED00E02DE9F0438D
:103D2000DFF8608085B00E461F4604464FF000095C
:103D3000B14523DA6068D8B13FB1411E08421BD1BA
:103D40001F2819D92368194216D1236801930BF053
:103D500021FEA36803430393D8F89050C5F30725C9
:103D6000D0B2013DA84207D801A9FFF7C3FF421C0A
:103D700009F101090C34DBE76FF01502104605B0BC
:103D8000BDE8F08300ED00E0044B0522C3F8942069
:103D9000BFF34F8FBFF36F8F704700BF00ED00E0A0
:103DA000BFF35F8F024B0022C3F89420704700BF1F
:103DB00000ED00E038B50D4D01232A780C46FFF7E1
:103DC000ADFF287016300FD1094A0A490A4840F25F
:103DD00089130BF016FD094821460BF012FD04482B
:103DE00040F289110BF004FD38BD00BFAA1300207A
:103DF0003E34010085480100F02901006D340100C6
:103E00002DE9F04F7F4E804DD6F890302C68C3F3EB
:103E100007239C4285B013D97C4A7D497D4840F2F6
:103E200002230BF0EEFCD6F890207B482146C2F32B
:103E300007220BF0E6FC40F2022174480BF0D8FC9C
:103E4000FFF7AEFF00200C2684422DD1734EDFF821
:103E5000B49134706846FFF785F9714C714D804616
:103E60000027B84527D1337866490020D1F8902043
:103E7000C2F307229342C0F2BA80FFF785FFD1F860
:103E8000903003F47F43B3F5006F00F0B6806649CD
:103E90005E4A604840F27D230BF0B3FC63480BF0B0
:103EA000B0FC40F27D21C8E7696806FB0011FFF70E
:103EB00021FF0130C8E7009A02EB07133901D3F85C
:103EC0000CA00AEA0400B0F5000F69D00AD8B0F5DA
:103ED000001F3DD0B0F5800F55D0B0F5801F15D034
:103EE0000137BEE7B0F1007F65D0B0F1805F6DD0E3
:103EF000B0F1807FF4D19868D3F804A052580BF049
:103F000049FDCDE901A240F088700BE09868D3F834
:103F100004A052580BF03EFDCDE901A240F08850BC
:103F200040F430200390D9F890303078C3F3072361
:103F3000013B984254D93649344A364840F2352339
:103F40000BF05FFC3A480BF05CFC40F2352174E763
:103F50009868D3F804B052580BF01CFD40F088501C
:103F600040F400201AF0010FCDE901B20390DAD03D
:103F70003049264A274884230BF043FC2E480BF097
:103F800040FC842159E79868D3F804A052580BF0FC
:103F900001FD40F0C060CDE901A240F40030C1E76E
:103FA0009868D3F804A052580BF0F4FCCDE901A2B4
:103FB00040F08270B6E79868D3F804A052580BF02E
:103FC000E9FCCDE901A240F48020ABE79868D3F882
:103FD00004A052580BF0DEFCCDE901A22843A1E772
:103FE00001A9FFF787FE33780133337078E7C1F812
:103FF0009830C1F8A000013338E7002005B0BDE8D3
:10400000F08F00BF00ED00E0282501003E340100E4
:1040100085480100F029010099340100AA1300200D
:104020000000F0FF000002114C3501009C3501003A
:1040300022350100CD340100F334010008B50649F2
:10404000064821F00701C1F1005202F58022FEF777
:1040500017FC002008BD00BF873E0020B40E0020E2
:1040600070B54169867A0B4D044659B1437ADB0736
:1040700006D42C2303FB06535B6A1B689B68984796
:10408000002363612C20214600FB0650BDE87040F0
:104090000DF0FABD2C050020024B2C2202FB003053
:1040A000704700BF2C05002008B543684BB1074995
:1040B0000748084A5A230BF0A4FB06485A210BF084
:1040C00097FB03824369C36008BD00BFF13501005F
:1040D000F0290100CC3501002DE9FF47054668466F
:1040E000039117461C460DF09CFEDDE9008955B989
:1040F0005C495D4A5D4840F201130BF082FB40F2DF
:104100000111594818E005F11406EFF3118A202334
:1041100083F31288BFF36F8F304609F08FFF68B9C1
:10412000534A5449514884230BF06BFB31465248A3
:104130000BF067FB84214E480BF05AFB304609F028
:10414000A1FF6B8B002B5AD02A8B9A4239D90022BF
:104150000023284607F08CFE0446002831D0304664
:1041600009F07AFF68B9424A444940484FF49973CC
:104170000BF047FB314642480BF043FB4FF499717B
:10418000D9E78AF31188BFF36F8F039D002D59D0B3
:1041900042464B4668460DF069FEA27A394B2C2107
:1041A00001FB023320465B6A1B6803A91E68DDE938
:1041B0000023B0476061002837D12046FFF750FF49
:1041C0002EE06C8B631E6B83304609F045FF0028A0
:1041D000C9D08AF31188BFF36F8F2B7F2A8B1B33D3
:1041E000121BAC6A23F0030302FB0344254B264A4F
:1041F000EB1A9B105343A3722B7FE372C5E7304643
:1042000009F02AFF0028AED08AF31188BFF36F8F20
:1042100023463A46284607F02BFE04460028B4D130
:104220000024204604B0BDE8F087039B9D420BD9D3
:1042300016490D4A0D484FF4AB730BF0E2FA4FF4F8
:10424000AB715EE765612B4600210122228161602E
:10425000E27A638204F118000DF074FE2046FFF745
:1042600023FFDEE70B360100CC350100F029010009
:10427000EB2B0100442C0100592C0100182C0100EB
:104280002F2C01002C050020A38B2EBA1036010024
:10429000F8B5054698B1194E2C272C466D68237A3F
:1042A000CBB9174A1749184840F2C1130BF0A9FAC5
:1042B000214616480BF0A5FA40F2C11108E0144956
:1042C0000F4A114840F2BB130BF09BFA40F2BB11AE
:1042D0000B480BF08DFA013BDBB2237253B9E3605C
:1042E0006360A37A07FB036320461B6A1BB19847F0
:1042F000002DD2D1F8BDFFF7B3FEF9E72C05002061
:10430000CC3501002A360100F029010033360100C6
:104310002636010008B558B907490848084A4FF43D
:10432000F3730BF06EFA06484FF4F3710BF060FA7A
:10433000027A0132027208BD26360100F02901001E
:10434000CC350100034610B5084659B91649174A3D
:10435000174840F25D230BF054FA40F25D211348F8
:104360000BF046FACBB15A684AB912490F4A1048C5
:104370004FF418730BF045FA4FF41871EFE78A42C7
:1043800009D00D49094A0A4840F261230BF039FA75
:1043900040F26121E3E74A685A60446800234360C1
:1043A000FFF776FF204610BD6E360100CC350100C8
:1043B000F02901004F3601005D36010070B503465B
:1043C00005688288DC889E68A818A41AAD1B641B47
:1043D000A14209D906490748074A3E230BF011FAC2
:1043E00005483E210BF004FA0A449A8070BD00BFD4
:1043F000AE360100F02901007336010008B583884C
:104400008B4209D207490848084AB0230BF0F9F952
:104410000648B0210BF0ECF95B1A9BB28380006870
:10442000184408BDD2360100F0290100733601009E
:1044300008B582888A4203460BD2094909480A4ACC
:1044400040F2C3130BF0DDF9074840F2C3110BF043
:10445000CFF9521A828000680844186008BD00BF76
:10446000D2360100F029010073360100044A01230D
:10447000C2F840354FF080420020C2F878357047CE
:1044800000E0014048B1054B054A1B68B3FBF2F35D
:104490005843044B43F00103184770473C03002086
:1044A00040420F007024010008B50649064A07483B
:1044B00032230BF0A6F906480BF0A3F9024832218B
:1044C0000BF096F985480100E2360100F029010061
:1044D0001A3701002DE9F04190F82C3003F01F034A
:1044E000012B04460F4600F12C062FD0022B18D0CA
:1044F0008BB394F82D1020460BF023FB024678B3C3
:1045000030460BF008FC1D4D002834D113693BB335
:104510003A463146204698470346FFF7D9FB2B50D1
:1045200024E0018EC9B20BF0E4FE05460028E0D07D
:1045300030460BF0F0FB024668688368CAB99B6896
:1045400073B13A463146BDE8F0411847018EC9B211
:104550000BF0BFFEE9E790F82D100BF0EDFEE4E75D
:10456000FFF7B6FB054B6FF085021A500020BDE83F
:10457000F081DB68E4E7D368C9E700BF0C00000006
:104580002DE9F04F044693B016460D4659B9A3499C
:10459000A348A44A40F207330BF033F9A14840F294
:1045A00007310BF025F90B7E33F0800840F0AC8426
:1045B0007AB10846FFF76CFE6B7EDF0703D49E07D7
:1045C00011D52B7E7BB9204613B0BDE8F04F0BF020
:1045D000CEBB4A7E00F12C09900708D5802B0CD168
:1045E0002846FFF755FE404613B0BDE8F08F91070F
:1045F00000F04E84002B40F04B84D2072FD52B8A3D
:10460000082B40F01B84EA681368E3625368C9F81A
:10461000043029460020FFF795FE054610B1FFF74C
:1046200037FEF0E048460BF076FB628E70B9B2B10F
:104630002946A0690CF079FB0146002800F054845B
:10464000204613B0BDE8F04F00F0C8BE3AB11146A5
:1046500020460BF0F5FF0546002800F04584FFF7E3
:1046600037FB94F82C80704F002318F0600FC35173
:10467000C8F3411307D0032B40F0C681FFF728FB96
:104680006FF0850338E048460BF045FB94F82D3079
:10469000002840F05681013B0A2BEFD801A252F8C6
:1046A00023F000BF2D4800007D460000B9480000FF
:1046B0007D460000D14600007D4600007D4600009A
:1046C0007D460000414700007D460000A3470000F2
:1046D000E18D7F29D2D8238E002BCFD1638E002B82
:1046E000CCD118F01F0FC9D194F83430022B05D16A
:1046F000FFF7EEFA4FF0FF333B5076E0A069036915
:1047000093F880301B0707D5C9B20BF066FB8046D3
:1047100028B1002D6CD166E7012384F83D3094F870
:104720003430012B0AD1E38D43B984F83430FFF7DC
:10473000CFFA3B58002B00F08E8056E00123F4E7BF
:1047400020460BF05CF9E28DFF2A014696D8638E75
:10475000002B93D194F82C30D8068FD194F83430B4
:10476000002BC5D02AB1D2B220460BF0D8FC0028CD
:10477000BED0E18D94F83C308B42D8D0C9B22046EF
:104780000BF0D4FC80460028C3D1E28D002A14BF70
:104790000223012384F83430052120460BF084FFE6
:1047A000C5E708F01F08B8F1010F7FF467AF638E0B
:1047B000002B7FF463AFE28DFF2A3FF65FAF218EBF
:1047C000FF293FF65BAF94F83430022B90D1D2B280
:1047D000C9B220460BF0B7FE10F1020F804640F040
:1047E0001881FFF775FA47F8008065B14FF00008AF
:1047F0002846FFF74DFDB8F1000F7FF4F4AEFFF748
:1048000067FA3B583BB348460BF085FA0346A0696C
:10481000002B00F06C83802172E300BF263601007C
:10482000F0290100303701000C000000638E002BDE
:104830007FF424AF94F83430002B3FF459AF012BB0
:10484000218E02D100297FF453AF18F01F080CD03D
:10485000B8F1020F16D0638E002B40F0E2822046A2
:104860000BF06FFA0028CED1ADE600297FF440AFFF
:10487000E38D012BEFD194F8703061F3C30384F81A
:104880007030E8E7B4F82EA0BAF1000FE3D15FFA78
:1048900081F8414620460BF0EDFE0346FFF718FA7B
:1048A0003B50013302D14FF0FF3832E752464146C8
:1048B00020460BF036FA3AE7638E002B7FF4DEAE2B
:1048C000E28D238E022A5FFA83FA11D108F01F08C5
:1048D0005AEA08087FF4D2AEA0690122190A0BF047
:1048E00059FA00287FF4CAAE012384F83D301EE750
:1048F00094F8341000293FF4FBAE012902D1002BBB
:104900007FF4F6AE18F01F0811D0B8F1020FA2D153
:10491000002AA0D1514620460BF097FE0346FFF730
:10492000D7F93B500133BED001225146C0E7002BDE
:104930007FF4DEAE012A8ED194F8703043F0080384
:104940009DE70A2B3FF69AAE01A252F823F000BF72
:104950007D4900007D4600007D4600007D46000048
:104960007D4600007D460000F74900007D460000BE
:104970009F4D00007D460000C94D0000638E022B54
:104980007FF47CAE94F83430002B3FF4B1AE012BB1
:10499000218E02D100297FF4ABAE18F01F0811D090
:1049A000B8F1020F1CD04FF0000805F10C0A504678
:1049B0000BF0A9F9638E984218D2FFF789F96FF0CE
:1049C0000B0399E600297FF493AE94F870304FEA18
:1049D000930808F00208C3F3001348EA0308E4E769
:1049E000C9B220460BF055FE8046DEE741465046F0
:1049F0000AF0F3FF9BE6B4F82EA018F01F0F4FEA61
:104A00001A235FFA8AFA09D029462046FFF762FD89
:104A10008046B8F1000F7FF47CAE88E6013B0E2B98
:104A20003FF62CAE01A252F823F000BF694A000005
:104A3000A94A0000534B00007D4600007D4600005F
:104A40004B4B00004B4B00007D4600007D460000B4
:104A50007D4600007D4600007D4600007D4600004A
:104A60007D460000AD4C000005F10C0840460BF0FF
:104A70004AF983462046B4F832A00AF0C0FF20B1BC
:104A800001287FF4FBADA16F00E0616F002900F009
:104A90003F820A78DA4528BFDA46524528BF524697
:104AA00040460AF087FF42E620460AF0A8FF0AF1D6
:104AB000010201900146D2B220460BF00AFB80466B
:104AC00000283FF4DBAD05F10C0AD0F804B05046E5
:104AD0000BF019F99BF80020824228BF0246594684
:104AE00050460AF067FFD8F80CB0BBF1000F09D1AF
:104AF000298A638E99427FF61AAEC91A5046FFF78B
:104B00007DFC14E6DBF8040083681B6B13B9DBF84B
:104B100000B0EAE7019998470028F8D0A0F104080E
:104B200058F8041F0029F2D00A78002AEFD0504626
:104B3000CDE902210BF0E7F8029A0399904238BFC1
:104B400082B250460AF036FFEAE720460AF057FFE5
:104B500094E55246032120460BF033F883460028A3
:104B60003FF48CAD0BF0CAF8B4F832809BF81530E6
:104B7000C8B99BF814A08DF828A08DF82930DBF86F
:104B8000103005F10C0B1B88ADF82A3058460BF09D
:104B9000BAF8D045424628BF5246824228BF024654
:104BA0000AA958467DE7DBF808208DF81530B04B90
:104BB0001340B04A4FF0000A93428DF814A051D12F
:104BC000102106A80CF06AFA031EFFF657AD0AAAD8
:104BD000102BDFF8A4C206A8934628BF1023534524
:104BE00002F102022DD89B000233DAB28DF81420B4
:104BF00005F10C0A504601920BF085F8019A4245E6
:104C000028BF4246904228BF1046022802468046EE
:104C100028BF022205A9504601920AF0CBFE019A54
:104C2000A8EB02084FEA58020023934221D118F062
:104C3000010F3FF47CAD1BF8031050460AF0C6FE8E
:104C400075E510F8011B4FEA111E01F00F011CF869
:104C50000EE01CF8011002F802EC02F8011C0AF147
:104C6000010ABCE79BF814208DF81420DBF810B083
:104C7000BEE71BF80310A1F120005E280DD97F4983
:104C80007F4A804840F24D230AF0BBFD7E480AF07F
:104C9000B8FD7B4840F24D2183E45046CDE9013216
:104CA0000AF09BFE019B029A0133BEE720460AF000
:104CB000A6FE38B101282CD0FFF70AF86FF0850363
:104CC0003B5034E5636F002B00F022815B88B3F525
:104CD000007FF1D96D4B0A9300238DF82C30236DA2
:104CE00004F1500B9B4508BF0023BDF82A10A3B167
:104CF0005A7D0F2A08D11A7D0A44ADF82A209DF862
:104D00002C2001328DF82C20626D934203D01B6859
:104D1000EBE7A36FD7E7BDF82A10019105F10C0A64
:104D200050460AF0F0FFB4F832800199884528BF58
:104D30008846804528BF80464246052A28BF05226E
:104D40000AA9504601920AF035FE019AB8EB020812
:104D50003FF4EDAC236D5B453FF4E9AC002B3FF431
:104D6000E6AC5A7D0F2A14D11A7D19690193424588
:104D700028BF424650460AF01DFE019B1A7D42455F
:104D800094BFA8EB0208A8EB0808B8F1000F3FF4A5
:104D9000CEAC626D93423FF4CAAC1B68DEE794F878
:104DA0003430002B3FF4A4AC638E012B7FF466AC4F
:104DB00005F10C0840460AF0A6FF00283FF4FDADBF
:104DC00094F83C10404639E708F01F08B8F1010F8D
:104DD0007FF48EAC20460BF090F900283FF488ACAD
:104DE000B4F830A0BAF1FF0F3FF648AC43681B7926
:104DF0005345FFF443AC5FFA8AF30F2B3FF63EAC0A
:104E0000638E012B7FF43AAC05F10C0840460AF0A2
:104E10007AFF00283FF4D1AD04EB0A0393F83E106B
:104E2000D0E748460AF077FF18B92846FFF730FA6E
:104E300015E52946204600F0D1FA10B12846FFF7C3
:104E4000EEBBA069036993F8801011F004017FF4B0
:104E5000BAAB0BF07EFF054600283FF4D4AC014608
:104E6000204600F0BBFA00283FF4ADABE6E700BFF8
:104E700000FF0200000302005A54010099370100AC
:104E800064370100F0290100C6370100050F050055
:104E900052077FF5B8AC002B3FF4A2AB2846FFF7D2
:104EA000F7F994F83D30002B3FF49DAB94F82D308A
:104EB000052B05D1E18DA069C9B20AF08EFF064627
:104EC00094F82D30032B09D1E38D022B06D1218ECE
:104ED000A0690022090A0AF05DFF0646002384F853
:104EE0003D30B046FFF77FBB6FF00B068BE4638E5F
:104EF000002B3FF490AC16F10C0118BF0121C90141
:104F00000BF029FEFFF75FBB6FF00408FFF76BBBE8
:104F10006FF01508FFF7FDBB2DE9F0410B78062B6C
:104F20000C4640D10369D3F89C6006F12805EFF3E5
:104F30001187202383F31288BFF36F8F284609F06F
:104F40007DF868B91C4A1D491D4884230AF059FCA4
:104F500029461C480AF055FC842117480AF048FCF1
:104F6000284609F08FF8636800221A60726A9AB9BD
:104F7000C6E90833284609F06FF880B90E4A12498D
:104F80000F484FF499730AF03CFC29460F480AF089
:104F900038FC4FF49971E0E713607362EAE787F336
:104FA0001188BFF36F8F0A4821460022BDE8F04107
:104FB00000230CF033BE00BFEB2B0100442C01009A
:104FC000F0290100592C0100182C01002F2C0100A0
:104FD000D80400202DE9FF4120264FF0FF337B4805
:104FE0004FF0FF3201A906F0E1FB039B1B69D3F8E8
:104FF0009C40FCB194F87030DF071BD504F1280702
:10500000236A002B45D0EFF3118886F31288BFF393
:105010006F8F384609F012F8C8B96D4A6D496E486D
:1050200084230AF0EEFB39466C480AF0EAFB84213F
:1050300067480AE06A496B4A6748DE230AF0E1FBE9
:1050400069480AF0DEFB6748DE210AF0D1FB3846EA
:1050500009F018F8256A2DB1626A2B68236295421F
:1050600008BF6362384608F0F7FF68B9584A5F49DD
:1050700059484FF499730AF0C4FB39465C480AF06A
:10508000C0FB4FF49971D3E788F31188BFF36F8F9A
:10509000C5B99DF80430062B9FD0072B9DD801A2DF
:1050A00052F823F0F9500000ED50000019510000B3
:1050B000FF5000003D51000033510000DB4F000065
:1050C000C75100002B7ED5F81E2029465D062046DC
:1050D00009D1FFF755FA0246002891D00721204652
:1050E0000BF0E2FA8CE700F045F9F4E70022012129
:1050F00020460BF0D9FA70E700221146F8E794F841
:10510000703043F0040301A984F8703020460AF09F
:105110008CFE00220321EBE794F8703023F00403A7
:1051200001A984F8703020460AF07FFE0022022197
:10513000DEE701A920460AF078FE4EE794F87030C9
:10514000A76923F0040384F87030D7F808803B691E
:10515000BFF35B8FD3F8A030BFF35B8F9A072FD5D7
:10516000D8F83C3038469847D8F8243000213846E3
:105170009847D8F84030054638469847ADB9294693
:1051800020460AF0D3FF054678B9A0690BF0F2FD7E
:10519000831E5842584194F8703084F8345023F0FC
:1051A000680343EA401384F870300022042120464B
:1051B0000BF07AFA002D3FF410AF2A46072197E74B
:1051C0004FF0FF35F1E7029A062191E7D80400205D
:1051D000EB2B0100442C0100F0290100592C0100A7
:1051E00046380100103801007D380100182C0100FC
:1051F0002F2C010030B589B000220023CDE9062311
:1052000000246FF00703CDE90334CDE90144294BB5
:10521000294900944FF48062284807F0CFFC2849C0
:1052200026480CF082FD274B27498B421CD9274981
:10523000274A284840F227130AF0E3FA26480AF0E2
:10524000E0FA40F2271122480AF0D2FA03F11402E0
:10525000BFF35B8F52E8000F42E80045002DF9D103
:10526000BFF35B8F1833E0E7F0D31C4B1C490020E1
:105270008B421AD91B49164A164840F22B130AF0E2
:10528000C0FA15480AF0BDFA40F22B11DBE703F132
:105290001402BFF35B8F52E8004F42E80005002D77
:1052A000F9D1BFF35B8F1833E2E7F0D3002009B0E8
:1052B00030BD00BFD54F0000C0130020D80500202E
:1052C0009D380100D8050020D8050020A238010033
:1052D00010380100F0290100C2380100D805002073
:1052E000D8050020E138010038B5024609490546D5
:1052F00080690BF0A5FD044648B985F83C002846B6
:105300000AF0EAFD044610B1A8690BF0CCFD204676
:1053100038BD00BF194F000070B5054611B100241B
:10532000204670BD0D4C0E4E08E0F8D2636828464A
:105330001968FCF731FE0028F2D01834B442F4D9D1
:105340000849094A0948D4230AF05BFA08480AF0D8
:1053500058FA0548D4210AF04BFA00BFD8050020BE
:10536000D8050020A238010001390100F029010010
:10537000C238010010B559B90B490C480C4A40F22B
:1053800007330AF03EFA0A4840F207310AF030FAD1
:10539000D1F81A0083681B6913B1BDE810401847A3
:1053A0006FF0850010BD00BF26360100F029010016
:1053B0003037010008B506490648074A40F207336E
:1053C0000AF01FFA044840F207310AF011FA00BF50
:1053D00026360100F0290100303701002DE9F041A7
:1053E00005460C4609B9FFF7E5FF0B7E5A063BD18F
:1053F00093B30AF02EFB00283AD12846D5F87480E2
:10540000268A6F8E0AF0FBFA70B101282AD01A4959
:105410001A4A1B484A230AF0F4F91A480AF0F1F92B
:1054200016484A210AF0E4F998F80720238A9BB12C
:10543000BE42698E334628BF3B4699420CD9B3FB26
:10544000F2F102FB11333BB994F91830002BBEBFC7
:10545000637E43F008036376A8692146BDE8F04106
:105460000BF0D3BB4022E1E76FF01500BDE8F081FF
:105470004FF0FF30FAE700BF8548010038390100DE
:10548000F0290100723901002DE9F0410646EFF3E1
:105490001188202484F31288BFF36F8F3C4808F0F2
:1054A000CDFD68B93B4A3C493C4884230AF0A9F940
:1054B00037493B480AF0A5F9842136480AF098F9A3
:1054C0003348384D08F0DEFD31482F6808F0C4FD40
:1054D00068B9304A344931484FF499730AF091F968
:1054E0002B4932480AF08DF94FF49971E5E788F3BA
:1054F0001188BFF36F8F5FB92D492E4A2748422389
:105500000AF07FF92C480AF07CF92A484221D5E7B5
:105510007B6893F87030DB0706D430462122BDE863
:10552000F041002307F0DEB9EFF3118784F312880E
:10553000BFF36F8F164808F081FD0028B2D01448E1
:1055400008F0A0FD2C682CB16A6823682B60944297
:1055500008BF6B600E4808F07FFD0028B9D087F3C4
:105560001188BFF36F8F44B1606804F10801C3690B
:1055700098471248214605F031FF2B6833B1304679
:105580000022BDE8F041002307F024B9BDE8F08116
:10559000C80E0020EB2B0100442C0100F029010073
:1055A000592C0100C00E0020182C01002F2C0100E6
:1055B000DE390100A9390100F23901003804002068
:1055C0007FB50646CDE9001230480022002303A92A
:1055D00005F078FE0446002855D1039BDDE9000163
:1055E0005E60083383E80300EFF31185202383F323
:1055F0001288BFF36F8F264808F020FD68B9254A4E
:105600002549264884230AF0FCF8214924480AF059
:10561000F8F884211F480AF0EBF81D4808F032FD25
:10562000039B204A1C60516899B9C2E900331848AD
:1056300008F012FD80B9174A1B4918484FF49973B6
:105640000AF0DFF8124919480AF0DBF84FF49971B3
:10565000E0E70B605360EAE785F31188BFF36F8FD3
:1056600013480022002307F0B5F800280BDA11498F
:10567000114A0A4833230AF0C4F810480AF0C1F866
:105680000D483321C7E704B070BD00BF38040020C7
:10569000C80E0020EB2B0100442C0100F029010072
:1056A000592C0100C00E0020182C01002F2C0100E5
:1056B0000000002085480100A93901000E3A0100D0
:1056C00008B506490648074A40F207330AF099F838
:1056D000044840F207310AF08BF800BF263601007B
:1056E000F029010030370100F8B587681446FB6BDC
:1056F00005460E4698472146064800220023FEF73D
:10570000EBFC044600B1067628463B6C98472046E1
:10571000F8BD00BF2C050020EFF31180202383F398
:105720001288BFF36F8F0A4BD3F8001C032261B9B4
:1057300049F27531C3F8001CC3F8142DC3F8001CDE
:1057400080F31188BFF36F8F7047C3F8142DF7E70C
:1057500000E00640EFF31180202383F31288BFF3AB
:105760006F8F0A4BD3F8001C61B949F27532C3F848
:10577000002CC3F8141DC3F8002C80F31188BFF36C
:105780006F8F70470022C3F8142DF6E700E0064043
:1057900008B50B7F0D4A13F07F0F03D1012353652A
:1057A000002008BD19070BD509490A480A4A40F2EA
:1057B0006D430AF026F8084840F26D410AF018F8E7
:1057C00043F48073C2F81835EAE700BF0070024066
:1057D000553A0100F0290100283A010010B544684B
:1057E000206801F0CBFE0D4B18600D4B1B782BB1E0
:1057F0000C4B0022186811460BF040F800220121E2
:105800002720FEF763F9201D04F02EF804F10800AC
:1058100004F078F80CF0D4F8002010BDDC0E002065
:10582000AF130020300F002008B500F00F03082B45
:105830000BD9094909480A4A4FF48B7309F0E1FF73
:1058400007484FF48B7109F0D3FFC043C0F3C01079
:1058500003EB001008BD00BF683A0100F029010009
:10586000283A01002DE9F0410446EFF31186202388
:1058700083F31288BFF36F8F410600F0080723D02F
:1058800017BBDFF8A080FFF7CFFFD8F8005025FA4C
:1058900000F3DA0718D50123834025EA030563B234
:1058A000DB4324F08002DB0F02F2DA321B0103EB50
:1058B00042031D4AC8F80050C2F80038D2F8043834
:1058C00043F00203C2F804382046FFF7ADFF174A41
:1058D0000125136805FA00F023EA0003136067B995
:1058E000134F2306D7F80080204614D4FFF79CFFFF
:1058F00005FA00F028EA000038602046FFF794FF20
:10590000094A01238340C2F86C3486F31188BFF33F
:105910006F8FBDE8F081FFF787FF854045EA0805F6
:105920003D60EAE7240F002000700240280F0020AD
:105930002C0F0020F8B50446FFF776FFEFF3118235
:10594000202383F31288BFF36F8F631E062B25D8A5
:10595000314D324B2E681B683343C34013F00103B3
:1059600008D12F4F04F5947147F82130012383406B
:1059700033432B602B490D6825FA00F3DB073DD537
:10598000294A2A492A4840F2534309F03AFF21465E
:10599000284809F036FF40F2534117E0882C18D10F
:1059A0001D4B1B68C340DF07E4D51C4B1B68C3407D
:1059B000DE07DFD520491C4A1D4840F24A4309F062
:1059C00020FF1E4809F01DFF40F24A41164809F029
:1059D0000FFF2506CED5104B1B68C340D907C9D58C
:1059E000114A1749124840F24F4309F00AFF214675
:1059F000144809F006FF40F24F41E7E701238340D6
:105A00002B430B60104B8021C3F8041182F31188E3
:105A1000BFF36F8FF8BD00BF240F00202C0F0020B4
:105A200000700240280F0020283A0100733B01005B
:105A3000F02901009E3B0100C23A01000F3B01002A
:105A4000343B0100593B010000E100E070B506461F
:105A50000D460AF0D2FE04460AF0D8FE28BB2046C6
:105A60000AF0F7FE08B3802D16D1437E9A0744BF93
:105A70000E4A15705B070FD50D4B1B7813B90D4BF4
:105A800001221A6520460AF0E0FE00220146304657
:105A9000BDE870400AF0FEBE2846FFF74BFF2046E7
:105AA0000121BDE870400AF0B5BE70BDAD13002005
:105AB000B21300200070024070B506460C460AF092
:105AC0009CFE05460AF0A2FE20BB28460AF0C1FE55
:105AD0000146F8B1ACB9437ED8071BD49A0704D568
:105AE0000D4B1C700D4B0122DA644B7E5B0708D511
:105AF0000B4B1B7873B130460022BDE870400AF0B2
:105B0000C9BE2046FFF716FF28460121BDE87040B8
:105B10000AF080BE70BD00BFAD13002000700240CF
:105B2000B313002000F00F02082A08B541B209D9CA
:105B30000F491048104AE72309F063FE0E48E72199
:105B400009F056FE10F0080F0C4B0AD100294FF057
:105B5000140101FB0233B4BFD3F80806D3F80807D9
:105B600008BD0029B4BFD3F8A806D3F8A807F7E703
:105B7000683A0100F0290100283A01000070024053
:105B8000F8B510F0080705460BD0194919481A4A0C
:105B900040F2854309F035FE174840F2854109F08F
:105BA00027FE030620D400F00F04A40004F1804473
:105BB00004F51C34D4F84434B3B1EFF31186202338
:105BC00083F31288BFF36F8FFFF72EFE0B49C4F8E3
:105BD000A074012303FA00F20B6823EA02030B60AE
:105BE00086F31188BFF36F8F054BC3F81855F8BDC6
:105BF000553A0100F0290100283A01002C0F00203D
:105C00000070024010B50B7F13F008040BD00C4954
:105C10000C480D4A40F28F4309F0F3FD0A4840F268
:105C20008F4109F0E5FD094AC2F80C3543F4807351
:105C3000C2F80C35087FFFF7A3FF204610BD00BF58
:105C4000553A0100F0290100283A01000070024095
:105C5000012810B5014619D0022809D0A8B90F4B68
:105C6000024618680AF00AFE0D4B01221A700CE079
:105C70000C4B0D4C00221A700C4BC4F8003327203B
:105C8000FDF7F4FE0123C4F8043510BD034B0022D8
:105C900018680AF0F3FD024B0022E7E7300F0020FE
:105CA000AF130020AE13002000700240FDFFDF01A3
:105CB000014601480CF026B91405002008B5054B33
:105CC0001970054B1B7813B10420FFF7F1FF00207A
:105CD00008BD00BFB0130020B113002010B5046947
:105CE000087FFFF7A1FD0C4A012303FA00F01368B7
:105CF0000343136007F0E2FB4020FFF7D9FF4FF0AA
:105D0000FF324FF0FF3304F18401044806F0A4FE93
:105D100007F046FC002010BD200F002024050020C5
:105D20002DE9F047494B066988B00546186006F131
:105D300084000BF082FF00220023CDE9062300241B
:105D40006FF00703CDE90334CDE90144404B4149ED
:105D500000954FF40072404806F030FFDFF8FC80F9
:105D60003F493D483F4F0BF0E0FFD8F814203E4B31
:105D7000134043F4820343F04003C8F81430C14693
:105D80004FF0240A88F81C40414628460AF047FD97
:105D9000002857D10134092C18D00AFB0491082C93
:105DA0008A7D324B42F040028A7508D1D9F83421FD
:105DB0002F4911402F4A0A43C9F8342103E04A69A8
:105DC0003A401A434A6108F12408DBE72A4C2B4B7E
:105DD0006269244F134043F4041343F040036361AA
:105DE0008046A1464FF0240A68F07F0222772146C0
:105DF00028460AF014FD28BB08F10108B8F1090F84
:105E000018D00AFB0891B8F1080F8A7D174B42F0B1
:105E100020028A7508D1D9F8342115491140154A54
:105E20000A43C9F8342103E04A693A401A434A61F7
:105E30002434D9E796F8803023F0720343F07203DC
:105E400086F8803008B0BDE8F08700BF300F002032
:105E5000D55F0000C01700206006002078100020E9
:105E6000BA3B01000000F9FF0000BEFF4000060041
:105E70000000F7FFFF010800340F00200000DEFFE4
:105E800010B50C46204611460AF0E5FC207FFFF7CE
:105E9000CBFC014603480BF046F80120FFF708FF52
:105EA000002010BDC011002010B559B91A491B4877
:105EB0001B4A40F24D6309F0A4FC194840F24D61C1
:105EC00009F096FC0C7F4FF0FF324FF0FF3315487E
:105ED00006F0D6F82046FFF7C5FC04F00F020123B8
:105EE0009340114A14F0800F14BFD2F81015D2F865
:105EF00014156FEA030315BF0B400B40C2F81035B1
:105F0000C2F81435074806F03DF8084B8022C3F864
:105F10000421002010BD00BFC33B0100F029010097
:105F2000283A0100040500200070024000E100E072
:105F300010B559B92249234A234840F23A6309F07F
:105F400060FC40F23A611F4809F052FC0A7F91F967
:105F50001C0002F00F02082A09D91C49194A1A48E4
:105F600040F20E4309F04DFC40F20E41EBE7184BB6
:105F70000028B4BFD3F81045D3F81445012393404B
:105F800023420DD1124A0028B5BFD2F81005D2F82D
:105F9000140503430343B4BFC2F81035C2F81435E7
:105FA0000B7F1A0709D40A4AC2F80C3543F48073F0
:105FB000C2F80C35087FFFF7E3FD002010BD00BFDD
:105FC000C33B0100283A0100F0290100683A0100B2
:105FD000007002402DE9F04FC14E87B004464FF0EB
:105FE000FF3A4FF0FF3B0022CDE900AB4FF0FF310D
:105FF000BC480BF08EFFBB484FF0FF310BF085FF24
:1060000010F0080F80462FD0B74852465B4606F086
:1060100037F8EFF31181202383F31288BFF36F8FDA
:10602000B24B1B7883B1B24BD3F8002412F4007248
:106030000AD10120C3F82C05D3F82C05D3F80004AD
:10604000800548BFC3F82C2581F31188BFF36F8FFB
:10605000A54805F097FF012120460AF0AEFB00227B
:10606000032120460AF00AFC18F0100F08D0002186
:1060700020460AF0A2FB0022022120460AF0FEFB85
:1060800018F0200F08D0002120460AF096FB0022CD
:10609000022120460AF0F2FB18F0020F63D118F03B
:1060A000010F0FD0BFF35B8F924B002253E8007FAC
:1060B00043E800210029F9D1BFF35B8F0125002FB0
:1060C00040F0E18018F0040F34D0894B4FF0000C01
:1060D00086F800C0D3F88074FFB28DF81070D3F842
:1060E0008404C0B28DF81100D3F88824D3F88C143E
:1060F00042EA012292B2ADF81220D3F89014D3F8FC
:10610000945441EA0521ADF81410D3F89814D3F84B
:106110009C5441EA052189B2774DADF81610002F45
:1061200040F0CB80052840F0C88001232B70002967
:1061300000F0CF8018F0400F3FF451AF2069843059
:106140004FF0FF324FF0FF3305F01AFC6B4D29681A
:10615000002940F0FE806A4806F0EAFB206984309E
:1061600005F0D6FC3BE7674BBFF35B8F002253E89B
:10617000009F43E800210029F9D1BFF35B8F5C4FFA
:106180004FF0010BB9F1000F89D099FAA9F3B3FAD6
:1061900083F30F2B1D46C6BFA3F11005EDB245F0EA
:1061A00080050BFA03F329EA03092B06294620464A
:1061B00053D50AF022FB03900AF047FB824658B9F8
:1061C0005149524A524840F2DE4309F01AFB40F26C
:1061D000DE414E4809F00CFB039800210AF01AFB3F
:1061E0000022514620460AF055FB802D30D19AF806
:1061F000193099070CD44749444A454840F2E643D0
:1062000009F0FFFA444809F0FCFA40F2E641E0E701
:10621000002186F800B02046C7F850B00AF0EDFA29
:106220000AF013FB014698B1437E5A070CD43B4950
:10623000364A374840F2F34309F0E3FA384809F0A8
:10624000E0FA40F2F341C4E7002220460AF022FBC4
:1062500029462046FFF7FAFB94E70AF0CEFA824679
:106260000AF0F3FA039048B1002150460AF0D2FA3E
:10627000039B0022194620460AF00CFB29462046C3
:10628000FFF71AFC7EE797FAA7F3B3FA83F30F2B15
:106290001946C4BFA3F11001C9B205FA03F3D8BF70
:1062A00041F0800127EA03070B06204602D5FFF7DD
:1062B000CDFB04E7FFF700FC01E71A4985F800C0B1
:1062C000D3F870240978914230D1174B00221A700C
:1062D0003AE002F07F02ADF81220ADF81410F4E7B6
:1062E000B31300201405002004050020AE13002085
:1062F00000700240C0110020B2130020200F0020C7
:1063000024050020BC11002085480100283A010026
:10631000F0290100C73B0100E33B0100FB3B01000A
:10632000193C0100B0130020B113002028490122BC
:106330000A702A704FF4A062ADF81020D3F87034C0
:10634000ADF81230CDF814C004A920460AF0CCFAFA
:10635000F0E691FAA1F7B7FA87F70F2F3946C6BFD3
:10636000A7F11001C9B241F0800120460AF045FAB8
:10637000804690F81C904FF0FF324FF0FF331548E5
:1063800005F07EFE4846FFF76DFA124805F0FAFD6B
:10639000114B8022C3F80421414620460AF095FAA9
:1063A000002140460AF036FABFF35B8F0123BB4061
:1063B0000A4ADB4352E8000F184042E80001002976
:1063C000F8D1BFF35B8F2A6813402B60BFE600BF94
:1063D000B11300200405002000E100E0BC11002002
:1063E0004FF08053D3F83031082B02BF024B00220C
:1063F000C3F81C2C704700BF007002402DE9F0412B
:1064000005464FF0FF324FF0FF33384805F038FEB5
:10641000374B8022C3F884212720FDF749FBA0B128
:10642000344F354B3C681B686FF30F041C434FF02F
:1064300001088CBB314E40F2FF133B602720C6F8A9
:106440000445FDF721FBC6F800432D4A13788BB1B4
:106450002A4B0021C3F808110121C3F80026C3F814
:1064600004165960D3F808110029FBD00021C3F8A5
:1064700008111170214B0024C3F80045FFF7B0FF4D
:106480001A4805F07FFD214628460AF029FBC0B1D5
:106490006FF00400BDE8F08194FAA4F6B6FA86F62F
:1064A0000F2E3346C6BFA6F11003D8B243F08000CA
:1064B000030701D4FFF7D6F908FA06F624EA060422
:1064C000B7E7802128460AF00BFB0028E0D10D4BEE
:1064D0000D491C682046FCF7BBFD10F1780F02D176
:1064E0002046FCF749FD00EAE070D3E704050020F0
:1064F00000E100E02C0F0020280F00200070024077
:10650000AB130020DC0E0020CC0E00202DE9F04F54
:10651000934BDFF85082D3F85421934F85B00AB3E0
:106520000022C3F85421D3F8042392021AD5D3F8D9
:10653000C034002B14BF4FF001244FF480748B4BF8
:106540009B683BB998F80000FFF76EF90123834080
:1065500024EA03043B68864A23433B60136823F024
:10656000012313607E4BD3F8604134B10022C3F89D
:106570006021D3F86C44C3F86C44D3F828214AB1A5
:106580000022C3F828217B4B1878FFF74DF901232F
:1065900083401C4398F8005098F9006005F00F0202
:1065A000082A09D97449754A7548D42309F029F98C
:1065B000D421724809F01CF92B0700F18880002EC5
:1065C000B4BF704B704B920013441A685AB3002248
:1065D0001A602846FFF7A6FA6C4B1A7800F0010003
:1065E00050401870FFF7FCFE694B2846D3F8009026
:1065F000FFF71AF929FA00F919F0010F014679D1CC
:10660000002E6BDA882D69D02846FFF70DF9584A1D
:106610000123116883400B431360812388F8003005
:10662000524805F0AFFC84B13B68514ADFF864A1E1
:1066300024F001210B433B60136823EA010313603C
:10664000A4B24FF00109002C5AD1454BD3F80021D8
:106650004AB10022C3F800214F4B1A704D4B042160
:1066600018680AF00BF93E4BD3F85821002A00F0C5
:10667000A5800022C3F85821D3F80044C3F8004491
:10668000E00505D5444B012208201A70FFF710FBE6
:10669000A10505D5404B002210201A70FFF708FB1A
:1066A000620540F18B803C4A1378002B00F0868015
:1066B0002B4BD3F82C15002978D038492F4A304875
:1066C0004FF4057309F09DF84FF4057171E7344BF1
:1066D000344A33EA260328BF134676E732480AF0E5
:1066E00022FC0220FFF7E4FA002E8DDB6B1E062B46
:1066F0008AD992E7002DF7D1194B0122DA648CE791
:1067000094FAA4F5B5FA85F509FA05F345F0800584
:106710002946DAF8000024EA03040AF06EF80AF0C9
:1067200098F806462846FFF7FDF9014606F10C00E9
:10673000FDF77EFE338A002B85D130460AF08DF8B6
:1067400018B130460AF091F87DE72846FFF76CF85B
:10675000014615480AF0E7FB0220FFF7A9FA72E7A5
:1067600000700240AC1300202C0F00200405002014
:10677000240F0020AD130020683A0100283A0100E0
:10678000F02901000871024030710240AB13002073
:10679000280F0020300F0020AE130020343C0100F1
:1067A000507102402C710240BC1100201170012276
:1067B000C3F8082520209A65FFF77AFA954BDFF891
:1067C00058A2D3F85C31F3B1944B9B681BB998F88D
:1067D00000305B0617D08F4B0022C3F85C21DAF83B
:1067E00000308F4A23F00113CAF800303B6823F4CD
:1067F000803343F001033B601368042023F001134E
:106800001360FFF755FADAF800603B681E4000F0AD
:10681000EE80804BD3F82C95B9F1000F40F0E78063
:106820007E480022002305F02BFC002840F0DF808A
:1068300016F0012314BF93FAA3F696FAA6F6B6FA59
:1068400086F60F2EF4B2C8BF103C764BCCBFE4B234
:1068500044F080041868214609F0CFFF009009F049
:10686000F8FF024648B97049704A714840F26B23FC
:1068700008F0C7FF40F26B219BE64FFA84FB04F05F
:106880000803BBF1000F019336DA009A058AD18B19
:10689000C368C1F30A018D4213D90D464FF00009B8
:1068A00003F06042B2F1005F1AD0402D12D9614965
:1068B0005E4A5F4840F27A2308F0A3FF40F27A2153
:1068C00077E6009309F0C9FF80F00109009B5FFAA9
:1068D00089F9E5E7194658482A460BF025FB564B3F
:1068E000B9F1000F4BD0DAF800200121B14022EAC3
:1068F0000102CAF8002042E004F00801454BE9B16A
:10690000D3F8C03413F4803F08BF9946118AD06889
:10691000558A43186D1A5169401A03F06041B1F16C
:10692000005FA5EB00050ED04449404A404840F2C4
:10693000852308F066FF40F285213AE604F594715C
:1069400053F82190E2E74D4528BF4D46294602F114
:106950000C0003930292FDF731FD009BD98BC1F32C
:106960000A014945DDE90223BDD15169D068B2F879
:1069700012C0128A401AACEB00019142B3D04FF022
:1069800080520120D2F83021082A02BF214A8221F8
:10699000C2F81C1C3A6888F8004000FA06F604F0B9
:1069A0000F0422EA0602082C3A6007D924491F4A3C
:1069B0001F48FA2308F025FFFA21FAE50199154A44
:1069C000C1B9BBF1000F4FF0140101FB0421A9BFB5
:1069D0000A3402EB8402C1F80037C1F80457AFBF94
:1069E00042F82400C1F80036C1F80456506005B0E2
:1069F000BDE8F08FBBF1000FB5BFC2F8A036C2F8FA
:106A0000A037C2F8A456C2F8A457B4BF506290642D
:106A1000EDE700BF00700240280F002004050020B1
:106A2000240F0020300F002026360100283A0100F4
:106A3000F0290100553C0100E00E0020673C0100F8
:106A4000683A010010B5EFF31184202383F3128814
:106A5000BFF36F8F164B1B7803F0FF02CBB11549C4
:106A6000D1F82C3513B30023C1F82C354FF08053E7
:106A7000D3F83031082B0CD10F4BD3F8000CC021C8
:106A800088B949F27530C3F8000CC3F8141CC3F878
:106A9000000C84F31188BFF36F8F002A0CBF6FF0D6
:106AA0000A00002010BDC3F8141CF2E71A46F0E7F4
:106AB000AE1300200070024000E0064013B5002233
:106AC000009211464023044609F0AEFF024618B179
:106AD0006FF0040002B010BD0090402380212046DA
