:10100000382800202120000037A300000D20000018
:101010000D2000000D2000000D2000000000000049
:10102000000000000000000000000000FD200000A3
:101030000D20000000000000BD2200000D20000077
:101040002923000029230000292300002923000070
:101050002923000029230000292300002923000060
:101060002923000029230000292300002923000050
:101070002923000029230000292300002923000040
:101080002923000029230000292300002923000030
:101090002923000029230000292300002923000020
:1010A0002923000029230000292300002923000010
:1010B0002923000029230000292300002923000000
:1010C00029230000292300002923000029230000F0
:1010D00029230000292300002923000029230000E0
:1010E00029230000292300002923000029230000D0
:1010F00029230000292300002923000029230000C0
:101100007BB972B90029BEBF00204FF0004106E054
:1011100008BF00281CBF6FF000414FF0FF3000F007
:1011200057B8ADF1080C6DE904CE002909DB002B9E
:101130001ADB00F059F8DDF804E0DDE9022304B021
:101140007047404261EB4101002B1BDB00F04CF883
:10115000DDF804E0DDE9022304B0404261EB410127
:10116000524263EB43037047524263EB430300F088
:101170003BF8DDF804E0DDE9022304B0404261EB16
:1011800041017047524263EB430300F02DF8DDF854
:1011900004E0DDE9022304B0524263EB43037047ED
:1011A00053B94AB9002908BF00281CBF4FF0FF31CE
:1011B0004FF0FF3000F00CB8ADF1080C6DE904CE33
:1011C00000F012F8DDF804E0DDE9022304B0704716
:1011D000704700BF10F8012B11F8013B012A28BF0E
:1011E0009A42F7D0D01A70472DE9F0478C468E46C8
:1011F000089E154604461946002B40F0D0807245E3
:1012000047D9B2FA82F74FB1C7F120030EFA07FCB3
:1012100020FA03F3BD4043EA0C0CBC404FEA154EE4
:10122000A8B2BCFBFEF8230C0EFB18CC08FB00F99F
:1012300043EA0C43994528D9EB1808F1FF3204D250
:10124000994502D9A8F102022B44A3EB0903A4B2E9
:10125000B3FBFEFC0EFB1C330CFB00F044EA034422
:10126000A04214D92C190CF1FF3304D2A04202D9A8
:10127000ACF102032C44241A43EA02401EB1FC40A4
:10128000002334607360BDE8F0874246DDE76346C3
:10129000F1E7002A79D0B2FA82F3002B3FD0194649
:1012A000C1F1200302FA01F52EFA03F20EFA01FE53
:1012B00020FA03F343EA0E034FEA154E00FA01F455
:1012C000B2FBFEFCAFB20EFB1C201A0C0CFB07F8A5
:1012D00042EA004290455AD9AA180CF1FF3004D2D4
:1012E000904502D9ACF102002A44A2EB08029BB25D
:1012F000B2FBFEFC0EFB1C220CFB07F743EA024389
:101300009F4246D9EB180CF1FF3204D29F4202D91A
:10131000ACF102022B44DB1B42EA004202E0AEEBDE
:10132000020301224FEA154EAFB2B3FBFEFC200CC4
:101330000EFB1C330CFB07F840EA034398452AD9FF
:10134000EB180CF1FF3004D2984502D9ACF1020041
:101350002B44A3EB0803A4B2B3FBFEFC0EFB1C332F
:101360000CFB07F744EA0344A74216D92C190CF1E9
:10137000FF3304D2A74202D9ACF102032C44E41B90
:1013800043EA00400F46114678E71F2188E7604690
:10139000ABE76246BFE76046DBE76346EFE77345CE
:1013A00006D916B9002108466DE7C6E9000EF9E72F
:1013B000B3FA83F787B9734501D3824207D8841AF9
:1013C0006EEB030301209C461EB900215BE7384603
:1013D000FAE7C6E9004CF8E7C7F1200CBB4022FA57
:1013E0000CF51D4320FA0CF12EFA0CF30EFA07FE51
:1013F00041EA0E014FEA154900FA07F4B3FBF9F888
:101400001FFA85FE09FB18300B0C08FB0EFA43EAA5
:1014100000439A4502FA07F240D9EB1808F1FF3071
:1014200004D29A4502D9A8F102002B44A3EB0A0387
:1014300089B2B3FBF9F809FB183308FB0EFE41EA49
:1014400003418E452CD9691808F1FF3304D28E452B
:1014500002D9A8F10203294443EA0040A0FB029804
:10146000A1EB0E014145CE46434602D306D14C4581
:1014700004D2B9EB020E68EB05030138002EA4D0AC
:10148000B4EB0E0261EB030101FA0CFC22FA07F344
:101490004CEA0303F940C6E9003196E74046C5E748
:1014A0004346D9E70FB430B5ABB02EABA02153F80B
:1014B000042B019302A808F04FFB074D02AC14F86F
:1014C000011B21B92BB0BDE8304004B07047AB68B8
:1014D00001485B689847F2E78CDC00002DE9F04199
:1014E000514D0FCD8AB005AC0FC42B68236000238B
:1014F00004934E480BF005FE80B94D4C4D4E00252F
:10150000012754F8060C0BF0FCFD00BB4A482946A5
:10151000FFF7C8FF00200AB0BDE8F081434D4FF44B
:10152000C03000210CF0FEF8AE683224B36C1BB161
:1015300004AA042128469847049B002BDDD140F6DD
:10154000CD4000210CF0EEF8013CEFD1D5E754F886
:10155000063CB34202D039482946D9E714F8013C89
:101560005BB1B36821461B6830469847021E07DA14
:1015700033482946FFF796FFCCE76FF08502F7E77F
:1015800014F8022C069B07FA02F201351343062DCC
:10159000069304F11404B4D12A48FFF783FF0CF03A
:1015A000A1F94FF47A72A0FB020302FB0133C00BD6
:1015B00040EA434540F6CD4200232348234FCDE97E
:1015C000002307F0E1FD204807F046FE0CF08AF901
:1015D00004468846B36805A95B6830469847011EF3
:1015E00003DA1B48FFF75EFFEDE74FF47A72A4FBC6
:1015F000024302FB0833E10B41EA4341B7F90A30E9
:101600000393B7F908300293B7F906300193B7F99D
:1016100004300093B7F90230B7F900200D48491B98
:10162000FFF740FFCFE700BF40E000008CDC000088
:101630006EE00000E0DC00003AE3000065E300003B
:1016400090E30000BDE30000D8050020D014002086
:10165000DBE3000000E40000014B1B68184700BFFB
:1016600070010020014B1860704700BF700100201E
:1016700030B5044685B00D461022002168460CF0B6
:1016800007FA02238DF802302A46044B01932146C3
:10169000684608F01DF805B030BD00BF59160000BF
:1016A00080B505460E461746984607F07FFA034672
:1016B00000F04CFEDFF81890044649F8003042462E
:1016C00030463946A84754F8090000F0E1FD00BF54
:1016D000080000002DE9F047058B0446280717464F
:1016E0000CD501290CBF45F0100545F020052583D8
:1016F00087F31188BFF36F8FBDE8F087022905F0EB
:10170000070540F09480204608F070FC052864D856
:1017100001A353F820F000BFF11600002F180000BD
:10172000DB1700009D170000B7170000C917000065
:1017300001F007035A1F012A1FD8002221F00701D8
:10174000062BD4F8008089B2C4E9002209D14346AF
:1017500003E0628B013262831B68002BF9D141F0F8
:1017600002012183204608F041FC4FF000090028C7
:101770006DD041F02001218369E0042B0AD121F0D2
:10178000070189B22183204608F030FC10B141F0F6
:10179000200121834FF00008C14658E02369D3F8A7
:1017A0000090238B23F0070343F0060323834FF0BD
:1017B000000846464BE02369D3F80490238B23F0BE
:1017C000070343F00403F1E72369D3F80890238B60
:1017D00023F0070343F00503E8E74FF00008C14694
:1017E000E7E7012243F00803238387F31188BFF35F
:1017F0006F8F002A3BD1B8F1000F4AD1B9F1000F29
:1018000002D02D492046C847EFF31187202383F3E8
:101810001288BFF36F8F238B23F008039BB22383BF
:10182000D9063FD523F01002228303F0070566692D
:10183000218B002EBFF67CAF0023D4F8008021F06E
:101840000701C4E9003341F0010121839946238B4C
:1018500003F0070AAA4502D0A268002AC1D1B8F154
:10186000000F02D1B9F1000FDAD00022BAE7A16867
:101870000029C0D00D680029BDD04F6833465246BC
:101880002046B8471DB12B6829461D46F3E72B4675
:10189000FAE74146334652462046D8F8008008F021
:1018A000D1FBA8E79A067FF523AF23F0200222831D
:1018B00003F0070527E700BF71A00000014B03609C
:1018C00000207047E0E0000007B51B491B4808F006
:1018D000C1FE70BB1A49194808F0BCFE48BB194943
:1018E000164808F0B7FE20BB1749144808F0B2FEAE
:1018F000F8B90146154A114809F093F9C8B90246EA
:1019000013490E48012309F066FA90B901230093A8
:10191000014602230948EF2208F0A6FD48B907480E
:1019200008F0CBFD28B9054803B05DF804EB08F0DA
:10193000F4BD03B05DF804FBE801002000070020BF
:10194000D0010020B8010020A00100207401002077
:1019500017E4000008B5044808F020FB034808F02D
:101960001DFB002008BD00BF30E4000065E400005E
:10197000014807F04DBD00BFE0E0000038B5044667
:1019800018B90F4B0F485B6898476168B1F5683F1D
:1019900010D0B1F5680F0DD00B4DA9420AD011F44B
:1019A0006861206807D0014608480BF055FC002309
:1019B0002360656038BD14220CF06AF8F9E700BFB7
:1019C000A404002092E400002C5F5CA950100020C9
:1019D00008B520B34368B3F5683F10D1012203680E
:1019E000BFF35B8F53E8001F002903D143E80020B9
:1019F0000028F7D1BFF35B8F0DD1002008BD094A45
:101A000093420AD000684FF0FF324FF0FF3306F0E8
:101A100079FA0028F1D00448F0E70448EEE76FF4C3
:101A2000E040EBE72C5F5CA9E98FFFFFEA8FFFFF47
:101A300008B5D8B14368B3F5683F10D100220368F8
:101A4000BFF35B8F53E8001F012903D143E8002057
:101A50000028F7D1BFF35B8F0BD1002008BD074AE8
:101A6000934208D0006806F0BFFAF6E76FF4E04052
:101A7000F4E70348F2E70348F0E700BF2C5F5CA9F6
:101A8000E98FFFFFEA8FFFFF10B5044618B91D4B21
:101A90001D485B6898476368B3F5683F2FD0B3F57E
:101AA000680F2CD0194A934219D1236803BB1848F8
:101AB0004FF0FF324FF0FF33214606F02BF908B903
:101AC00023681BB90F4B13485B68984720681422A2
:101AD00000210BF0DDFF4FF46863636008E0B3F5AD
:101AE000680F0DD83A2B03D040F6BA629342DED18C
:101AF00020680BF010FC636843F03A03636010BD8C
:101B0000054AF3E7A404002092E400002C5F5CA9DE
:101B100050100020B8E400003A00003A08B5064929
:101B20000648402314220BF08AFBBDE80840044914
:101B3000044807F0DFBC00BF500B0020501000200D
:101B4000E8E00000FCE0000008B50348034A00217B
:101B5000121A08F0E8FB08BD98070020F4140020D2
:101B60000748084A084908B5121A08F0DEFB07487A
:101B7000074A0849BDE80840121A08F0D6BB00BF62
:101B8000000000209407002058EA00000000002018
:101B90000000002058EA000038B505460C4699B10F
:101BA000D1E901230F48096808F0F8F9D4E90423C2
:101BB000E1680D4808F0F2F9E1690C4808F0EEF927
:101BC000A1690B4808F0EAF9012D05D1EFF3058171
:101BD0000848103908F0E2F921462846BDE83840A7
:101BE00005F03ABFE5E4000015E5000045E500001A
:101BF00055E5000084E5000030BFFFF7FDBF00BFE2
:101C00002DE9F0410B4EDFF8308006EB0807CC1BC6
:101C100005463246094920460BF02CFFA0194246E2
:101C20000021083C0BF034FFAC6707F10800BDE869
:101C3000F08100BF00000000080000003CE0000050
:101C400010B51D4C1D4808F0A9F9A36A990130D5BB
:101C50001B4808F0A3F91E20A36ADA0103D519482E
:101C600008F09CF91F20144CA36A1B0303D51648E7
:101C700008F094F92120A36A590303D5134808F00A
:101C80008DF922200C4CA36A9A0303D5104808F062
:101C900085F92320A36ADB0303D50E4808F07EF9FB
:101CA0002420054A936A6FEA03436FEA1343936261
:101CB00010BD1D20D0E700BF00ED00E098E500005A
:101CC000B1E50000C5E50000E0E50000FFE500002B
:101CD00025E6000040E6000070B5244C0646244886
:101CE0000D4608F05BF9A36AD90435D5214808F000
:101CF00055F91720A36A1A0503D51F4808F04EF9B5
:101D000018201A4CA36A9B050FD51C4808F046F909
:101D1000A16BA36A180407D5194808F03FF91EB152
:101D2000A36A23F40043A3621920104CA36A590547
:101D300003D5144808F032F91A20A36ADA050DD544
:101D4000114808F02BF91B20084A936A43F47F439B
:101D5000936200232B7070BD1620CBE7A36A9B040F
:101D6000F2D50A4808F01AF91C20EDE700ED00E072
:101D70006CE6000083E6000095E60000A9E600009E
:101D8000C3E60000D9E60000F5E600000EE700001B
:101D900070B5264C064626480D4608F0FFF8A36AA3
:101DA000D80640D5234808F0F9F81120A36A19078E
:101DB00003D5214808F0F2F812201C4CA36A9A07B8
:101DC0000FD51E4808F0EAF8616BA36A1B0607D519
:101DD0001B4808F0E3F81EB1A36A23F08003A36256
:101DE0001320124CA36ADE0703D5164808F0D6F874
:101DF0001420A36A9C0603D5134808F0CFF81520D9
:101E00000A4B9A6AD10658BF9A6A9A6A920642BFEA
:101E10005A6A22F400525A629A6A42F0FF029A62A7
:101E200000232B7070BD1020C0E700BF00ED00E064
:101E30003EE7000055E7000095E6000089E7000056
:101E4000A2E70000B9E700000EE700002DE9F0412D
:101E50005D4B5F688AB00446C7F30806002585F32A
:101E60001188BFF36F8F02F07F43B3F17F4F06D12C
:101E700002F00C03082B13D1544808F08FF800250A
:101E80002C464FF00008F31E8DF80780092B00F256
:101E90008B80DFE803F00A7F837B898989898987C2
:101EA00010074CBF0C460125EBE74948464E08F0A9
:101EB00075F88DF80780F36A9A0704D5454808F04D
:101EC0006DF800232AE0F36A002B01DA4248F6E7B6
:101ED000F36A5B00F5D5414808F060F87369A269C0
:101EE00043F480737361BFF34F8FBFF36F8F32F88A
:101EF000023C726922F480727261BFF34F8FBFF3AC
:101F00006F8F03F47F42B2F55F4F27D1DBB2022B14
:101F100024D12168324808F041F823689DF8072051
:101F2000CAB902AE04F1200720686168324603C2D4
:101F30000834BC421646F7D1099A002D40D0C2F3AE
:101F4000080121B96FEA52226FEA4222099202A9DE
:101F50001846FFF721FE0AB0BDE8F0811A4B9A6AD5
:101F6000D2B22AB10DF107010120FFF711FF0FE0F6
:101F70009A6A12F47F4F05D00DF107010120FFF797
:101F8000ABFE05E09B6AB3F5803F9AD3FFF758FE9E
:101F90000346C3E70DF107010020E6E70DF1070155
:101FA0000020ECE70F488AE70F4B1049104817F460
:101FB000F87FA6F1100208BF194607F0EFFF80E78F
:101FC0006FF30802C2E700BF00ED00E007E8000081
:101FD00033E800004BE800006DE800007CE80000FA
:101FE0009CE80000B9E80000D9E70000EEE7000037
:101FF000DEE80000044B5A6942F010025A615A6947
:1020000022F008025A61704700ED00E0EFF308800B
:10201000EFF3098101B57246FFF718FF01BD00BF5C
:10202000002080F31488BFF36F8F0F4880F3088877
:1020300004F0E4F900200D490860BFF34F8F00F071
:102040002BF8202080F3118809484FF400614018D4
:1020500080F30988EFF314800221084380F3148889
:10206000BFF36F8F00F0B2F83828002094ED00E045
:10207000F81A00200749D1F890200023C2F3072264
:102080001846934200DB7047C1F89830C1F8A000B1
:102090000133F6E700ED00E008B572B6002383F3E4
:1020A0001388FFF7E7FF144B4FF0FF32C3F880208F
:1020B000C3F88420C3F88820C3F88C20C3F890208C
:1020C000C3F89420C3F89820C3F89C20C3F880215B
:1020D000C3F88421C3F88821C3F88C21C3F8902168
:1020E000C3F89421C3F89821C3F89C2162B6BFF3CA
:1020F0004F8FBFF36F8F08BD00E100E01EF0040FAB
:102100000CBFEFF30880EFF30980816911F8021C1E
:102110000229FFD001B5724608F009F901BD00BFE0
:1021200040B2002807DB044A4109012300F01F00E8
:10213000834042F82130704700E100E040B20028BF
:102140000CDB4309064900F01F00203301228240C6
:1021500041F82320BFF34F8FBFF36F8F704700BF4D
:1021600000E100E0054B420900F01F0053F8222077
:10217000012303FA00F01040704700BF00E100E0C7
:1021800040B20028A8BF00F1604001F10101B8BFD2
:10219000064B4FEA4111ACBF00F5614000F00F0063
:1021A000C9B2B4BF195480F80013704714ED00E0B1
:1021B000044B054A23F07F039360BFF34F8FBFF3B7
:1021C0006F8F70470010000000ED00E008B5FFF7CA
:1021D000EFFF074AD2F8883023F47003C2F8883042
:1021E000FFF7B2FCFFF7BCFC00F092F805F0F8FC3A
:1021F00000ED00E042F8203C009B42F81C3C0A49FC
:10220000019B42F8183C029B42F8143C21F001016A
:102210004FF0807342F8043C42F8081C0023203A37
:102220000265C367704700BFA116000000B50B4BE5
:1022300098600B4B1546826F1A600E462C4686F34B
:1022400009880020034B98472046002100220023E4
:10225000014C204753A30000A11600007C1400206D
:102260006C100020014B10221A61704700ED00E055
:10227000054B5A699B689A421FBF044A536843F052
:1022800080535360704700BF7C14002000ED00E0D5
:10229000084B9B6883420BD1EFF3058343B1064B98
:1022A0005A6842F080525A605A6A22F400425A62D6
:1022B00006F082BC7C14002000ED00E011498A6821
:1022C0004FF030001044EFF3098C80E8F01F20201D
:1022D00080F31288BFF36F8F0B4F4FF000664A698F
:1022E0008A603E60906F094C2060D06F0023D367F6
:1022F00080F3118802F1300090E8F01F8CF3098818
:10230000704700007C14002004ED00E06C100020F9
:10231000044800232021C2180133302B82F8001317
:10232000F9D1704700E100E008B5EFF30583064AF4
:10233000103B02EBC30152F8330049688847BDE8FF
:102340000840FFF795BF00BF6CDD00000148006842
:10235000704700006C100020024B034A0348012123
:1023600000F066B800000420000000200CE100002E
:10237000084AC2F898000B6823F01F03034343F098
:102380001003C2F89C308B6843F00103C2F8A03000
:10239000704700BF00ED00E02DE9F043DFF86080FA
:1023A00085B00E461F4604464FF00009B14523DABA
:1023B0006068D8B13FB1411E08421BD11F2819D90E
:1023C0002368194216D12368019307F0E5FFA3683B
:1023D00003430393D8F89050C5F30725D0B2013DCD
:1023E000A84207D801A9FFF7C3FF421C09F1010960
:1023F0000C34DBE76FF01502104605B0BDE8F08342
:1024000000ED00E0044B0522C3F89420BFF34F8F8A
:10241000BFF36F8F704700BF00ED00E0BFF35F8F29
:10242000024B0022C3F89420704700BF00ED00E08B
:1024300010B5034C01232278FFF7AEFF207010BDCA
:10244000E21400202DE9F0435A4B5B4DD3F8903055
:102450002C68C3F307239C4285B000F2A780FFF7E6
:10246000DDFF00200C2684421AD1544EDFF844913F
:1024700034706846FFF722FA514C524D80460027CF
:10248000B84514D133784B490020D1F89020C2F3DD
:1024900007229342C0F28480FFF7B4FF002045E09A
:1024A000696806FB0011FFF763FF0130DBE7009866
:1024B00000EB07114FEA071CCB682340B3F5000F70
:1024C0004DD00AD8B3F5001F33D0B3F5800F3BD001
:1024D000B3F5801F13D00137D2E7B3F1007F47D0A7
:1024E000B3F1805F4DD0B3F1807FF4D150F80C3060
:1024F00088684A6807F050FF40F0887009E050F89B
:102500000C3088684A6807F047FF40F0885040F474
:102510003020CDE901230390D9F890303078C3F30F
:102520000723013B984234D96FF0150005B0BDE890
:10253000F08350F80C3088684A6807F02DFF40F0AF
:10254000885040F40020E4E750F80C3088684A686E
:1025500007F022FF40F0C06040F40030D9E750F8A7
:102560000C3088684A6807F017FF40F08270D0E7A7
:1025700050F80C3088684A6807F00EFF40F480205D
:10258000C7E750F80C3088684A6807F005FF284311
:10259000BFE701A9FFF7ECFE3378013333709AE708
:1025A000C1F89830C1F8A00001336EE74FF0FF305A
:1025B000BCE700BF00ED00E018E10000E2140020DD
:1025C0000000F0FF0000021108B5024B1B6898479D
:1025D000002008BD70100020034B044A1860937857
:1025E00043F0020393707047701000202002002017
:1025F00008B50649064821F00701C1F1005202F56D
:10260000802207F088FC002008BD00BF773B002037
:102610007410002070B54169867A0B4D044659B19B
:10262000437ADB0706D4242303FB0653DB691B68CC
:102630009B689847002363612420214600FB0650D5
:10264000BDE870400AF002BFDC060020024B2422E5
:1026500002FB0030704700BFDC0600202DE9F0438C
:1026600085B005466846039190461C460BF03CF940
:10267000DDE90067EFF31189202383F31288BFF3AC
:102680006F8F6B8A002B41D02A8A9A4225D900226B
:102690000023284605F0F8FC0446F0B189F31188C0
:1026A000BFF36F8F039B002B41D032463B466846F9
:1026B0000BF03FF9A27A264B242101FB023320467E
:1026C000DB691B6803A91D68DDE90023A847606179
:1026D00070BB2046FFF79EFF24E0698A4B1E6B8289
:1026E00089F31188BFF36F8F2B7D2A8A2C6A1B33E5
:1026F00023F00303521A02FB0344154B154AEB1A4D
:102700009B105343A3722B7DE372CBE789F31188AF
:10271000BFF36F8F23464246284605F0B5FC0446BA
:102720000028BFD10024204605B0BDE8F0836361D6
:10273000012300252381039B6382E27A6560294699
:1027400004F118000BF0A4F963692582E360EAE75D
:10275000DC060020398EE33870B50D4C242500B915
:1027600070BD037A4668002BFAD0013BDBB20372DE
:10277000002BF5D1C3604360837A05FB03439B695B
:1027800013B198473046EAE7FFF744FFFAE700BF86
:10279000DC060020044A0123C2F840354FF0804295
:1027A0000020C2F87835704700E0014048B1054B81
:1027B000054A1B68B3FBF2F35843044B43F0010393
:1027C000184770479004002040420F0060E000006E
:1027D0002DE9F04190F8283003F01F03012B044647
:1027E0000F4600F128062FD0022B18D08BB394F897
:1027F0002910204607F0D4FE024678B3304607F091
:10280000B9FF1D4D002834D113693BB33A46314618
:10281000204698470346FFF799FD2B5024E0818D11
:10282000C9B208F09EFA05460028E0D0304607F00D
:10283000A1FF024668688368CAB99B6873B13A46CB
:102840003146BDE8F0411847818DC9B208F070FAF1
:10285000E9E790F8291008F0A7FAE4E7FFF776FD1A
:10286000054B6FF085021A500020BDE8F081DB684F
:10287000E4E7D368C9E700BF0C0000002DE9F04F82
:102880000B7E33F0800893B004460D46164640F0A8
:102890008E847AB10846FFF75FFF6B7EDF0703D4B3
:1028A0009E0711D52B7E7BB9204613B0BDE8F04FB3
:1028B00007F08CBF4A7E00F12809900708D5802BCD
:1028C0000CD12846FFF748FF404613B0BDE8F08F13
:1028D000910700F02784002B40F02484D2072FD5E5
:1028E0002B8A082B40F00684EA681368A3625368B9
:1028F000C9F804302946002007F06CFD054610B1E8
:10290000FFF72AFFEFE0484607F034FFE28D70B989
:10291000B2B12946A06909F004FB0146002800F085
:102920002D84204613B0BDE8F04F08F0C3BB3AB188
:102930001146204608F0B9FB0546002800F01E8429
:10294000FFF704FD94F82880B14F002318F0600FC2
:10295000C351C8F3411307D0032B40F0BD81FFF7EB
:10296000F5FC6FF0850337E0484607F003FF94F865
:102970002930002840F04E81013B0A2BEFD801A2FC
:1029800052F823F0FB2A00005F290000872B00008B
:102990005F290000B12900005F2900005F290000C5
:1029A0005F290000212A00005F290000832A00001F
:1029B000618D7F29D3D8A38D002BD0D1E38D002B3F
:1029C000CDD118F01F0FCAD194F83030022B05D1A9
:1029D000FFF7BCFC4FF0FF333B5076E0A069036982
:1029E00093F880301B0707D5C9B207F025FF804652
:1029F00028B1002D6CD167E7012384F8393094F8B1
:102A00003030012B0AD1638D43B984F83030FFF7A1
:102A10009DFC3B58002B00F0858056E00123F4E735
:102A2000204607F01CFD628DFF2A014697D8E38DF2
:102A3000002B94D194F82830D80690D194F83030F7
:102A4000002BC5D02AB1D2B2204608F097F8002852
:102A5000BED0618D94F838308B42D8D0C9B22046B0
:102A600008F093F880460028C3D1628D002A14BF75
:102A70000223012384F830300521204608F0A5FB0D
:102A8000C5E708F01F08B8F1010F7FF468AFE38DC8
:102A9000002B7FF464AF628DFF2A3FF660AFA18DFB
:102AA000FF293FF65CAF94F83030022B90D1D2B2C0
:102AB000C9B2204608F07CFA10F1020F804640F0BF
:102AC0001081FFF743FC47F8008065B14FF0000824
:102AD0002846FFF741FEB8F1000F7FF4F5AEFFF78F
:102AE00035FC3B58F3B1484607F044FE0346A06965
:102AF000002B00F04F83802155E3E38D002B7FF402
:102B00002EAF94F83030002B3FF462AF012BA18D33
:102B100002D100297FF45CAF18F01F080CD0B8F187
:102B2000020F16D0E38D002B40F0D782204607F02D
:102B300037FE0028D7D1B7E600297FF449AF638D6F
:102B4000012BEFD194F86C3061F3C30384F86C303F
:102B5000E8E7B4F82AA0BAF1000FE3D15FFA81F8F0
:102B60004146204608F017FB0346FFF7EFFB3B50BA
:102B7000013302D14FF0FF383BE752464146204631
:102B800007F0FEFD43E7E38D002B7FF4E8AE628D96
:102B9000A38D022A5FFA83FA11D108F01F085AEABE
:102BA00008087FF4DCAEA0690122190A07F021FEB3
:102BB00000287FF4D4AE012384F8393027E794F855
:102BC000301000293FF404AF012902D1002B7FF41B
:102BD000FFAE18F01F0811D0B8F1020FA2D1002AE1
:102BE000A0D15146204608F0C1FA0346FFF7AEFBDC
:102BF0003B500133BED001225146C0E7002B7FF489
:102C0000E7AE012A8ED194F86C3043F008039DE7BB
:102C10000C0000000A2B3FF6A2AE01A252F823F0EE
:102C20004D2C00005F2900005F2900005F29000093
:102C30005F2900005F290000C72C00005F29000009
:102C4000573000005F29000081300000E38D022B27
:102C50007FF485AE94F83030002B3FF4B9AE012BF1
:102C6000A18D02D100297FF4B3AE18F01F0811D056
:102C7000B8F1020F1CD04FF0000805F10C0A5046C5
:102C800007F070FDE38D984218D2FFF75FFB6FF0FD
:102C90000B03A1E600297FF49BAE94F86C304FEA59
:102CA000930808F00208C3F3001348EA0308E4E7B6
:102CB000C9B2204608F07EFA8046DEE7414650461B
:102CC00007F0ABFBA3E6B4F82AA018F01F0F4FEAF9
:102CD0001A235FFA8AFA09D029462046FFF778FDC1
:102CE0008046B8F1000F7FF484AE90E6013B0E2BD6
:102CF0003FF635AE01A252F823F000BF392D000097
:102D0000792D0000232E00005F2900005F290000BC
:102D10001B2E00001B2E00005F2900005F29000011
:102D20005F2900005F2900005F2900005F29000083
:102D30005F290000652F000005F10C08404607F0F0
:102D400011FD83462046B4F82EA007F088FB20B181
:102D500001287FF404AE616F00E0216F002900F0CC
:102D60002A820A78DA4528BFDA46524528BF5246F9
:102D7000404607F041FB4AE6204607F070FB0AF1A7
:102D8000010201900146D2B2204607F0D1FE8046F2
:102D900000283FF4E4AD05F10C0AD0F804B0504629
:102DA00007F0E0FC9BF80020824228BF024659460B
:102DB000504607F021FBD8F80CB0BBF1000F09D149
:102DC000298AE38D99427FF622AEC91A504607F050
:102DD0002EFB1CE6DBF8040083681B6B13B9DBF8E1
:102DE00000B0EAE7019998470028F8D0A0F104085C
:102DF00058F8041F0029F2D00A78002AEFD0504674
:102E0000CDE9022107F0AEFC029A0399904238BF47
:102E100082B2504607F0F0FAEAE7204607F01FFBBF
:102E20009DE552460321204607F0FAFB8246002822
:102E30003FF495AD07F091FCB4F82EB09AF8153038
:102E4000C8B99AF814808DF828808DF82930DAF8FE
:102E5000103005F10C0A1B88ADF82A30504607F0F7
:102E600081FCC3455A4628BF4246824228BF0246DB
:102E70000AA950467DE7DAF808208DF81530C14BD5
:102E80001340C14A4FF0000893428DF8148058D186
:102E9000102106A809F072FA021EFFF660AD0AA919
:102EA000102ADFF8E8E20DF1180C084628BF1022BE
:102EB000424501F1020133D8920002325FFA82F8F2
:102EC0008DF81480034605F10C0A5046029307F072
:102ED00049FCD845424628BF5A46904228BF104672
:102EE00002288346804628BF4FF0020B5A46A8EBC3
:102EF0000B0805A9504607F07FFA4FEA58030193E3
:102F0000029B9B4603EB5802934521D118F0010F19
:102F10003FF47DAD019A995C504607F076FA76E56C
:102F20001CF8013B4FEA131A03F00F031EF80AA026
:102F30001EF8033001F802AC01F8013C08F1010869
:102F4000B6E79AF81480DAF810308DF81480BAE7F2
:102F50001BF8011B5046CDE9023207F05EFADDE9AD
:102F60000232D1E7204607F07AFA38B101282CD096
:102F7000FFF7ECF96FF085033B5048E5236F002B1A
:102F800000F019815B88B3F5007FF1D9804B0A937B
:102F900000238DF82C30E36C04F14C0B9B4508BFEB
:102FA0000023BDF82A10A3B15A7D0F2A08D11A7D3B
:102FB0000A44ADF82A209DF82C2001328DF82C20EF
:102FC000226D934203D01B68EBE7636FD7E7BDF830
:102FD0002A10019105F10C0A504607F0C3FBB4F822
:102FE0002E800199884528BF8846804528BF8046A5
:102FF0004246052A28BF05220AA95046019207F039
:10300000FBF9019AB8EB02083FF401ADE36C5B45B4
:103010003FF4FDAC002B3FF4FAAC5A7D0F2A14D1DB
:103020001A7D19690193424528BF4246504607F070
:10303000E3F9019B1A7D424594BFA8EB0208A8EB77
:103040000808B8F1000F3FF4E2AC226D93423FF460
:10305000DEAC1B68DEE794F83030002B3FF4B8ACF0
:10306000E38D012B7FF47BAC05F10C08404607F0A3
:1030700079FB00283FF409AE94F8381040464CE73D
:1030800008F01F08B8F1010F7FF4A2AC204607F04A
:1030900063FD00283FF49CACB4F82CA0BAF1FF0FFC
:1030A0003FF65DAC43681B795345FFF458AC5FFABB
:1030B0008AF30F2B3FF653ACE38D012B7FF44FAC1B
:1030C00005F10C08404607F04DFB00283FF4DDAD4C
:1030D00004EB0A0393F83A10D0E7484607F04AFB9E
:1030E00018B92846FFF738FB20E52946204607F0A7
:1030F000E1FF08B1284603E4A069036993F8801052
:1031000011F004017FF4D0AB08F01FFF0546002842
:103110003FF4E9AC0146204607F0CCFF00283FF41D
:10312000C3ABE7E752077FF5DEAC002B3FF4C9AB3A
:103130002846FFF711FB94F83930002B3FF4C4AB5D
:1031400094F82930052B05D1618DA069C9B207F02B
:1031500073FB064694F82930032B09D1638D022BAB
:1031600006D1A18DA0690022090A07F042FB06469C
:10317000002384F83930B046FFF7A6BB6FF00B068A
:10318000B1E400BF00FF020000030200F5E9000007
:10319000050F0500E38D002B3FF4ADAC16F10C01DB
:1031A00018BF0121C90108F0D5FDFFF77DBB6FF005
:1031B0000408FFF789BB6FF015081AE40B78062B9B
:1031C00010B414D10369D3F89C20EFF311842023A9
:1031D00083F31288BFF36F8F4B6800201860506A2A
:1031E00058B9C2E9083384F31188BFF36F8F0448DC
:1031F00010BC002200230AF07FB803605362F2E79C
:10320000900600202DE9FF4120264FF0FF335E4855
:103210004FF0FF3201A904F011FE039B1B69D3F8A4
:103220009C40236A93B1EFF3118286F31288BFF3B7
:103230006F8F216A29B1606A0B682362814208BFDF
:10324000636282F31188BFF36F8FC9B99DF80430B0
:10325000062BDAD0072BD8D801A252F823F000BFF2
:10326000B3320000A7320000D3320000B9320000B0
:10327000F7320000ED3200000B3200008133000015
:103280000B7ED1F81E205D06204609D1FFF7F6FA25
:1032900002460028C5D00721204607F096FFC0E768
:1032A00007F056FDF4E700220121204607F08DFFCC
:1032B000ABE700221146F8E794F86C3043F00403C2
:1032C00001A984F86C30204607F0DEFA00220321C1
:1032D000EBE794F86C3023F0040301A984F86C3018
:1032E000204607F0D1FA00220221DEE701A920469C
:1032F00007F0CAFA89E794F86C30A76923F0040351
:1033000084F86C30D7F808803B69BFF35B8FD3F843
:10331000A030BFF35B8F9A072FD5D8F83C303846E2
:103320009847D8F82430002138469847D8F84030DC
:10333000054638469847ADB92946204607F025FC92
:10334000054678B9A06908F01FFE831E584258410F
:1033500094F86C3084F8305023F0680343EA40134B
:1033600084F86C3000220421204607F02EFF002D47
:103370003FF44BAF2A46072197E74FF0FF35F1E7BF
:10338000029A062191E700BF9006002030B589B06F
:1033900000220023CDE9062300246FF00703CDE9C6
:1033A0000334CDE901441A4B1A4900944FF480626A
:1033B000194805F081F9194917480AF0F4F8184B33
:1033C00018498B4207D3184B184900208B4210D361
:1033D000002009B030BD03F11402BFF35B8F52E847
:1033E000000F42E80045002DF9D1BFF35B8F183381
:1033F000E7E703F11402BFF35B8F52E8004F42E8A6
:103400000005002DF9D1BFF35B8F1833DEE700BF55
:1034100005320000F81400209807002001E90000A0
:103420007C070020940700209407002094070020C8
:1034300038B5024609490546806908F00BFE044686
:1034400048B985F83800284607F075FA044610B1E7
:10345000A86908F032FE204638BD00BFBD3100002B
:1034600070B5084C084E0546B44202D300242046ED
:1034700070BD636828461968FDF7ACFE0028F6D0D9
:103480001834F1E77C0700209407002070B5064649
:10349000EFF31181202383F31288BFF36F8F1B4D4D
:1034A0002A6881F31188BFF36F8F526892F86C20FD
:1034B000D20705D4BDE870402122002305F04EB8A4
:1034C000EFF3118283F31288BFF36F8F2C682CB156
:1034D000696823682B608C4208BF6B6082F3118897
:1034E000BFF36F8F44B1606804F10801C369984766
:1034F0000748214609F0B0FE2B6833B13046002260
:10350000BDE87040002304F0F5BF70BD80100020BE
:103510001006002030B585B0CDE900120546002226
:103520001448002303A904F0F5FB0246E8B9039B05
:10353000DDE900015D60083383E80300EFF31180EB
:10354000202383F31288BFF36F8F039B1A600A4A0C
:10355000516861B9C2E9003380F31188BFF36F8FFE
:1035600006480022002304F0C5FF05B030BD0B6003
:103570005360F1E7100600208010002000000020BA
:1035800038B54B78046945682069202B08D0222B78
:1035900019D0FEF7DBFE114B6FF085021A5010E0D8
:1035A000CB88072BF5D1D3681A6842609A880281CC
:1035B0009B79837207F02AFE22460821284607F0ED
:1035C00012FE002038BD4B888381C3F3400203F014
:1035D00001030276437622460921EFE70C00000042
:1035E00008B513464A78212A14D133B9FEF7AEFE46
:1035F0000B4B6FF00B021A500AE0CA880169096987
:10360000072A28BF0722043103F10C0006F0F4FE5C
:10361000002008BDFEF79AFE014B6FF08502EAE735
:103620000C00000073B504698DF807102025EFF336
:10363000118685F31288BFF36F8F0122E06B0DF1C5
:10364000070106F02CFE86F31188BFF36F8F012867
:1036500010D009F0A2FFA8B10E4BBFF35B8F01227F
:1036600053E8001F002903D143E800200028F7D1C8
:10367000BFF35B8F2122002304F1480004F03AFFDE
:1036800002B070BDA37E002BE6D0002121200AF0FD
:1036900049F8CCE78810002038B505690E49EB6B76
:1036A0000024C3E90144DC606B6B05F14800C3E909
:1036B0000144DC6009F058FF05F17800074909F082
:1036C00027FF074905F1240009F022FF284607F0EB
:1036D0009DFD204638BD00BFDBB3000025B70000CC
:1036E00077B60000F8B587681446FB6B05460E46B2
:1036F00098472146064800220023FEF7AFFF044604
:1037000000B1067628463B6C98472046F8BD00BFBE
:10371000DC06002010F0080F0B4B42B20CD100F079
:103720000F00002A4FF0140202FB0033B4BFD3F89D
:103730000806D3F808077047002AB4BFD3F8A806D4
:10374000D3F8A807704700BF00700240F8B50246E2
:10375000EFF31181202383F31288BFF36F8F00F002
:10376000080508F0E3FC0124844057066FEA0406CC
:103770001BD0D5B9174F3B6823FA00F0C00714D50A
:1037800033403B6053B2DB4322F08000DB0F00F29A
:10379000DA301B0103EB40030F48C0F80038D0F8C3
:1037A000043843F00203C0F804380C48036833407F
:1037B000036035B90A480368120654BF33402343F7
:1037C0000360054BC3F86C4481F31188BFF36F8F1E
:1037D000F8BD00BFE410002000700240E810002097
:1037E000EC100020EFF31180202383F31288BFF345
:1037F0006F8F0A4BD3F8001C032261B949F275316F
:10380000C3F8001CC3F8142DC3F8001C80F3118802
:10381000BFF36F8F7047C3F8142DF7E700E0064041
:10382000EFF31180202383F31288BFF36F8F0A4BCD
:10383000D3F8001C61B949F27532C3F8002CC3F803
:10384000141DC3F8002C80F31188BFF36F8F7047ED
:103850000022C3F8142DF6E700E0064070B50246DA
:1038600008F064FCEFF31185202383F31288BFF383
:103870006F8F531E0124062B04FA00F40FD80E4E4E
:103880000E4B31681B680B43C34013F0010306D194
:103890000B4802F59472214340F822303160094A06
:1038A000136823431360084B8022C3F8042185F377
:1038B0001188BFF36F8F70BDE4100020EC10002062
:1038C00000700240E810002000E100E0F8B50306B7
:1038D000044623D410F0080720D100F00F02920014
:1038E00002F1804202F51C32D2F84434B3B1EFF356
:1038F0001186202383F31288BFF36F8F08F016FC24
:10390000084DC2F8A074012303FA00F12B6823EAE2
:1039100001032B6086F31188BFF36F8F024BC3F84E
:103920001845F8BDEC1000200070024010B591F968
:103930001800154B0A7E0028B4BFD3F81045D3F801
:10394000144502F00F020123934023420DD10E4A89
:103950000028B5BFD2F81005D2F81405034303437D
:10396000B4BFC2F81035C2F814350B7E1A0709D45B
:10397000054AC2F80C3543F48073C2F80C35087E52
:10398000FFF7A4FF002010BD007002400B7E064A26
:1039900013F07F0F0BBF012343F480735365C2F80C
:1039A00018350020704700BF0070024070B5064611
:1039B0000D4608F02DF8044608F033F828BB2046E1
:1039C00008F052F808B3802D16D1437E9A0744BF01
:1039D0000E4A15705B070FD50D4B1B7813B90D4BB5
:1039E00001221A65204608F03BF8002201463046C5
:1039F000BDE8704008F051B82846FFF72FFF204679
:103A00000121BDE8704008F010B870BDE514002039
:103A1000EA1400200070024070B506460C4607F01C
:103A2000F7FF054607F0FDFF20BB284608F01CF80D
:103A30000146F8B1ACB9437ED8071BD49A0704D528
:103A40000D4B1C700D4B0122DA644B7E5B0708D5D1
:103A50000B4B1B7873B130460022BDE8704008F074
:103A60001CB82046FFF7FAFE28460121BDE8704049
:103A700007F0DBBF70BD00BFE514002000700240FE
:103A8000EB14002010B54468206801F00FFB0D4BCB
:103A900018600D4B1B782BB10C4B00221868114697
:103AA00007F0EFFF002201212720FEF769FB201D10
:103AB00003F06AF804F1080003F0A4F809F0A3F990
:103AC000002010BD9C100020E7140020F010002002
:103AD000012810B5014619D0022809D0A8B90F4B0A
:103AE0000246186807F0CDFF0D4B01221A700CE05A
:103AF0000C4B0D4C00221A700C4BC4F800332720DD
:103B0000FEF70EFB0123C4F8043510BD034B002261
:103B1000186807F0B6FF024B0022E7E7F01000201C
:103B2000E7140020E614002000700240FDFFDF01D2
:103B30000146014809F08CBFC806002008B5054BB6
:103B40001970054B1B7813B10420FFF7F1FF00201B
:103B500008BD00BFE8140020E914002010B5046976
:103B6000087E0D4A08F0E2FA012303FA00F0136818
:103B70000343136004F056FF4020FFF7D9FF4FF0D6
:103B8000FF324FF0FF3304F18401044804F026FDB6
:103B900004F05CFF002010BDE0100020D4060020DF
:103BA0002DE9F043474B066989B00546186006F1D8
:103BB000840009F0B0FB00220023CDE90623002495
:103BC0006FF00703CDE90334CDE901443E4B3F4993
:103BD00000954FF400723E4804F06EFDDFF8F4806B
:103BE0003D493B483D4F09F0DEFCD8F810203C4BE6
:103BF000134043F4820343F04003C8F81030C14639
:103C000088F818404146284607F014FF002855D18F
:103C10000134092C18D009EB4411082C8A7C314B53
:103C200042F040028A7408D1D9F810212E4911407F
:103C30002E4A0A43C9F8102103E00A693A401A43A0
:103C40000A6108F12008DBE7294C2A4B2269234F3F
:103C5000134043F4041343F0400323618046A1461C
:103C600068F07F0222762146284607F0E3FE28BB53
:103C700008F10108B8F1090F18D009EB4811B8F1A3
:103C8000080F8A7C174B42F020028A7408D1D9F8B9
:103C9000102115491140154A0A43C9F8102103E0C3
:103CA0000A693A401A430A612034D9E796F880300D
:103CB00023F0720343F0720386F8803009B0BDE848
:103CC000F08300BFF0100020A13D0000F818002094
:103CD000200800201412002019E900000000F9FF5C
:103CE0000000BEFF400006000000F7FFFF010800D3
:103CF000F41000200000DEFF10B50C4620461146EF
:103D000007F0B4FE207E08F011FA0146034808F0DF
:103D10001CFA0120FFF70CFF002010BD3813002013
:103D200008B5064A0B7EC2F80C3543F48073C2F81E
:103D30000C35087EFFF7CAFD002008BD0070024068
:103D400010B50C7E4FF0FF324FF0FF33114804F0F6
:103D500001FA2046FFF7FAFC04F00F02012393401A
:103D60000D4A14F0800F14BFD2F81015D2F81415B4
:103D70006FEA030315BF0B400B40C2F81035C2F8C1
:103D80001435044804F0B2F9044B8022C3F804212E
:103D9000002010BDB80600200070024000E100E0E5
:103DA0002DE9F04FB04D85B004464FF0FF384FF08D
:103DB000FF390022CDE900894FF0FF31AB4809F00F
:103DC0004EFEAA484FF0FF3109F045FE074638077E
:103DD0002ED5A74842464B4604F0BCF9EFF31182BA
:103DE000202383F31288BFF36F8FA24B1B787BB124
:103DF000D5F8003413F400730AD10121C5F82C154D
:103E0000D5F82C15D5F80014890548BFC5F82C3510
:103E100082F31188BFF36F8F954804F067F9012191
:103E2000204607F0D5FD00220321204607F029FE99
:103E3000FE0608D50021204607F0CAFD0022022117
:103E4000204607F01EFEB80608D50021204607F0E0
:103E5000BFFD00220221204607F013FEB90761D4FE
:103E6000FA0710D5BFF35B8F834B002253E8008F16
:103E700043E800210029F9D1BFF35B8F0126B8F197
:103E8000000F40F0B180790734D57C4B4FF0000C27
:103E900083F800C0D5F88004C0B28DF80800D5F8CA
:103EA0008414C9B28DF80910D5F88834D5F88C245B
:103EB00043EA02239BB2ADF80A30D5F89024D5F836
:103EC000946442EA0622ADF80C20D5F89824D5F87F
:103ED0009C6442EA062292B2694EADF80E20002898
:103EE00040F09B80052940F0988001213170002A24
:103EF00000F09F807B067FF558AF206984304FF03B
:103F0000FF324FF0FF3303F0FDFF5E4E31680029B2
:103F100040F0C2805C4804F027FB2069843004F044
:103F200063F842E7594BBFF35B8F002253E8008FE1
:103F300043E800210029F9D1BFF35B8F4FF0010A5C
:103F4000B8F1000F8CD098FAA8F3B3FA83F30F2BD3
:103F50001E46C6BFA3F11006F6B246F080060AFA66
:103F600003F328EA030833063146204627D507F035
:103F70004FFD834607F074FD8146D8B100215846B5
:103F800007F053FD00224946204607F086FD802EAB
:103F900010D13A4B002183F800A02046C5F850A06C
:103FA00007F036FD07F05CFD014618B100222046FF
:103FB00007F073FD31462046FFF7F8FCC0E707F035
:103FC00027FD834607F04CFD814640B1002158464D
:103FD00007F02BFD00224946204607F05EFD3146E2
:103FE0002046FFF719FDABE798FAA8F3B3FA83F37D
:103FF0000F2B1946C6BFA3F11001C9B241F08001D1
:1040000006FA03F30A0628EA0308204602D5FFF75A
:10401000CDFC34E7FFF700FD31E71D4A86F800C00C
:10402000D5F8703412789A420AD11A4B00221A70CD
:1040300014E003F07F03ADF80A30ADF80C20F4E78C
:10404000144A0123137033704FF4A063ADF80830A5
:10405000D5F87034ADF80A30CDF80CC002A920466E
:1040600007F042FD46E700BF00700240C80600208E
:10407000B8060020E614002038130020EB140020BE
:10408000EA140020E0100020D406002034130020A1
:10409000E8140020E914002091FAA1F7B7FA87F795
:1040A0000F2F3946C6BFA7F11001C9B241F08001F8
:1040B000204607F0ADFC804690F818904FF0FF3294
:1040C0004FF0FF33134804F045F84846FFF73EFB36
:1040D000104804F00BF8104B8022C3F8042141462D
:1040E000204607F0F2FC0021404607F09EFCBFF39B
:1040F0005B8F0123BB40094ADB4352E8000F1840A5
:1041000042E800010029F8D1BFF35B8F3268134009
:104110003360FBE6B806002000E100E03413002025
:104120004FF08053D3F83031082B02BF024B0022EE
:10413000C3F81C2C704700BF007002402DE9F0410D
:1041400005464FF0FF324FF0FF33384804F002F8D5
:10415000374B8022C3F884212720FEF703F8A0B153
:10416000344F354B3C681B686FF30F041C434FF012
:1041700001088CBB314E40F2FF133B602720C6F88C
:104180000445FDF7DBFFC6F800432D4A13788BB1D9
:104190002A4B0021C3F808110121C3F80026C3F8F7
:1041A00004165960D3F808110029FBD00021C3F888
:1041B00008111170214B0024C3F80045FFF7B0FF30
:1041C0001A4803F093FF2146284607F088FDC0B146
:1041D0006FF00400BDE8F08194FAA4F6B6FA86F612
:1041E0000F2E3346C6BFA6F11003D8B243F08000AD
:1041F000030701D4FFF7AAFA08FA06F624EA060430
:10420000B7E78021284607F06AFD0028E0D10D4B72
:104210000D491C68204605F0BAFF10F1780F02D155
:10422000204605F090FF00EAE070D3E7B8060020D2
:1042300000E100E0EC100020E810002000700240D7
:10424000E31400209C1000208C1000202DE9F04F7A
:10425000B34BDFF8D082D3F85421B34F85B00AB303
:104260000022C3F85421D3F8042391021AD5D3F8BD
:10427000C034002B14BF4FF001224FF48072AB4BBF
:104280009B683BB998F8000007F050FF012383407A
:1042900022EA03023B681343A54A3B60136823F0FC
:1042A000012313609E4BD3F8604134B10022C3F860
:1042B0006021D3F86C44C3F86C44D3F828214AB188
:1042C0000022C3F828219B4B187807F02FFF012309
:1042D00083401C4398F8005098F900902A0700F199
:1042E0000181B9F1000FB4BF934B944B05F00F025D
:1042F000920013441A684AB300221A602846FFF756
:1043000009FA8F4B1A7800F0010050401870FFF73F
:1043100007FF8C4B28461A6807F008FFC240D307F6
:10432000064600F1F680B9F1000F80F2E280882D98
:1043300000F0DF807E4A01231168B3400B43136015
:10434000812388F80030794803F0D0FE8CB13B68B7
:10435000774ADFF8F4A124F001210B433B60136896
:1043600023EA01031360A4B24FF00109002C40F0CE
:10437000F7806B4BD3F800214AB10022C3F800212B
:10438000724B1A70704B0421186807F07AFB644B6B
:10439000D3F858212AB30022C3F85821D3F8004497
:1043A000C3F80044E00505D5684B012208201A70C7
:1043B000FFF7BEFBA10505D5644B002210201A7043
:1043C000FFF7B6FB62050CD5604B1A784AB10022A4
:1043D0001A70534B0122C3F8082520209A65FFF775
:1043E000A7FB4F4BDFF85CA1D3F85C31F3B14F4B27
:1043F0009B681BB998F800305B0617D0484B002229
:10440000C3F85C21DAF80030494A23F00113CAF8F6
:1044100000303B6823F4803343F001033B601368B2
:10442000042023F001131360FFF782FBDAF8006029
:104430003B681E4000F02E81394BD3F82C95B9F122
:10444000000F40F0278139480022002303F082FE4C
:10445000002840F01F8116F0012314BF93FAA3F641
:1044600096FAA6F6B6FA86F6F4B20F2EC8BF103C3E
:10447000354BCCBFE4B244F080041868214607F005
:10448000C7FA019007F0F0FA4FFA84FB04F0080332
:10449000BBF1000F0246029380F29C80019A058ACC
:1044A000518BC368C1F30A018D4240F28A800D46E8
:1044B0004FF0000903F06042B2F1005F05D01946E9
:1044C00023482A4609F0D6FA214BB9F1000F00F033
:1044D000B280DAF800200121B14022EA0102CAF8D4
:1044E0000020A8E01B4B1C4A33EA290328BF1346CF
:1044F00000E71A48314607F028FE0220FFF718FBB4
:10450000B9F1000FFFF616AF013D062D7FF612AF91
:1045100016E7002DF4D1024B0122DA6410E700BF48
:1045200000700240E4140020EC100020B8060020C7
:10453000E4100020E51400200871024030710240B0
:10454000E3140020E8100020F0100020E614002002
:10455000A0100020507102402C7102403413002042
:1045600094FAA4F5B5FA85F509FA05F345F0800546
:104570002946DAF8000024EA030407F049FA07F0B4
:1045800073FA06462846FFF7C5F8014606F10C0007
:1045900005F054FF338A002B7FF4E8AE304607F075
:1045A00067FA18B1304607F067FADFE6284607F0E9
:1045B000BDFD0146434807F0C8FD0220FFF7B8FAE9
:1045C000D4E6019307F054FA80F00109019B5FFAE9
:1045D00089F96FE704F008013B4B00295DD0D3F85F
:1045E000C03413F4803F08BF9946118AD068558AB9
:1045F000029243186D1A51690393401A2D1A4D45C2
:1046000028BF4D46294602F10C0005F0EFFE019B44
:10461000598BC1F30A014945DDE902237FF459AF03
:104620005169D068B2F812C0128A401AACEB00018E
:1046300091423FF44EAF4FF080520120D2F830212A
:10464000082A02BF204A8221C2F81C1C3A6888F856
:10465000004000FA06F622EA060204F008013A6079
:10466000194AF9B9BBF1000F04F00F044FF014011F
:1046700001FB0421A9BF0A3402EB8402C1F8003710
:10468000C1F80457AFBF42F82400C1F80036C1F8A2
:104690000456506005B0BDE8F08F04F5947153F8EE
:1046A0002190A2E7BBF1000FB5BFC2F8A036C2F857
:1046B000A037C2F8A456C2F8A457B4BF50629064A1
:1046C000E8E700BF341300200070024010B5EFF39C
:1046D0001184202383F31288BFF36F8F164B1B784E
:1046E00003F0FF02CBB11549D1F82C3513B30023E9
:1046F000C1F82C354FF08053D3F83031082B0CD152
:104700000F4BD3F8000CC02188B949F27530C3F8BB
:10471000000CC3F8141CC3F8000C84F31188BFF319
:104720006F8F002A0CBF6FF00A00002010BDC3F885
:10473000141CF2E71A46F0E7E6140020007002406D
:1047400000E0064013B500220092114640230446C3
:1047500007F06AFA024618B16FF0040002B010BD0B
:10476000009040238021204607F05EFA0028F3D114
:10477000534901238B60534B4860C860186805F0AB
:1047800097FC0028EADBEFF31184202383F31288DF
:10479000BFF36F8F4C4B4FF40062C3F8002407F057
:1047A000B7FC08B1FFF71EF84FF08053D3F8303153
:1047B000082B18D1EFF31180202383F31288BFF365
:1047C0006F8F424BD3F8001CC022002971D149F2EF
:1047D0007531C3F8001CC3F8142CC3F8001C80F317
:1047E0001188BFF36F8F384B0122C3F80025D3F82F
:1047F00000241205FBD54FF40062C3F800244FF0EB
:104800008053D3F83031082B17D1EFF311802023D8
:1048100083F31288BFF36F8F2C4BD3F8001C002951
:104820004AD149F27532C3F8002CC3F8141CC3F8FE
:10483000002C80F31188BFF36F8F07F069FC30B153
:10484000FEF7EEFF07F064FC08B1FEF7CBFF4FF078
:104850008053D3F83031082B1B4B0AD140F2E3725E
:10486000C3F800284022C3F80428BFF36F8FBFF3BA
:104870004F8F8022C3F81C250122C3F83025144B2A
:1048800040F2FF121A60134B00211960124B19609D
:10489000124B1970FFF744FC114B197007F038FCEC
:1048A00008B1FEF7BDFF84F31188BFF36F8F0020BE
:1048B00054E7C3F8142C92E70022C3F8142CB8E78D
:1048C0008C1000209C1000200070024000E0064088
:1048D000EC100020E8100020E4100020E314002079
:1048E000E5140020142870B503460C4612D80B4A74
:1048F00012F81010D4E9000502EB4302A0FB0106F8
:104900005278002301FB0561FCF7FAFBC4E90001C2
:10491000002070BD6FF01500FBE700BF06EA000045
:1049200030B585B000230193CDF807304B798DF871
:104930000B300B7913F0200519D08A797F2A08BF34
:10494000FF228DF80C20C3F3040203F01F03072B92
:104950008DF80D2015D80A780C2A12D8DFE802F05D
:104960000C09151117111911111B1D111F00FF2220
:10497000E7E701228DF806204A78032A11D0042A9D
:1049800012D06FF0150005B030BD0222F2E703220D
:10499000F0E70422EEE70522ECE70622EAE7072229
:1049A000E8E701228DF807204A8844F20A00824293
:1049B00028D843F6FE70824203D8002AE1D10222B1
:1049C0002FE0A2F57F523F3A0B2ADAD801A050F827
:1049D00022F000BF5D4A00008349000083490000C7
:1049E00083490000274A000083490000214A000053
:1049F0008349000083490000834900008349000087
:104A0000BF49000044F21400824225D044F228003D
:104A1000824223D044F20F008242B2D1032200E04E
:104A200001228DF808201A48012404FA03F390F8B3
:104A30005020DBB2F5B18D797F2D11D1134380F871
:104A400050300B7990F8512003F01F0304FA03F360
:104A5000134380F8513009E00422E2E70522E0E741
:104A600022EA03028DF8094080F8502001A808F0DE
:104A7000FFF988E7134380F850300B7990F8512004
:104A800003F01F0304FA03F322EA0303E1E700BF84
:104A9000D000002010B50B4C94F83A3023B1BDE89B
:104AA0001040094802F080BC02F0D0FB40B16FF02A
:104AB0000403636204F11400BDE8104007F082BBF8
:104AC00010BD00BFD0000020CD4A0000F8B503782B
:104AD000002B40F09480514CE36A94F850701F42D0
:104AE000254607D1A36A002B3FD14D48BDE8F840C9
:104AF00007F068BB94F89810A26D94F85160A1B9C2
:104B00000121DBB20B420BD00F4208D016EA010C98
:104B1000B2F9000024D000EBD070401010800232B7
:104B2000490089B2B942EDD9DCE73340018915D09B
:104B300002EB41019142D5D0B2F9003003EBD373BF
:104B40005B1022F8023BF5E732F91360002EB8BF84
:104B500022F8130001338B42F6DBC3E71846FAE76D
:104B60000028B8BFA2F800C0D9E7236C43B1B4F85D
:104B70004C202C492C48984701280BD0022831D0D2
:104B8000B4F84C30B4F848209A422BD90133A4F839
:104B90004C30002094F8983083B994F8521018B92A
:104BA000A36D03EB4103A365A06D02F00FFB28B1D9
:104BB0006FF004031A48636207F004FBE36B1BB950
:104BC000BDE8F840FFF766BFBFF35B8F55E8003FD5
:104BD0005A1E45E800210029F8D1BFF35B8F012B55
:104BE000EEDCF8BDE36B002B3FF47FAF94F8983018
:104BF000002B7FF47AAF0D4804F0FEFA75E7022B24
:104C000009D102F023FB0028EBD004486FF0040325
:104C1000436214306AE7052BE3D166E7D000002039
:104C2000E4000020F8000020E0DC0000300100205B
:104C3000094BBFF35B8F53E8002F511C43E8001072
:104C40000028F8D1BFF35B8F0AB9FFF723BF6FF0DD
:104C50000F025A62704700BFD000002010B50D4906
:104C60000D48002208F086FE002002F0DBF9044621
:104C700060B9024601210720FDF782FA0748C368A0
:104C800013B9043007F09EFA204610BD6FF00404FB
:104C9000FAE700BF314C000030010020D0000020B6
:104CA0002DE9FF410F464FF0FF336E484FF0FF32C2
:104CB00003F050FA7E68731EFE2B21D8002425468F
:104CC00026FA04F3DA0706D502F0F4F9E040C30748
:104CD00016D50135EDB20134082CF1D185B13B7CFC
:104CE000083B062B0CD8DFE803F0140B160B040B63
:104CF00018000221012D7A7C11D0002A00F0958045
:104D00006FF01504574807F05DFA204604B0BDE87F
:104D1000F0810021EEE70121ECE70321EAE7082A10
:104D2000EED8DFE802F005050505050505050500D7
:104D30003B68002B79D05C68002C76D1186801386C
:104D40007F2872D88DF808208DF809401B68464AE4
:104D50001B01013BADF80A30012382F898308DF831
:104D60000C3002AA414B304602F0E0F9044600281C
:104D7000C8D13A686B0012B1928902FB0333FA681A
:104D80009A426CD3384E86F8525096F89830B868EC
:104D9000B065B046002B51D03B689D890135A9B262
:104DA00002F014FA04460028ACD1BC46BCE80F005F
:104DB0002F4D0FC5DCF800302B6074623B68002B70
:104DC0004AD00FCB2F1D87E80F00F36BB762A6F810
:104DD0004C40002B40D0BFF35B8F58E8003F48E8C1
:104DE0000042002AF9D1BFF35B8F96F8981039BBC7
:104DF000F46B2048204A4FF400470023E4FB0701EE
:104E0000FCF7CEF90022CDE90001002305F12800CE
:104E100004F0BAF919484FF0FF324FF0FF3303F0B6
:104E200099F900B17062746A6CE70F4B002083F847
:104E300098000E4B304602F043F997E72946AFE75A
:104E400002F004FA0028E5D06FF00403A5F1240075
:104E5000736207F0B7F9DDE7FFF71CFEDAE76FF0E2
:104E60000B044FE7D4000020D0000020CD4A000002
:104E7000F80000203F420F0040420F00E4000020F5
:104E8000084B70B5C31A0D4607499B100446594399
:104E90000648402207F0A1F92B4601462046BDE80E
:104EA0007040184750130020B76DDBB638DC0000A7
:104EB00073B50C4C0C4A4023041B00930D460B4663
:104EC0000A49A41061430646094807F0B1F90146B2
:104ED00028B130462B4602B0BDE87040184702B0FA
:104EE00070BD00BF501300209FC20000B76DDBB63D
:104EF00038DC00000022F8B5012105461046FDF718
:104F00003FF9114801F05CFB0446D0B9286900F074
:104F1000CBF901F075FB2F690C49384605F0B5F85F
:104F2000031E09DB01263E642D69084905F11C00BA
:104F300005F0ABF8031E02DA1C462046F8BDEE640D
:104F4000FBE76FF00404F8E701500000B8E100004F
:104F50001FB500220123CDE902236C46074A6B46A8
:104F6000CDE9004407F094F928B94FF480420023BA
:104F7000684603F0EFF804B010BD00BFB1C20000F6
:104F800010B5EFF31184202383F31288BFF36F8FE2
:104F9000074A136823F00201DB07116002D40120E5
:104FA00007F01AFC84F31188BFF36F8F10BD00BFA8
:104FB000A013002030B4104B0C2202FB003301463A
:104FC0000020D3E90E529863EFF31180202484F37C
:104FD0001288BFF36F8F1C6C04F0C00444F002040D
:104FE0001C6480F31188BFF36F8F1DB12B460348FB
:104FF00030BC184730BC70475013002038DC00002C
:10500000012810B504460AD003280CD078B9084B03
:105010001B6C5B070BD1BDE81040FFF7CBBF00F066
:1050200051F92046F7E7BDE8104000F059B910BD2E
:105030005013002010B4EFF31180202282F3128865
:10504000BFF36F8F17490B6843F0020413F001039D
:105050000C601AD04FF08043D3F80C14D3F80C3402
:1050600013F0010311D0EFF3118182F31288BFF323
:105070006F8F0D4A136C03F0C00343F002031364F7
:1050800081F31188BFF36F8F012380F31188BFF381
:105090006F8F1BB110BC0020FFF78CBF10BC01202C
:1050A00007F092BBA013002050130020024AC3B2A5
:1050B0001C2000FB0320704750130020F8B528493E
:1050C000BFF35B8F0646012251E8003F41E8002014
:1050D0000028F9D1BFF35B8F33B9224922484B60D6
:1050E000CB608A6004F0E4FF731E012B2CD808F01B
:1050F00054FA044650B1EFF31185202383F312884C
:10510000BFF36F8F01244FF080470EE0174B1B78E1
:10511000002BF0D04FF080430222C3F8082305464D
:10512000F1E794B1284605F028F9D7F81824D7F804
:105130001834D203F5D59B0701D0012EF1D14CB123
:1051400085F31188BFF36F8FF8BD0021212008F08F
:10515000E9FAEAE74FF080430222C3F80423F3E7B9
:105160004C1300203C1300206C130020F11400208D
:105170000D4BBFF35B8F012253E8001F002903D1C1
:1051800043E800200028F7D1BFF35B8F0BD1074A1B
:105190000023D360064B536003239360054B1146F5
:1051A000186804F085BF7047C0130020A8130020C2
:1051B0007D520000A413002007B500220023CDE992
:1051C000002308484FF40032002303F0DDFF064BB4
:1051D000186804F0B8FF054B00221A6003B05DF8B0
:1051E00004FB00BFA0050020A4130020C013002072
:1051F00073B51D4D1D4CAE684C21F3682846984789
:1052000070B1002323701A46217809B1012A1FDDED
:10521000174A138007F0E8FA0123237002B070BD2B
:105220000C2133696A46284698470028E9D1114A7B
:10523000019B93FBF2F3009A03EB82030C4AB2F951
:1052400000201BB29A1A002AB8BF524212B2DBE702
:10525000094A1368013901332170136002B0BDE8B7
:105260007040FFF7A9BF00BF18DD0000EC1400205C
:10527000DC14002090D00300B813002008B50748C4
:1052800007F03FFF28B907F0AFFA054B01221A706B
:1052900008BDBDE80840034803F0BCB818DD0000B5
:1052A000EC14002010040020034B044A1860002373
:1052B0001360034A13607047A4130020BC1300203E
:1052C000B8130020024B00221A70FFF751BF00BF35
:1052D000EC140020014803F08FBF00BFA0050020A0
:1052E000024A136801331360FFF766BFBC13002046
:1052F00008B5074807F005FF38B10648FDF76CF917
:105300000448FCF7AFF9002008BD6FF01200FBE77E
:105310008CDC0000195300000A2838B5074D0446FC
:1053200004D1AB680D215B6828469847AB680348F9
:105330005B68E1B29847204638BD00BF8CDC0000B6
:105340002DE9F043476840F20636D0063B7C87B033
:1053500002EA060654BFC2F3401C4FF0030C01F0F2
:105360001F05B6F5837F144645EA43158DF803C043
:1053700044D00DD8062E16D005D8A6B1022E3FD0A7
:105380006FF0150037E0B6F5807FF9D101260AE00D
:1053900040F20222964235D0B6F5407F34D0B6F5C1
:1053A000007FEDD10226220330D57A6801238B409D
:1053B000C2F80835B868A0BB05F01F036D092DD0F1
:1053C000012D77D13E4A02EB8302C4F30043D2F8A9
:1053D000001783F00103C4F3404444EA430421F47A
:1053E000E16144EA8C0421F0070144EA06230B43FF
:1053F000C2F80037002007B0BDE8F0830726D2E7E7
:105400000426D0E70526CEE70326CCE7630341BF99
:1054100001237A688B40C2F80C35CBE74FF0A042ED
:10542000D1E70DF10202294607F057FC14F4403F82
:1054300080460CD1B868294607F084FCB8F1000F0B
:10544000D8D19DF80210B86801F0A6FAD2E74FF063
:10545000000901ABCDE90199CDE90439CDF80C90F3
:10546000B86803AA294607F00DFB4845C2DB14F4CF
:10547000003314D0C4F300449DF803308DF80E308F
:1054800084F001048DF80C608DF80D40B8684B462F
:1054900003AA294607F0A9FB0028CFDAAAE7CDE93D
:1054A00004330DF103030393B86803AA294607F0F8
:1054B000E9FAF1E703F5E07350F82330FFDE00BFAF
:1054C00000030050420970B5034602D0012A17D0EC
:1054D00070BD0D4E326951680029F9D003F01F03E9
:1054E00001250C689D400029F2D08A682A4002D02C
:1054F0004B68304698472CB1236821461C46F2E79A
:10550000024EE7E72346F8E770DC000054DC0000B9
:1055100038B54568A86890B107F00EFC014670B92F
:10552000A86807F0EDFB044658B902460649A8688A
:1055300007F0D0FB224605210620FCF721FE0020C3
:1055400038BD6FF00400FBE7C5540000F0B54468B7
:105550001646A068227C01F01F0587B045EA421577
:1055600000286DD0B6F5001F04D1294607F03DFC98
:10557000002056E06268607CC2F8240501AA002081
:10558000B6F5800F0190506037D1B3F1007F14BFA2
:10559000052304238DF804300023CDE9042303936D
:1055A000E36823FA01F111F001010DF103073AD18B
:1055B000B6F1A07F37D105F01F036A0903F5E07348
:1055C00026D0012A3FD1214A52F82330DB072AD4C2
:1055D000A0683A46294607F080FB16301BD0029798
:1055E000A06803AA294607F04DFA002819DBA06835
:1055F0000122294607F0A8FBBAE7B3F1C06F05D036
:10560000B3F1007F14BF01230223C3E70323C1E7E3
:105610004FF0A042D8E7A068394601F0C3F900284E
:10562000DDDA07B0F0BDA0683A46294607F055FB21
:105630000028D5D19DF80310A06801F0ADF9CFE79F
:105640006FF08500EDE751F82330FFDE00030050D6
:10565000036803F01F025B09026004D0012B0348BA
:1056600018BF002070474FF0A04070470003005063
:105670002DE9F04FDFF86C8185B01546824600EBCE
:1056800081010127514503D1002005B0BDE8F08F0D
:10569000DAF80030C3F3C72B1BF0080BC3F3C322A7
:1056A000C3F3080440F0978018F802601B0E40F224
:1056B000FF12944208BF4FF0FF34222B00F28E807D
:1056C000DFE803F0122227642A5F648C8C8C8C67DD
:1056D000728C8C8C8C8C8C8C8C8C8C8C8C8C8C8C24
:1056E0008C757A7D80838600C5F80C45601C45D09A
:1056F00003A80394FFF7ACFF039B07FA03F3C0F87A
:1057000008354FF0010916E0C5F814454FF00009BF
:1057100046E0C5F80845E9E7C5F808454FF0000937
:10572000631C2BD003A80394FFF792FF039B07FA97
:1057300003F3C0F80C350122DAF80030019303F4CA
:105740000040002803A80CBF93464FF001090394C2
:10575000FFF77EFF039A019B00EB8200C3F3412415
:105760003302D0F8002743EA84031F4C43EA0B03BB
:105770001440234343EA4903C0F800370AF1040AFE
:1057800080E7C5F80C454FF00109C9E7C5F8104599
:10579000BCE7C5F80845002EB8D14FF00009062631
:1057A000621CEBD00022C7E7C5F80C45F3E7C5F84B
:1057B00024454FF00109F3E7C5F8284596E7C5F8F9
:1057C0003045F6E7C5F83445F3E7C5F83845F0E766
:1057D000C5F83C458AE76FF0150056E76FF0850085
:1057E00053E700BF30EA0000F0F8FCFF014B012254
:1057F0001A60704700C000400C2903690BD15B6A36
:10580000064907484B4393FBF0F100FB113311604D
:105810005360002070476FF08500704790D0030000
:1058200040420F00044B00690022C3F80021D3F866
:10583000003102F05BBC00BF00C000407FB50569CD
:10584000AB6A63B321F040010C292BD105F110069E
:105850004FF0FF324FF0FF33304602F053FB134B53
:105860000193A86A0323002469460394029304F079
:105870001FFC4FF0FF324FF0FF33284602F06AFC66
:10588000A86A04F060FC0A4BD3F808256A6201227A
:105890005A60304602F0A8FB204604B070BD6FF09D
:1058A0000A00FAE76FF08500F7E700BFED57000048
:1058B00000C0004010B504690020FFF7F7FBA062AC
:1058C0004FF0FF320021204607F0CEFD04F110001A
:1058D00007F021FD002201210C20FCF751FC0C20D7
:1058E000FCF71EFC024B0122C3F80423002010BD6C
:1058F00000C0004010B50D290369144616D119885F
:10590000AF204FF6FF720023A1FB0001FBF748FC1C
:105910002D3820601048114600234FF6FF72A1FB7E
:105920000001FBF73DFC6060002010BD102910D184
:105930005B88642253434FF6FF71B3FBF1F12160A2
:10594000C1EB01415B1A43F6095253439B0A636062
:10595000EAE76FF08500E8E740420F00F7B52A2933
:1059600045680369144652D1AA7A1B8C12F02001B3
:105970006A7918BF1BB2002A49D0EA792E7C042A22
:1059800009BF2A68EA899268128909B1013EF6B214
:105990004FF47A7783FB0232A3FB073107FB021235
:1059A000A8796946CDE90032FEF79CFF074658BB4F
:1059B0000198009BC6F12001B6F1200200FA01F126
:1059C00023FA06F343EA01035CBF40FA02F21343F1
:1059D0006E694FEAE37C184661467EB1A6FB03017F
:1059E000AA690E4D002306FB0C11FBF789FB0C4B3B
:1059F000C61845EB0102B34293410BD3084A00237A
:105A0000FBF77EFBC4E90002384603B0F0BD6FF03F
:105A10008507F9E76FF02107F6E700BF20A107002F
:105A200040420F00F7B5002345680469074600228D
:105A3000684607F059FFDDE90023C4E9062328681A
:105A400007F05FFB20B96FF01206304603B0F0BDDF
:105A5000E869002846D1284606F025FE06460028BB
:105A6000F3D16B79002B65D02A79012393406360D1
:105A70002B7C23746B7C637404F12003A3600223EA
:105A8000E36095F8283083F00103A3747B68D8693C
:105A900000282CD17C68E0690028D6D094F820300A
:105AA0003D690121994003691B681942836814BF4D
:105AB0001B69DB6898472149606A214A0C464FF40C
:105AC00000470021E0FB074100232046FBF768FB6D
:105AD00002460B46684607F007FFDDE90023C5E9EB
:105AE0000623B2E707F00DFB0028B4D1ABE793F82B
:105AF00020105B8CD0F810C0D0F808E0DCF8004033
:105B0000DA0754BF43F4B01383F4D013012523F410
:105B100080128D40DB074CBF2C43AC43CCF80040D7
:105B2000DEF8003098470028B4DA10F1860FB1D0C3
:105B300006468AE76FF0850687E700BF3F420F0001
:105B400040420F00054BD3F81C312BB9044B187899
:105B5000003818BF01207047012070470020004026
:105B6000EE140020074BD3F8082142B10020C3F8FF
:105B70000801D3F80821D3F818350B7070474FF09F
:105B8000FF30704700200040024BD3F88004C3F878
:105B900080047047002000400020094B30B50546C6
:105BA000141A002C02DDD3F8084104B930BDC3F843
:105BB0000851D3F80841D3F818450C540130EFE7E9
:105BC000002000400D4B00221A700D4B01229A60FC
:105BD0008022C3F80423EFF31183202282F312887A
:105BE000BFF36F8F074A12781AB1074A0421C2F82F
:105BF000001183F31188BFF36F8F7047ED140020FD
:105C000000200040EE14002000E100E0014B0122E2
:105C10001A707047ED140020024B0422C3F80423CD
:105C2000704700BF00200040024B0422C3F8082345
:105C3000704700BF0020004008B5074BD3F80403AD
:105C400010F0800004D0054B1B7813B9FFF77AFFE2
:105C500008BD0020FCE700BF00200040ED1400203C
:105C6000034BD3F80801003818BF0120704700BF6C
:105C700000200040024B4FF40072C3F80423704729
:105C800000200040024B4FF40072C3F80823704715
:105C90000020004008B50B4AD2F804331B0605D497
:105CA000D2F8040310F0040005D108BDFFF7C4FFCB
:105CB0000028FAD1F4E7D2F80801003818BF012013
:105CC000F3E700BF00200040024B1960024B1A604E
:105CD000704700BF101400200C1400200E4A0F4B18
:105CE000117851B1D3F81C1139B18021C3F80813D0
:105CF0000121D960002313707047D3F8242122B109
:105D00000022C3F82421D3F82431054B1B6813B1BA
:105D1000044A116818477047ED1400200020004025
:105D2000101400200C140020F8B50E4607F035FCC6
:105D30001B4D90BB64240127BFF35B8F55E8003FE8
:105D4000002B03D145E80072002AF7D1BFF35B8F27
:105D500007D021200021013C07F0E4FC14F0FF04EF
:105D6000EAD1104B0022C3F81C21D3F81C110E49B4
:105D70000A7001229A6042F21074C3F81C65FFF7A2
:105D8000E1FE20B9012006F0E2FC013CF7D1054B11
:105D90000122DA6000232B60F8BD01232B60E0E7CD
:105DA0000814002000200040EE140020F7B5614ADE
:105DB000436805690024C2F800451F68064601AA29
:105DC0002146384606F0D0FB00280FDB019B3A68DD
:105DD00019791868FFF74CFC002807DB6B793669E6
:105DE000012B06D0032B03D06FF0850003B0F0BD6C
:105DF0001024AB79032BF7D1EB79002BF4D129795F
:105E000011B10229F0D10E212B68B3F5164F72D0D3
:105E10002BD8B3F5165F70D014D8B3F5966F6ED04B
:105E200008D8B3F5967F6DD0B3F5167FDCD14FF46B
:105E30001C3341E0B3F5166F67D0B3F5965FD3D14D
:105E40003D4B39E0B3F5E14F62D007D8B3F5615F60
:105E500060D0B3F5964FC7D1384B2DE047F61222EC
:105E60009342C1D14FF4000326E0B3F5613F54D013
:105E700011D8B3F5963F52D008D84DF6C0229342C0
:105E80004FD0B3F5614FAFD12D4B15E0B3F5E13FE6
:105E9000AAD12C4B10E0B3F5612F45D007D82A4A80
:105EA000934243D0B3F5E12F9ED1284B04E0284A1A
:105EB000934299D14FF080531E4A0C43C2F82435C7
:105EC000C2F86C4595E8030086E80300002404232B
:105ED000C2F80035C2F80841D2F808311D4B012143
:105EE0001160022022461970FCF74AF90220FCF7E3
:105EF00017F920467AE7184BDEE7184BDCE74FF43A
:105F00009E23D9E74FF4A033D6E74FF41D23D3E700
:105F1000134BD1E74FF46C13CEE7124BCCE7124B87
:105F2000CAE74FF46503C7E7104BC5E74FF080633E
:105F3000C2E700BF0020004000B0130000A04E00E8
:105F400000F0EB0000E0D70190D0030000705F0785
:105F500040420F00EE14002000509D00005027002A
:105F600000F0750000B0AF0300903A0100D0BE0E03
:105F7000F8B500240A4D0B4F2646131B002B02DDFB
:105F8000FFF7E0FD08B92046F8BDC5F81C61D5F85B
:105F90001C310B5D3E700134C5F81C35EDE700BFC8
:105FA00000200040EE14002070B5012383400F4A0A
:105FB000BFF35B8FDC4352E8001F01EA040542E8AF
:105FC0000056002EF7D1BFF35B8F4FF48032824032
:105FD0000748C0F80823BFF35F8FBFF36F8F03EA52
:105FE0000100003818BF012070BD00BF1814002048
:105FF0000010014070B41249D1E90034D01AC3181E
:1060000044F1000422F07F46C1E90034A6F50013F4
:10601000B3F5400F09D20B4B1B681A0A1B069C19DB
:10602000094B42F10005C3E90045EFF3118120233C
:1060300083F31288BFF36F8F70BC02F0ABBF00BF59
:10604000E00800201C140020E808002011B3BFF372
:106050005B8F0123104A834052E800CF4CEA030CC7
:1060600042E800C10029F7D1BFF35B8F0B4A4FF420
:1060700080338340C2F80433094BBFF35B8F1B6846
:10608000BFF35B8FC340DB0742BF064B4FF40032C8
:10609000C3F80021704700BF181400200010014011
:1060A0001414002000E100E00D4B1868010A0006FE
:1060B000BFF35F8F0B4BD3F80435181841F1000183
:1060C000B3F5801F0AD2084BD3E90023904271EB4D
:1060D000030303D210F1807041F10001704700BF4B
:1060E0001C14002000100140E80800202DE9F04FAA
:1060F00085B016461F469DF840A00446FFF754FFA2
:106100000190FFF7D1FFB04271EB07035ED23E4B27
:10611000301A67EB0101984271F1000109D36FF069
:10612000150520460199FFF791FF284605B0BDE807
:10613000F08F364B03EB0413D3E902239F4208BFD1
:10614000964254D032494FF4803804F1500508FA91
:1061500004F8AD00C1F848832046ADB206F0D0FA8D
:1061600026F07F4B05F1804504F5A87305F58835C9
:10617000DC464FF003090293029A2CF07F4341F86A
:106180002230C1F84483D1F80435224A6FF002006E
:10619000C01A604420F07F40904228D9286868B136
:1061A000D1F804350393A3EB0B0020F07F40B0F54A
:1061B000000F1CD9204606F0A3FA039BBAF1000F8A
:1061C000ADD109EB030C09F10109D5E7BAF1000FD4
:1061D000A5D10123104ABFF35B8FA34052E8000F03
:1061E000184342E800010029F8D1BFF35B8F07494B
:1061F0000E98230101EB0412C8500F9B5360C2E9B3
:10620000026700258DE700BF01008000D008002054
:1062100000100140FDFF7F00141400207FB51C4CCE
:106220001C4BC4F80833C4F848331B4B00254FF00F
:10623000FF304FF0FF31C4F80855C3E902014FF4B5
:106240008033C4F80433154B02264FF40032012189
:10625000C4F804631120C3F880212A46FBF790FF9D
:106260001120FBF75DFF0E4A0123A360236013603A
:106270000C4B0D4A0093CDE9015500232846FFF74A
:1062800035FF3046FEF71AFF284604B070BD00BF48
:106290000010014003000F00D008002000E100E0E2
:1062A00018140020F55F0000FFFF7F002DE9F74381
:1062B0002E4CD4F8043399070BD5D4F8043143B1EC
:1062C0002B4A0023C4F80431D4F804311368013395
:1062D0001360D4F80433DA0343D5BFF35B8F254B47
:1062E00053E8002F22F0010143E800100028F7D105
:1062F000BFF35B8FD30702D4D4F840318BB30025B2
:10630000C4F84051D4F84031FFF7CEFEEFF31182CC
:10631000202383F31288BFF36F8F174BD3E90267F3
:10632000B042B94120D34FF0FF304FF0FF31C3E905
:106330000201D3E900981D604FF48033C4F848335C
:10634000C4F84051D4F8403182F31188BFF36F8F05
:10635000B9F1000F05D0CDF8008032463B46002051
:10636000C84703B0BDE8F083A946EDE7001001403F
:106370001C14002014140020D008002030B5431C49
:10638000124C85B005D08442A8BF0446012CB8BF8A
:106390000124FFF789FE0E4B0C4DD3E90013401A80
:1063A000B0F5000F10D22218AA4228BF2A46521870
:1063B0004FF0000007490091CDE9010043F10003CF
:1063C000FFF794FE05B030BD2A46F0E7FFFF7F00DF
:1063D000E0080020F55F000008B5FFF765FE024BFE
:1063E0001B68C01A08BD00BFE0080020024AD2F8AE
:1063F0000034002BFBD0704700E0014010B54FF097
:106400008053D3F83021082A4ED14FF0804200212A
:10641000C2F80C11C2F81011C2F8381502F540424A
:10642000D3F80414C2F82015D3F80814C2F82415C0
:10643000D3F80C14C2F82815D3F81014C2F82C1590
:10644000D3F81414C2F83015D3F81814C2F8341560
:10645000D3F81C14C2F84015D3F82014C2F8441520
:10646000D3F82414C2F84815D3F82814C2F84C15F0
:10647000D3F82C14C2F85015D3F83014C2F85415C0
:10648000D3F83414C2F86015D3F83814C2F8641580
:10649000D3F83C14C2F86815D3F84014C2F86C1550
:1064A000D3F84434C2F8703506F041F918B1374BCF
:1064B000374AC3F88C2606F03AF918B1354BFB225F
:1064C000C3F8182506F033F958B14FF080424FF069
:1064D0008051D2F8E43ED1F8581261F30303C2F8B8
:1064E000E43E06F024F920B12B4B4FF40072C3F8C0
:1064F00040264FF08053D3F83031082B17D14FF09E
:106500008043D3F80024D20744BF6FF00102C3F8E0
:1065100000244FF08053D3F83431042B81BF4FF067
:106520001023D3F808224FF08043C3F858254FF0CA
:106530001023D3F80022002A03DBD3F80432002B07
:1065400022DA164901234FF01020C1F80435122435
:10655000FFF74CFFC0F80042FFF748FFC0F80442C5
:10656000FFF744FF0023C1F80435FFF73FFFBFF3F7
:106570004F8F0B490B4BCA6802F4E0621343CB60A8
:10658000BFF34F8F00BFFDE710BD00BF00500040BC
:106590004881030000F000400090024000E001400C
:1065A00000ED00E00400FA05014B00201B681847CD
:1065B00020140020014B1B68184700BF2014002046
:1065C00010B50C4C237993B9012323710A4B206039
:1065D000002818BF184600F04BF850B92368074848
:1065E000002BBDE8104008BF184600F091B86FF0CE
:1065F000770010BD20140020A9650000B5650000DB
:1066000008B5064B1B682BB10020FBF7ABFD08B9A2
:10661000FBF786FD024B01221A7008BD20140020F2
:10662000EF14002038B54FF080440123C4F808333C
:1066300063600023C4F80031D4F8003142F21075D1
:10664000D4F80C24D4F80C34D20307D5DB0705D5D5
:10665000012006F07CF8013DF2D138BD06F0CDF8FE
:106660000028FAD0014B00225A71F6E728140020C6
:1066700010B508490C794CB9012308600B7106F07C
:10668000BCF808B9002010BD4C71FBE76FF0770033
:10669000F9E700BF281400204FF080430022C3F820
:1066A0000021D3F80021094901221A60096811B1BB
:1066B000C3F804237047D3F80021002AFBD000223E
:1066C000C3F80021D3F80031704700BF2814002020
:1066D00010B54FF08043D3F80423D20715D5D3F873
:1066E000002192B10022C3F800210121D3F800213A
:1066F000C3F8081306F081F8044B10B15A7922B997
:106700005971BDE810401B68184710BD28140020BF
:10671000074A13794BB901215371106011714FF081
:1067200080421846C2F8183570476FF077007047FE
:106730003014002010B54FF080431B4CD3F81814D0
:10674000D3F8182411F4803F15D0900701D006F03B
:1067500074F84FF080430022C3F81825C3F80421D1
:10676000D3F8042101229A60226872B9D3F8042177
:10677000002AFBD011E0D3F81424D107E9D5D3F8CF
:106780001C249207E3D122681AB10222C3F8042321
:1067900010BDD3F80421002AFBD00022C3F8042145
:1067A000D3F80431F4E700BF3014002038B54FF0BF
:1067B0008041D1F80C24D1F80C34D0032AD5DA0763
:1067C00028D5D1F81834DB0324D5154C637903F0B0
:1067D000FF0213BBC1F80C210125D1F80C31657102
:1067E00006F01CF810B10223C1F8343C4FF080438E
:1067F0001D61226822B10822C3F80423002038BD9D
:10680000D3F80C21002AFBD00022C3F80C21D3F8C6
:106810000C31F3E76FF07600F1E76FF00F00EEE771
:10682000301400202DE9F0414FF08043164FD3F88B
:106830000443012504F01A0400260CB9BDE8F081D8
:10684000B4FA84F1C1F11F018B0003F580739BB290
:1068500003F1804305FA01F2186892B224EA0204B7
:106860000028EAD04FF080481E60082A1B68C8F84C
:10687000082305D105F0D2FF08B1C8F8346C7E7149
:106880003B68C8B29847D8E730140020036803F08B
:106890001F025B09026004D0012B034818BF0020CF
:1068A00070474FF0A040704700030050034A43096F
:1068B00000F01F00D35C1844C0B2704738EA0000F3
:1068C000024611F0010030B515D18B07C1F340002D
:1068D00022D51249D1F8200550604FF08052C1F8FE
:1068E0002005D2F83021082A08BFD1F82025003829
:1068F00018BF012010E04FF0A0444FF08055D4F8AD
:1069000020351360C4F82035D5F83051082D08BF64
:10691000D4F82045002BD8D030BD00BF0003005074
:10692000F7B504460846FFF7C1FF04EB40060D46E5
:10693000B38ADB072AD5204606F082F8294620468E
:1069400005F0EEFF50B1204606F000F8276807EB8F
:1069500080000023C0F81035C0F8103529462046C5
:1069600006F01DF80021B18201A80195FFF78EFF06
:10697000019B00EB8300074BD0F80027134043F046
:106980000203C0F80037084603B0F0BD6FF01500F1
:10699000FAE700BFF0F8FCFF014805F0F8BE00BFC1
:1069A0009404002010B504480C4605F0D2FE0028DF
:1069B000A4BF2070002010BD940400202DE9F04FEA
:1069C000074689B057F8049BD9F80413C9B2834627
:1069D000082241F00041484606F00AF8051E2FDA69
:1069E0000023032106A8CDE90633FFF769FF634BB7
:1069F00001930DF118084FF0000A019A604912F84E
:106A0000013B0192DA0803F007038A5C22FA03F3E0
:106A1000DB071CD40AF10103022B08F104084FF034
:106A2000010AEAD14FF000410022484605F0E0FF9C
:106A3000032106A8FFF744FF0028D8D125F0004520
:106A40000124002D40F0848009B0BDE8F08F4D4B4B
:106A500053440293D8F80060002EDBD0029B96FAD4
:106A6000A6F61C78B6FA86F646EA44142046FFF7E6
:106A70001DFF0BEB4000F208818A18F80200059414
:106A8000C1F382030393009306F00706012303FA80
:106A900006F620EA060008F8020005A8FFF7F6FE51
:106AA000059A039B02F5E07211F0100F50F8226076
:106AB000C6F3014633D0009A3846214605F050FF10
:106AC00005A80594FFF7E2FE059B03F5E073F6B217
:106AD00050F82330C3F301439E4207D100212046E2
